:100000000C945C020C9484020C9484020C94840280
:100010000C9484020C9484020C9484020C94840248
:100020000C9484020C9484020C9484020C94BF0EF1
:100030000C9484020C9484020C9484020C94840228
:100040000C941D0E0C9484020C948D0E0C94670E6F
:100050000C9484020C9484020C9484020C94840208
:100060000C9484020C94840265727220736571751D
:10007000656E63653A006F6B20686F6D655F646FD6
:100080006E65006572722062757379206D6F6465AC
:100090003D0065727220736F6C5F616374696F6E8F
:1000A0003A002070756C736520006F6B20006572DC
:1000B000722070756C73655F6D733A312E2E00205F
:1000C0006F6666006F6B2000657272206F6E5F64F2
:1000D000697361626C6564200065727220686F707C
:1000E0007065725F616374696F6E3A006F6B206850
:1000F0006F70706572207465737420006572722071
:10010000686F707065725F746573745F6D733A3198
:100110002E2E006F6B20686F707065723D6F666683
:10012000006F6B20686F707065723D6379636C69F6
:10013000630074797065202768656C702720666F8E
:100140007220636F6D6D616E6473007265616479B6
:10015000206669726D776172653D003D3D3D3D3DB4
:100160003D3D3D3D3D3D3D3D3D3D3D3D3D3D3D3DBF
:100170003D3D3D3D006B6E6F636B205B3C6379637F
:100180006C65733E5D00686F70706572206F6E7C89
:100190006F66667C74657374203C6D733E2020200E
:1001A000286F6E203D203130732F32307320437919
:1001B000636C652900736F6C656E6F696420317CB8
:1001C00032206F66667C70756C7365203C6D733E83
:1001D0002020202844617565722D4F4E2064656192
:1001E0006B746976696572742900736572766F2025
:1001F0003C302E2E3138303E0070757368657220A9
:100200006677647C7265767C73746F7020285057B3
:100210004D2061757320706172616D732E707573FE
:100220006865725F70776D29007072657373206600
:1002300077647C7265767C73746F702020285057C9
:100240004D2061757320706172616D732E707265DF
:1002500073735F70776D29007374657070657220B9
:100260003C73746570733E00686F6D65207C20730D
:1002700074756666207C2073746570203C312E2E68
:1002800031313E207C2073746F7000706172616D3B
:1002900073207C20676574203C6B3E207C20736556
:1002A00074203C6B3E203C763E0070696E67207C7B
:1002B00020737461747573207C2068656C70003DD8
:1002C0003D3D2053746F70666D61736368696E6540
:1002D0002076302E33203D3D3D00207374657070D4
:1002E00065725F706F733D0020686F707065725F3C
:1002F000656E61626C65643D0020686F7070657248
:100300003D0020736F6C323D0020736F6C313D00F7
:10031000206D6167617A696E3D0020707573685F5A
:10032000726561723D0020707573685F66726F6EF2
:10033000743D002070726573733D00206572726FAA
:10034000723D0020737465703D0073746174757341
:100350002073746174653D006F6B2073746F70005F
:100360006F6B20706172616D73006F6B20686F6DD1
:10037000696E67006572722062757379006F6B2019
:100380007374756666696E67006572722062757354
:1003900079006F6B20737465703D00657272207315
:1003A0007465705F72616E67653A312E2E006572FA
:1003B0007220627573790065727220756E6B6E6F54
:1003C000776E5F636F6D6D616E643A006F6B206B6B
:1003D0006E6F636B20006F6B206B6E6F636B006FD3
:1003E0006B20736572766F20006F6B207075736879
:1003F000657220006F6B20707265737320006F6BE5
:100400002073746570706572200065727220006FD1
:100410006B20006572722075736167653A7365744D
:10042000203C6B65793E203C76616C75653E0065CD
:10043000727220756E6B6E6F776E3A006F6B200074
:10044000706F6E67007761726E20776174636864A5
:100450006F675F74696D656F75740000000000243C
:100460000027002A0000000000250028002B0000C3
:1004700000000023002600290004040404040404EE
:100480000402020202020203030303030301020443
:100490000810204080010204081020010204081006
:1004A0002000000008000201000003040700000013
:1004B000000000000000371111241FBECFEFD8E06C
:1004C000DEBFCDBF14E0A0E0B1E0ECEEF4E402C08A
:1004D00005900D92A035B107D9F725E0A0E5B4E06D
:1004E00001C01D92AD3CB207E1F712E0CCE5D2E0CD
:1004F00004C02197FE010E94D61ECB35D107C9F753
:100500000E9433120C9474220C940000CF92DF925C
:10051000EF92FF92DC01A03282E0B807D4F5A53B50
:10052000B10514F0A4EBB0E04091830528E830E079
:10053000241B310947FD3395220F331F220F331F30
:100540006901330FEE08FF084091840528E532E089
:10055000241B310947FD3395220F331F220F331F10
:10056000032E000C440B550B2C193D094E095F0955
:10057000B7FF02C0B0E0A0E00E945A1E24EB30E0BA
:1005800040E050E00E94301EC20ED31EE41EF51E55
:10059000D601E0918205EC3080F52091830588E852
:1005A00090E0821B910927FD9395880F991F880F72
:1005B000991FA817B90784F02091840588E592E077
:1005C000821B910927FD9395880F991F880F991F0A
:1005D000A817B9070CF4CD010297880F991F4FB7E0
:1005E000F8942E2F30E0F901EE0FFF1FE20FF31FFA
:1005F000E35AFA4F928381834FBFFF90EF90DF90D1
:10060000CF900895833081F028F4813099F08230C2
:10061000A9F008958730A9F08830C9F08430B1F48A
:10062000809180008F7D03C0809180008F778093C0
:100630008000089584B58F7784BD089584B58F7D3B
:10064000FBCF8091B0008F778093B00008958091A8
:10065000B0008F7DF9CFCF93DF93282F30E0F901E1
:10066000EF55FB4F8491F901E357FB4FD491F9010A
:10067000E758FB4FC491CC23A1F081110E940203E3
:10068000EC2FF0E0EE0FFF1FE159FB4FA591B49165
:10069000EC91ED2381E090E009F480E0DF91CF91CF
:1006A000089580E090E0FACF1F93CF93DF93282F37
:1006B00030E0F901EF55FB4F8491F901E357FB4F0F
:1006C000D491F901E758FB4FC491CC23A9F0162F20
:1006D00081110E940203EC2FF0E0EE0FFF1FEB5997
:1006E000FB4FA591B4918FB7F894EC91111108C00C
:1006F000D095DE23DC938FBFDF91CF911F910895BA
:10070000DE2BF8CFCF93DF9390E0FC01E357FB4F54
:10071000249187589B4FFC0184918823C9F090E075
:10072000880F991FFC01E55AFB4FA591B491FC017C
:10073000EB59FB4FC591D49161110DC09FB7F8944F
:100740008C91209582238C938881282328839FBFB6
:10075000DF91CF910895623051F49FB7F8943C91A6
:10076000822F809583238C93E8812E2BEFCF8FB738
:10077000F894EC912E2B2C938FBFEACF1F93CF933D
:10078000DF93182FEB0161E00E948203209739F478
:1007900060E0812FDF91CF911F910C945403CF3FE4
:1007A000D10511F461E0F5CFE12FF0E0EF55FB4FFB
:1007B000E491E33031F140F4E130B1F0E230E1F0C6
:1007C000C038D1057CF7E4CFE73029F1E83059F1A2
:1007D000E430B1F780918000806280938000D093F4
:1007E0008B00C0938A0004C084B5806884BDC7BDF7
:1007F000DF91CF911F91089584B5806284BDC8BDFB
:10080000F7CF80918000806880938000D09389002A
:10081000C0938800EDCF8091B00080688093B000D5
:10082000C093B300E5CF8091B00080628093B000A8
:10083000C093B400DDCF3FB7F8948091BC04909191
:10084000BD04A091BE04B091BF0426B5A89B05C00D
:100850002F3F19F00196A11DB11D3FBFBA2FA92F3F
:10086000982F8827BC01CD01620F711D811D911D3C
:1008700042E0660F771F881F991F4A95D1F70895A8
:100880002FB7F8946091B8047091B9048091BA04BC
:100890009091BB042FBF0895AF92BF92CF92DF9289
:1008A000EF92FF920F931F93CF93DF936C017B0125
:1008B0008B01040F151FEB015E01AE18BF08C017B6
:1008C000D10759F06991D601ED91FC910190F08129
:1008D000E02DC6010995892B79F7C501DF91CF91EC
:1008E0001F910F91FF90EF90DF90CF90BF90AF904E
:1008F0000895FC01448155816081718180EC94E010
:100900000C944C04FC01538D448D252F30E0842F32
:1009100090E0821B930B541710F0CF960895019727
:100920000895FC01918D828D981761F0A28DAE0F14
:10093000BF2FB11D5D968C91928D9F5F9F73928F9B
:1009400090E008958FEF9FEF0895FC01918D828DC7
:10095000981731F0828DE80FF11D858D90E0089594
:100960008FEF9FEF0895FC01918D228D892F90E0EC
:10097000805C9F4F821B91098F739927089580ECAB
:1009800094E00E94B30421E0892B09F420E0822F37
:10099000089580E090E0892B29F00E94BF04811126
:1009A0000C9400000895FC01A48DA80FB92FB11D6F
:1009B000A35ABF4F2C91848D90E001968F73992795
:1009C000848FA689B7892C93A089B1898C91837073
:1009D00080648C93938D848D981306C00288F3896C
:1009E000E02D80818F7D80830895EF92FF920F9399
:1009F0001F93CF93DF93EC0181E0888F9B8D8C8DCB
:100A000098131AC0E889F989808185FF15C09FB7BE
:100A1000F894EE89FF896083E889F9898081837081
:100A2000806480839FBF81E090E0DF91CF911F9130
:100A30000F91FF90EF900895F62E0B8D10E00F5F51
:100A40001F4F0F731127E02E8C8D8E110CC00FB627
:100A500007FCFACFE889F989808185FFF5CFCE01BF
:100A60000E94D304F1CFEB8DEC0FFD2FF11DE35A63
:100A7000FF4FF0829FB7F8940B8FEA89FB89808142
:100A80008062CFCF0F931F93CF93DF938C01D0E081
:100A9000C0E0F801EC0FFD1F6491662341F080EC8B
:100AA00094E00E94F504892B11F02196F2CFCE013B
:100AB000DF91CF911F910F910895682F80EC94E002
:100AC0000C94F504CF93DF93EC01888D8823B9F063
:100AD000AA89BB89E889F9898C9185FD03C0808149
:100AE00086FD0DC00FB607FCF7CF8C9185FFF2CFC6
:100AF000808185FFEDCFCE010E94D304E9CFDF9145
:100B0000CF910895CF93DF93FC012781222359F1E0
:100B1000EC0161E080850E94820361E089850E948A
:100B200082038F81843011F08830B1F461E08A85CE
:100B30000E94820361E08B850E9482038FA58F3F14
:100B400091F061E00E9482036EA581E068278FA585
:100B5000DF91CF910C945403833011F0863071F7FC
:100B600061E08A85E9CFDF91CF910895CF93DF933C
:100B7000FC0127812223A9F0EC010190F081E02DF6
:100B80000284F385E02D60E009958FA58F3F49F041
:100B900061E00E9482036EA58FA5DF91CF910C9436
:100BA0005403DF91CF910895DC01ED91FC912285F2
:100BB00033854770552766277727415051096109CA
:100BC0007109473051056105710560F4FA01E5517D
:100BD000FA4F0C94D61EF505F705F905FB05FD0542
:100BE000FF05010661E0F901099465E0FCCF64E0CE
:100BF000FACF66E0F8CF62E0F6CF6AE0F4CF68E0C3
:100C0000F2CF69E0F0CFCF93DF93EC01CB01BA01D3
:100C100026E030E040E050E00E94301E6230710576
:100C20008105910589F16CF46115710581059105C6
:100C3000D1F06130710581059105F9F0DF91CF9117
:100C40000895643071058105910561F124F16530E5
:100C500071058105910591F7E881F9810284F38599
:100C6000E02D66E006C0E881F9810284F385E02D7D
:100C700064E0CE01DF91CF910994E881F98102848B
:100C8000F385E02D65E0F5CFE881F9810284F385F5
:100C9000E02D61E0EECFE881F9810284F385E02D5B
:100CA00063E0E7CFE881F9810284F385E02D62E01B
:100CB000E0CFDC01ED91FC910284F385E02D4370DF
:100CC000552766277727423051056105710571F078
:100CD000433051056105710559F0413051056105F9
:100CE000710511F065E0099466E0FDCF6AE0FBCF85
:100CF00069E0F9CFCF93DF93EC01CB01BA0123E098
:100D000030E040E050E00E94301E61307105810506
:100D1000910599F06230710581059105A9F0672B65
:100D2000682B692BC1F4E881F9810284F385E02DF9
:100D300064E0CE01DF91CF910994E881F9810284CA
:100D4000F385E02D61E0F5CFE881F9810284F38538
:100D5000E02D62E0EECFDF91CF910895DC01ED91BF
:100D6000FC910284F385E02D437055276627772791
:100D7000423051056105710571F04330510561053F
:100D8000710559F0413051056105710511F062E0BE
:100D9000099463E0FDCF61E0FBCF60E0F9CFCF9332
:100DA000DF93EC01E881F9810284F385E02D8A81EB
:100DB00060E0811162E0CE010995E881F981028449
:100DC000F385E02D8A8161E0811163E0CE01099510
:100DD0008CA59DA58230910538F0880F991F880F4A
:100DE000991F05970197F1F7E881F9810284F3854E
:100DF000E02D8A8160E0811162E0CE01DF91CF9128
:100E00000994CF93DF93EC0120E030E0A901688DD5
:100E1000798D8A8D9B8D0E94F11F18162CF4E8A9FC
:100E2000F9A9DF91CF910994EAA9FBA9FACFCF9252
:100E3000DF92EF92FF920F931F93CF93DF93DC012A
:100E40001796CC91C43039F0C83059F1C33019F03D
:100E5000C63049F1C2E08C01085F1F4FF12CE12C34
:100E6000C62ED12CD1E0F8016481C6010E2C02C03F
:100E7000959587950A94E2F780FD6D270F5F1F4FC8
:100E800080810E945403BFEFEB1AFB0AEC1658F363
:100E9000DF91CF911F910F91FF90EF90DF90CF9056
:100EA0000895C4E0D8CFC3E0D6CFDC011796EC910B
:100EB0001797E93008F038C0F0E0EF59F84F0C947C
:100EC000D61E6A07700776077C0782079407880793
:100ED00094078E07ED91FC910684F785E02D099427
:100EE000ED91FC910088F189E02DF9CFED91FC9115
:100EF0000288F389E02DF3CFED91FC910488F58908
:100F0000E02DEDCFED91FC910688F789E02DE7CF3C
:100F1000ED91FC91008CF18DE02DE1CFED91FC91F4
:100F2000028CF38DE02DDBCF08954F925F926F928C
:100F30007F928F929F92AF92BF92CF92DF92EF9269
:100F4000FF920F931F93CF93DF93EC01CC88DD8842
:100F5000EE88FF8888899989AA89BB89C81AD90A25
:100F6000EA0AFB0A688D798D8A8D9B8D9B01AC0105
:100F70000E94591D4B015C0168A179A18AA19BA126
:100F80009B01AC010E94DD1E9B01AC01C501B401B7
:100F90000E94491F0E94BB1FC114D104E104F10447
:100FA00009F0B6C062307105810591050CF0D0C022
:100FB0001B821C821D821E82188E198E1A8E1B8E19
:100FC0001CAA1DAA1EAA1FAAC12CD12C7601C701DA
:100FD000B601DF91CF911F910F91FF90EF90DF90BD
:100FE000CF90BF90AF909F908F907F906F905F90C9
:100FF0004F9008951016110612061306B4F46C15DE
:101000007D058E059F051CF42A812111A1C09B013D
:10101000AC0188279927DC01821B930BA40BB50B2D
:101020008CAB9DABAEABBFAB93C0011511052105D9
:10103000310509F48DC06C157D058E059F050CF0FA
:1010400087C08A81882309F483C030952095109544
:1010500001951F4F2F4F3F4F0CAB1DAB2EAB3FAB3E
:1010600077C0011511052105310509F471C08824E7
:10107000992454018C189D08AE08BF08681579059D
:101080008A059B050CF064C08A81811161C0DDCFA7
:10109000CCACDDACEEACFFACA7019601C701B6014C
:1010A0000E94DD1E2B013C01C501B4010E94FA1C07
:1010B00020E030E040E850E40E94591D20E030E09C
:1010C00040E85FE30E94DD1E9B01AC01C301B20159
:1010D0000E94491F9B01AC01C701B6010E94DC1EA2
:1010E0003B016C01FE01E05CFF4FE080F18002817A
:1010F00013819701A8010E94F11F181614F47301BF
:101100008601C701D8018CAF9DAFAEAFBFAF3AC06B
:101110000CA91DA92EA93FA91C141D041E041F04FF
:101120000CF468CF10161106120613060CF099CFB6
:101130000027112798010C191D092E093F09601776
:101140007107820793070CF062CF2A8121115FCFCC
:101150008CA89DA8AEA8BFA881149104A104B104D5
:1011600009F096CF88AD99ADAAADBBAD8CAF9DAF60
:10117000AEAFBFAF81E01C141D041E041F040CF0B1
:1011800080E08A833FEF831A930AA30AB30A8CAAEA
:101190009DAAAEAABFAA8CAC9DACAEACBFACC5013B
:1011A000B4010E94C21F6B017C01CB82DC82ED8204
:1011B000FE82A501940160E074E284E799E40E9454
:1011C000491F688F798F8A8F9B8F2A812111FFCECB
:1011D0009058688F798F8A8F9B8FF9CECF92DF924C
:1011E000EF92FF926B017C0120E030E0A9010E94A8
:1011F000F31C87FF04C0F7FAF094F7F8F094A70106
:1012000096016091A1057091A2058091A30590912E
:10121000A4050E94F31C882309F457C0C092A105BD
:10122000D092A205E092A305F092A405A701960131
:1012300060E074E284E799E40E94491F6093C50569
:101240007093C6058093C7059093C8058091B90532
:101250009091BA05A091BB05B091BC05181619066E
:101260001A061B0694F560919D0570919E0580916C
:101270009F059091A0059B01AC010E94591D6B0137
:101280007C016091A5057091A6058091A7059091BC
:10129000A8059B01AC010E94DD1E9B01AC01C701AA
:1012A000B6010E94491F0E94BB1F6093B90570934D
:1012B000BA058093BB059093BC0585E895E0FF9047
:1012C000EF90DF90CF900C949507FF90EF90DF9018
:1012D000CF9008950F931F93009195051091960557
:1012E0002091970530919805DC01CB01800F911F6B
:1012F000A21FB31F0091990510919A0520919B059B
:1013000030919C0580179107A207B30771F0809375
:10131000990590939A05A0939B05B0939C0585E849
:1013200095E01F910F910C9495071F910F910895CF
:10133000089561E084E00E94540360E087E00E9429
:10134000540360E088E00E94540360E089E00E945A
:10135000540360E08AE00E94540370E060E085E09E
:101360000E94BE0370E060E086E00E94BE0360E081
:1013700082E10E94540360E08DE00E94540360E02B
:101380008CE00C945403FC0101900020E9F73197A4
:10139000AF01481B590BBC0180EC94E00C944C0449
:1013A0008DEE91E00C94C309CF93DF930E94420528
:1013B000EC010E94D0098C0F9D1FDF91CF91089501
:1013C000CF93DF930E947904EC010E94D0098C0F27
:1013D0009D1FDF91CF9108958F929F92AF92BF9200
:1013E0000F931F93CF93DF93CDB7DEB7A1970FB6BF
:1013F000F894DEBF0FBECDBF19A2423008F44AE018
:101400008E010F5D1F4F842E912CB12CA12CA501B4
:1014100094010E94991EE62FB901CA01EA30F4F442
:10142000E05DD801EE938D01232B242B252B79F73A
:1014300090E080E0109719F0CD010E94C309A196B9
:101440000FB6F894DEBF0FBECDBFDF91CF911F91D5
:101450000F91BF90AF909F908F900895E95CE1CF7E
:10146000009711F00C94C30990E080E00895CF93A9
:10147000DF93D0E0C0E0009719F00E94C309EC01AF
:101480000E94D0098C0F9D1FDF91CF910895CF92BC
:10149000DF92EF92FF92CF93DF9397FF19C06B011A
:1014A0007C018DE20E945D05EC0166277727CB0168
:1014B0006C197D098E099F094AE00E94EC098C0F86
:1014C0009D1FDF91CF91FF90EF90DF90CF90089517
:1014D0004AE0DF91CF91FF90EF90DF90CF900C9496
:1014E000EC09CF93DF930E94470AEC010E94D009D8
:1014F0008C0F9D1FDF91CF910895BC01990F880B30
:10150000990B0C94470A4F925F926F927F928F9241
:101510009F92AF92BF92CF92DF92EF92FF926B01B8
:101520007C0120E030E0A9010E94F31C87FF04C089
:10153000F7FAF094F7F8F0948090A5059090A6053E
:10154000A090A705B090A805A7019601C501B40118
:101550000E94F31C882309F458C06091B90570916A
:10156000BA058091BB059091BC050E94FA1C2B0125
:101570003C01A7019601C501B4010E94491F9B01CE
:10158000AC01C301B2010E94591D0E94BB1F6093B0
:10159000B9057093BA058093BB059093BC05A7016C
:1015A000960160E070E080E090E40E94491F0E9494
:1015B000FC1F26E53EE04DE25FE30E94591D20E05E
:1015C00034E244E759E40E94591D6093BD057093CD
:1015D000BE058093BF059093C005C092A505D0922B
:1015E000A605E092A705F092A80585E895E0FF9092
:1015F000EF90DF90CF90BF90AF909F908F907F90B3
:101600006F905F904F900C949507FF90EF90DF9054
:10161000CF90BF90AF909F908F907F906F905F9092
:101620004F900895FC0180819181009711F00C94F6
:10163000ED2008950C94ED20FC01808191810097AC
:1016400011F00C94AE1C60E070E0CB010895AF92F5
:10165000BF92CF92DF92EF92FF920F931F93CF939F
:10166000DF93DC01CD90DC901197C114D10439F0E7
:101670001496CD91DC918C017601209761F4DF9175
:10168000CF911F910F91FF90EF90DF90CF90BF907F
:10169000AF90089575015701BFEFAB1ABB0AF70170
:1016A0008081082E000C990B0E94EA1C892B91F76F
:1016B0002197CC0DDD1D8881082E000C990B0E940E
:1016C000EA1C892B29F0CE15DF0510F02197F3CF06
:1016D000AE014F5F5F4F4E195F09D80115965C93BD
:1016E0004E931497CE14DF0420F4B701C6010E9474
:1016F0003322D801ED91FC91119714968D919C9114
:10170000E80FF91F1082BBCFFB0144815581FC011A
:10171000248135812417350778F0808191810097E5
:1017200059F0FB01608171816115710529F00E94FA
:10173000572221E0892B09F020E0822F0895FC0137
:1017400024813581232B31F421E0FB01672B49F4FF
:10175000822F0895808191816115710539F421E00E
:10176000FC0180818823A1F320E0F2CF0E94472270
:1017700021E0892B69F3F8CFEF92FF920F931F932B
:10178000CF93DF937C0100E111E0D0E0C0E0F801ED
:1017900060817181C7010E949F0B882379F029E045
:1017A0002C9FC0012D9F900D1124805F9E4FDF91D3
:1017B000CF911F910F91FF90EF9008952196075FB1
:1017C0001F4FC331D10519F790E080E0F0CFCF93E0
:1017D000DF93EC0162EF71E00E944722892B81F4D4
:1017E00061E089E00E94540360E08AE00E945403B3
:1017F0006091940470E086E0DF91CF910C94BE0379
:1018000066EF71E0CE010E94472260E0892B29F447
:1018100089E00E94540361E0E8CF89E00E9454030C
:1018200060E08AE00E94540370E060E0E4CFCF9370
:10183000DF93EC0162EF71E00E944722892B81F473
:1018400061E087E00E94540360E088E00E94540356
:1018500060918F0470E085E0DF91CF910C94BE031E
:1018600066EF71E0CE010E94472260E0892B29F4E7
:1018700087E00E94540361E0E8CF87E00E945403B0
:1018800060E088E00E94540370E060E0E4CFCF9312
:10189000C82F809374040E94400460937004709376
:1018A00071048093720490937304C73009F464C088
:1018B00090F4C330B1F140F4C13001F18091810462
:1018C000C23089F1CF910895C53009F450C078F144
:1018D00086EF91E04EC0C53609F453C048F4C930D4
:1018E00009F44AC010F0CA3069F786EF91E046C0AB
:1018F000C736B9F0D0F3C83659F3E4CF60E084E0DE
:101900000E94540360E070E088E494E40E94EE08D2
:1019100060917C0470917D0490E080E0CF910C9404
:101920006A098091800490E0CF910C948602109215
:101930006A0481E080936F040E94400460936B040A
:1019400070936C0480936D0490936E04809169048D
:10195000811102C0809186048093690461E082E174
:101960000E94540361E08DE0CF910C94540382EF08
:1019700091E0CF910C94170C82EF91E0CF910C94F1
:10198000E70B60E084E00E94540360E070E086E9C9
:1019900093E40E94EE0860E273E080E090E0BECF46
:1019A0008091A704833029F41092A7041092740444
:1019B0000895823041F4809174048F5F8C3008F078
:1019C00081E00C94470C8130D9F480917404863600
:1019D00059F018F4853631F00895873639F0883695
:1019E00039F0089586E6EDCF87E6EBCF88E6E9CFBC
:1019F0001092A7041092740486E790E00C94D40926
:101A000008950F931F93CF93DF93EC018881998101
:101A1000009759F02A813B812617370730F081E083
:101A2000DF91CF911F910F9108958B016F5F7F4FD1
:101A30000E947621009759F0998388831B830A833B
:101A40002C813D81232B59F7FC011082E8CF80E0E7
:101A5000E7CFEF92FF920F931F93CF93DF93EC01A9
:101A60007B018A01BA010E94010D2881398181110F
:101A700014C02115310519F0C9010E94ED20198209
:101A800018821D821C821B821A82CE01DF91CF91A7
:101A90001F910F91FF90EF9008951D830C83B70164
:101AA000C9010E945022F1CFFB0101900020E9F70B
:101AB0003197AF01461B570B0C94290DFC01118285
:101AC00010821382128215821482FB010190002081
:101AD000E9F73197AF01461B570B0C94290DAF92D4
:101AE000BF92CF92DF92EF92FF920F931F93CF930B
:101AF000DF93EC015B016A0179012417350720F4BB
:101B00008D2D6901E42EF82E6FEE71E0CE010E945A
:101B10005E0DD50114960D911C91C016D106E8F406
:101B2000E016F10608F48701D501ED91FC911197BB
:101B3000E00FF11FF08010826D917C916C0D7D1D86
:101B400061157105B1F0CE010E94540DF50180813F
:101B50009181080F191FD801FC92CE01DF91CF911E
:101B60001F910F91FF90EF90DF90CF90BF90AF90BB
:101B7000089588819981009711F00E94ED201982C3
:101B800018821D821C821B821A82E0CFCF93DF93C2
:101B9000EC01FB01248135810E946F0DCE01DF91A4
:101BA000CF910895FF920F931F93CF93DF938FE10F
:101BB00095EC90937A048093790482E080937B047F
:101BC00009E714E02DE934E0F80180E091918927DC
:101BD0002E173F07D9F780939D04D0E0C0E0F801AD
:101BE000F1908F01CE010E941A1EF81621F06F2D80
:101BF000CE010E94221E2196C532D10581F7DF91C8
:101C0000CF911F910F91FF90089547E150E0BC01E3
:101C100081E594E00E9465221092680484E080933C
:101C2000A7040E9499091092A20488E690E00E94FD
:101C3000420581E594E00C94370A1F920F920FB68B
:101C40000F9211242F933F938F939F93AF93BF9342
:101C50008091B8049091B904A091BA04B091BB04EA
:101C60003091B70423E0230F2D3758F50196A11DBD
:101C7000B11D2093B7048093B8049093B904A09346
:101C8000BA04B093BB048091BC049091BD04A091B0
:101C9000BE04B091BF040196A11DB11D8093BC0488
:101CA0009093BD04A093BE04B093BF04BF91AF91C5
:101CB0009F918F913F912F910F900FBE0F901F908A
:101CC000189526E8230F0296A11DB11DD2CF1F92B1
:101CD0000F920FB60F9211242F933F934F935F9360
:101CE0006F937F938F939F93AF93BF93EF93FF93E4
:101CF00080EC94E00E94D304FF91EF91BF91AF91EB
:101D00009F918F917F916F915F914F913F912F9113
:101D10000F900FBE0F901F9018951F920F920FB645
:101D20000F9211242F938F939F93EF93FF93E09142
:101D3000D004F091D1048081E091D604F091D704D1
:101D400082FD1BC090818091D9048F5F8F73209199
:101D5000DA04821741F0E091D904F0E0E054FB4F3F
:101D6000958F8093D904FF91EF919F918F912F913F
:101D70000F900FBE0F901F9018958081F4CF1F9287
:101D80000F920FB60F9211242F933F934F935F93AF
:101D90006F937F938F939F93AF93BF93CF93DF9373
:101DA000EF93FF9380915004C0918105D0E087FFAD
:101DB00024C01092850010928400809150048F5F9F
:101DC0008093500480915004082E000C990B8C17BE
:101DD0009D0724F4809150048C30C4F180918400DC
:101DE00090918500049680349C4908F47AC08091D3
:101DF000840090918500049676C080915004082E4E
:101E0000000C990B8C179D07C4F6E09150048E2F9F
:101E1000EE0F990BFC01EE0FFF1FE80FF91FE35ABD
:101E2000FA4F808186FFC9CFE09150048E2FEE0FCC
:101E3000990BFC01EE0FFF1FE80FF91FE35AFA4F51
:101E4000808160E08F730E945403B7CF209184009B
:101E500030918500E09150048E2FEE0F990BFC011C
:101E6000EE0FFF1FE80FF91FE35AFA4F81819281AD
:101E7000820F931F9093890080938800E091500413
:101E80008E2FEE0F990BFC01EE0FFF1FE80FF91FCD
:101E9000E35AFA4F808186FF11C0E09150048E2FE3
:101EA000EE0F990BFC01EE0FFF1FE80FF91FE35A2D
:101EB000FA4F808161E08F730E945403FF91EF918C
:101EC000DF91CF91BF91AF919F918F917F916F9152
:101ED0005F914F913F912F910F900FBE0F901F90E8
:101EE000189580E49CE990938900809388008FEF97
:101EF00080935004E3CFCF93C091A70481E0CC231B
:101F000099F083E890E00E94420580EF91E0C530AF
:101F100040F4EC2FF0E0EE0FFF1FEA5FFE4F8081F0
:101F200091810E94370A80E0CF910895CF93DF938B
:101F3000682F70E090E080E04AE00E94EC09EC013C
:101F40000E94D0098C0F9D1FDF91CF910895CF93F0
:101F5000DF934AE00E94EC09EC010E94D0098C0F4B
:101F60009D1FDF91CF910895CF92DF92EF92FF9264
:101F70000F931F93CF93DF9300D000D000D0CDB745
:101F8000DEB78C016AEF71E00E949F0B882301F19C
:101F900081E08093A2040E944004609375047093D2
:101FA0007604809377049093780481E291E00E9414
:101FB000D40926960FB6F894DEBF0FBECDBFDF91D1
:101FC000CF911F910F91FF90EF90DF90CF900895E8
:101FD0006DEF71E0C8010E949F0B882389F0109279
:101FE000A20410929E0410929F041092A0041092DA
:101FF000A10460E08CE00E94540383E191E0D7CF1C
:1020000061E072E0CE0101960E945E0DBE016F5F3D
:102010007F4FC8010E94840BF82ECE0101960E94CA
:10202000120BFF20D9F145E050E0B801CE01019636
:102030000E94C60DCE0101960E941C0B6B017C0113
:10204000CE0101960E94120BD701C6010197A1098A
:10205000B109803A9F40A105B10558F08CEF90E09E
:102060000E94420560EA7FE080E090E00E94A70FB6
:10207000A0CF0E9440046C0D7D1D8E1D9F1D60939E
:102080009E0470939F048093A0049093A1048CEE0F
:1020900090E00E944205C701B601E8CF89ED90E0CB
:1020A0000E944205C8010E94E00983CF3F924F92EF
:1020B0005F926F927F928F929F92AF92BF92CF92D8
:1020C000DF92EF92FF920F931F93CF93DF93CDB7E1
:1020D000DEB728970FB6F894DEBF0FBECDBF382EFF
:1020E0008B0122E18CE092E0321202C087E092E0A4
:1020F00098878F836AEF71E0C8010E949F0B882345
:1021000021F160E0832D0E94540388EC90E00E944E
:1021100042058F8198850E94370A28960FB6F89459
:10212000DEBF0FBECDBFDF91CF911F910F91FF900A
:10213000EF90DF90CF90BF90AF909F908F907F9067
:102140006F905F904F903F9008956DEF71E0C801E0
:102150000E949F0B882389F060E0832D0E94540326
:1021600084EC90E00E9442058F8198850E94300A9D
:102170008FEB90E00E94D409D0CF61E172E0CE01F4
:1021800001960E945E0DBE016F5F7F4FC8010E94E5
:10219000840BB82ECE0101960E94120BBB2009F4CD
:1021A0005EC046E050E0B801CE0101960E94C60D27
:1021B000CE0101960E941C0B4B015C01CE010196E1
:1021C0000E94120BD501C4010197A109B109883EF3
:1021D0009340A105B10558F08EEA90E00E944205B7
:1021E00068EE73E080E090E00E94A70F96CF61E078
:1021F000832D0E9454030E941B046B017C01240167
:1022000035010E941B046C197D098E099F09683EE7
:10221000734081059105A8F381E0481A51086108CF
:10222000710898EEC90E93E0D91EE11CF11C41140F
:1022300051046104710429F760E0832D0E94540366
:102240008AEA90E00E9442058F8198850E94300AB8
:1022500082EA90E00E944205C501B401C5CF82E93F
:1022600090E00E944205C8010E94E00956CFCF933A
:102270001092C3041092C20488EE93E0A0E0B0E094
:102280008093C4049093C504A093C604B093C7047C
:102290008FEB91E09093C1048093C00485EC90E0B3
:1022A0009093CD048093CC0484EC90E09093CF0481
:1022B0008093CE0480EC90E09093D1048093D0047E
:1022C00081EC90E09093D3048093D20482EC90E070
:1022D0009093D5048093D40486EC90E09093D70437
:1022E0008093D6041092D9041092DA041092DB0481
:1022F0001092DC0481ED91E0909386058093850532
:1023000081E080938C0510929505109296051092AD
:102310009705109298051092990510929A051092BF
:102320009B0510929C0510929D0510929E0510929F
:102330009F051092A0051092A1051092A20510927F
:10234000A3051092A4051092A5051092A60510925F
:10235000A7051092A80580E090E0A0E8BFE3809375
:10236000A9059093AA05A093AB05B093AC05109274
:1023700088051092890510928A0510928B0521E03C
:1023800030E03093B2052093B105CFEFC093B40590
:102390001092AD051092AE051092AF051092B005E7
:1023A00022E020938D0523E020938E0524E02093E6
:1023B0008F0525E0209390051092B3051092B90582
:1023C0001092BA051092BB051092BC051092BD0583
:1023D0001092BE051092BF051092C0051092C10563
:1023E0001092C2051092C3051092C4058093C505D2
:1023F0009093C605A093C705B093C80510928705B2
:1024000010929105109292051092930510929405E6
:1024100085E895E00E94820560E070E080E89FE337
:102420000E94830A60E070E080E89FE30E94EE086B
:10243000809181058C30A0F491E0980F90938105F4
:102440008093820590E0FC01EE0FFF1FE80FF91F5B
:10245000E35AFA4F88EB9BE092838183CF910895F2
:10246000C0938205FBCFCF93DF93CDB7DEB76897DC
:102470000FB6F894DEBF0FBECDBF789484B58260EE
:1024800084BD84B5816084BD85B5826085BD85B518
:10249000816085BD80916E00816080936E00109296
:1024A0008100809181008260809381008091810011
:1024B00081608093810080918000816080938000A2
:1024C0008091B10084608093B1008091B000816000
:1024D0008093B00080917A00846080937A0080912C
:1024E0007A00826080937A0080917A008160809384
:1024F0007A0080917A00806880937A001092C100FF
:10250000E091D004F091D10482E08083E091CC048A
:10251000F091CD041082E091CE04F091CF0480E1DF
:1025200080831092D804E091D404F091D50486E021
:102530008083E091D204F091D30480818061808314
:10254000E091D204F091D304808188608083E0918F
:10255000D204F091D304808180688083E091D2041A
:10256000F091D30480818F7D808319E7E12E14E000
:10257000F12E670110E000E0C8010E941A1ED6018A
:102580008D936D010F5F1F4F05321105A9F78091E3
:10259000790490917A048F31954C99F480917B0461
:1025A000823079F490919D042DE934E080E0F701C8
:1025B00041917F0184272E173F07C9F7981709F427
:1025C00068C08FE195EC90937A048093790482E05F
:1025D00080937B0488EC90E090937D0480937C044E
:1025E00088E893E190937F0480937E0485E0809354
:1025F000800485E58093810480E590E090938304D6
:102600008093820428E730E030938504209384048B
:1026100028E02093860420E23EE43093880420934F
:10262000870420E137E230938A042093890420E272
:1026300033E030938C0420938B0420EA3FE0309306
:102640008E0420938D0448EC40938F0430939104C2
:102650002093900430939304209392042CED2093C4
:10266000940420E931E030939604209395049093EC
:1026700098048093970490939A048093990484EF2C
:1026800091E090939C0480939B0410929D040E947F
:10269000D20D61E084E00E94820361E087E00E9445
:1026A000820361E088E00E94820361E089E00E9489
:1026B000820361E08AE00E94820361E085E00E947B
:1026C000820361E086E00E94820361E082E10E9471
:1026D000820361E08DE00E94820361E08CE00E9451
:1026E000820360E082E10E94540360E08DE00E947A
:1026F000540360E08CE00E94540360E08EE00E948E
:10270000820360E08FE00E94820360E080E10E942B
:10271000820362E083E10E94820360E070E088E46B
:1027200094E40E94EE0860E070E88BEB94E40E9471
:10273000830A809182058C3008F051C061E08BE003
:102740000E94820380918205282F30E0F901EE0F6C
:10275000FF1FE20FF31FE35AFA4F9081907C9B60BA
:10276000908310928305109284052CE0622F0E94C2
:10277000CA1E829FB001112430E020E0AB01420F5D
:10278000531FFA01EE0FFF1FE40FF51FE35AFA4F34
:10279000908196FD16C02F5F3F4F2C30310571F7A9
:1027A00081110FC01092800082E08093810010920E
:1027B000850010928400B19A80916F0082608093AE
:1027C0006F00E09182058E2F90E0FC01EE0FFF1F5D
:1027D000E80FF91FE35AFA4F80818064808380916B
:1027E000800490E00E9486020E9499090E944004A1
:1027F0006093A3047093A4048093A5049093A6040B
:102800000E94D0098BE491E00E94420586E292E0AA
:102810000E94370A82E391E00E94D4098091AF04BC
:10282000811109C06FEE71E089EA94E00E945E0DAB
:1028300081E08093AF0413E052E0D52E01E080ECFC
:1028400094E00E94B304181619060CF077C580ECCA
:1028500094E00E9491048A3019F08D3009F042C54D
:102860004091AD045091AE044115510541F31C8ACD
:102870001B8A1E8A1D8A188E1F8A6091A904709176
:10288000AA046115710521F0CE0143960E94290D1D
:10289000CE0143960E94270B8F89988D892B09F4CE
:1028A000F7C00E9440046093A3047093A404809333
:1028B000A5049093A6041092A8046CE272E0CE01E5
:1028C00043960E949F0B882329F080E494E00E94A5
:1028D000D409DEC061E372E0CE0143960E949F0BF3
:1028E000882379F18FEB92E00E94D4098AEA92E082
:1028F0000E94D4098BE892E00E94D40988E692E015
:102900000E94D40988E592E00E94D40989E292E00D
:102910000E94D40989EF91E00E94D4098AEE91E0E7
:102920000E94D40985EB91E00E94D40986E891E0E9
:102930000E94D40985E791E00E94D4098BE591E0DB
:10294000C6CF66E372E0CE0143960E949F0B8823B8
:1029500009F4ACC08EE00E942B03BB24B394892BF6
:1029600009F0B12C8FE00E942B03CC24C394892B57
:1029700009F0C12C80E10E942B03EE24E394892B03
:1029800009F0E12C83E10E942B03FF24F3940197CB
:1029900009F0F12C8AE493E00E944205E091A7043B
:1029A00080EF91E0E53038F4F0E0EE0FFF1FEA5FD2
:1029B000FE4F808191810E94300A83E493E00E945F
:1029C00042056091740470E090E080E04AE00E946B
:1029D000EC098BE393E00E94420580915104882327
:1029E00009F461C081E594E00E94300A83E393E03A
:1029F0000E9442058B2D90E00E947D0A86E293E0C2
:102A00000E9442058C2D90E00E947D0A8AE193E0AD
:102A10000E9442058E2D90E00E947D0A80E193E0A5
:102A20000E9442058F2D90E00E947D0A89E093E08C
:102A30000E94420582E10E942B030E947D0A82E0EF
:102A400093E00E9442058DE00E942B030E947D0AC4
:102A500089EF92E00E9442058CE00E942B030E94C5
:102A60007D0A88EE92E00E9442058091A20490E0E7
:102A70000E947D0A8AED92E00E94420560919505D0
:102A80007091960580919705909198050E94710A22
:102A9000CE0143960E94120B6FEE71E089EA94E03A
:102AA0000E94540DCCCE8FEE91E09ECF6DE372E08C
:102AB000CE0143960E949F0B882309F469C00E94AF
:102AC000990940909D0550909E0560909F057090DB
:102AD000A00520E030E0A901C301B2010E94F31C6F
:102AE000882379F1A3019201C301B2010E94591D0B
:102AF0004B015C016091A5057091A6058091A70529
:102B00009091A8059B01AC010E94DD1E9B01AC01C8
:102B1000C501B4010E94491F0E94BB1F4B015C010B
:102B200020E030E0A901C301B2010E94F11F181694
:102B300044F5C501B4016F5F7F4F8F4F9F4F0E94D7
:102B40006A0960E070E0CB010E946A0960E070E011
:102B500088E494E40E94EE08109269041092A204A2
:102B600010929E0410929F041092A0041092A1044F
:102B70001092A704109274041092510488E593E017
:102B8000A6CEC501B4016095709580959095D7CF7C
:102B900062E472E0CE0143960E949F0B8823A1F16C
:102BA00080E693E00E94420530E1E32E31E0F32E0F
:102BB000D7011396ED91FC911497E758FB4F1296AD
:102BC0008C9181111EC08080912CB12CA12C80E2AF
:102BD0000E945D05F701808191810E94300A8DE39A
:102BE0000E945D05C501B4010E94470AF9E0EF0E9D
:102BF000F11C2BEBE21621E0F206D1F60E94D0097F
:102C000047CF80809180E1CF69E472E0CE010196E8
:102C10000E945E0DBE016F5F7F4FCE0143960E9402
:102C2000840BF82ECE0101960E94120BFF2009F4AE
:102C300040C044E050E0BE016D5E7F4FCE01019682
:102C40000E94C60DCE0101960E94270BCE0101966F
:102C50000E94BC0B009749F48FE294E00E94420569
:102C6000CE0101960E94E0091EC0DC011396ED9191
:102C7000FC911497E758FB4F12968C91811116C066
:102C80008080912CB12CA12C8CE394E00E94420511
:102C9000CE0101960E9479048DE30E945D05C50175
:102CA000B4010E94710ACE0101963EC080809180DD
:102CB000E9CF6EE472E0CE0101960E945E0DBE0186
:102CC0006F5F7F4FCE0143960E94840BF82ECE019A
:102CD00001960E94120BFF2009F499C044E050E0D5
:102CE000BE016D5E7F4FCE010D960E94C60DCE01D6
:102CF0000D960E94270B89899A89892B79F0ED849A
:102D0000FE8460E270E0C7010E943C22009731F02F
:102D1000FC01EE19FF097F01F7FF09C083E194E090
:102D20000E94D409CE010D960E94120BB1CE9F01D4
:102D300050E040E0BE01635F7F4FCE0107960E94E6
:102D40006F0DA7014F5F5F4FBE01635F7F4FCE01E5
:102D500001960E94C60DCE0101960E941C0B4B01EC
:102D60005C01CE0101960E94120BCE0107960E94D3
:102D7000BC0BFC01892B99F185819681B0E0A0E024
:102D800088169906AA06BB06ECF187819085B0E00B
:102D9000A0E088159905AA05BB05A4F1A381B4811B
:102DA000A758BB4F8281811117C08C920E94D20D0F
:102DB0008FE094E00E944205CE0107960E947904BC
:102DC0008DE30E945D05C501B4010E94710ACE0128
:102DD00007960E94120BA6CF8D929C92E7CF28E116
:102DE000E22E22E0F22E8AE094E00E944205C70122
:102DF0000E94300A8AE30E945D05CE0107960E9478
:102E0000E009E5CF90E2E92E92E0F92EECCF65E6FD
:102E100073E0CE0143960E949F0B882399F0809126
:102E2000A7048B7F19F084E793E051CD10925104F1
:102E30000093A7041092A20485E60E94470C8AE63C
:102E400093E045CD63E572E0CE0143960E949F0B6F
:102E50008823E9F08091A7048B7F19F089E893E03B
:102E600036CD10925104D092A7040093A2040E9480
:102E70004004609375047093760480937704909374
:102E8000780481E00E94470C8DE793E020CD69E54E
:102E900072E0CE0101960E945E0DBE016F5F7F4F12
:102EA000CE0143960E94840BF82ECE0101960E941B
:102EB000120BFF2081F145E050E0BE016D5E7F4FB7
:102EC000CE0101960E94C60DCE0101960E941C0BF8
:102ED000F62E8091A7048B7F29F08EEA93E00E9462
:102EE000D409E1CE8FEF8F0D8B3040F08BE993E06A
:102EF0000E9442058BE00E94960FD5CE109251049D
:102F00001093A7048F2D0E94470C82E993E00E9442
:102F100042058F2DF0CF6FE572E0CE0101960E9441
:102F20005E0DBE016F5F7F4FCE0143960E94840B02
:102F3000F82ECE0101960E94120BFF2069F10E942B
:102F40007B0F882309F4A4CD48E050E0BE016D5EFC
:102F50007F4FCE0101960E94C60DCE0101960E94C0
:102F60001C0B4B015C01CE0101960E94120B60E02C
:102F700084E00E94540360E070E088E494E40E94DE
:102F8000EE08C501B4010E946A098EEF93E00E9429
:102F90004205C501B4017ACD68E672E0CE01019622
:102FA0000E945E0DBE016F5F7F4FCE0143960E946F
:102FB000840BF82ECE0101960E94120BFF20C9F05F
:102FC0000E947B0F882309F463CD46E050E0BE01E8
:102FD0006D5E7F4FCE0101960E94C60DCE01019617
:102FE0000E94270B89819A810E94170C84EF93E03D
:102FF00035CE6FE672E0CE0101960E945E0DBE01F5
:103000006F5F7F4FCE0143960E94840BF82ECE0156
:1030100001960E94120BFF20C9F00E947B0F8823AB
:1030200009F436CD47E050E0BE016D5E7F4FCE0122
:1030300001960E94C60DCE0101960E94270B898140
:103040009A810E94E70B89EE93E008CE67E772E071
:10305000CE0101960E945E0DBE016F5F7F4FCE01D3
:1030600043960E94840BF82ECE0101960E94120B0B
:10307000FF2009F451C00E947B0F882309F408CD7A
:1030800046E050E0BE016D5E7F4FCE0101960E948A
:10309000C60DCE0101960E941C0BF12CE12C97FD70
:1030A00019C046E050E0BE016D5E7F4FCE0107962D
:1030B0000E94C60DCE0107960E941C0B653B710550
:1030C00081059105B4F084EBE82EF12CCE01079632
:1030D0000E94120BCE0101960E94120BC7010E94A2
:1030E00086028FED93E00E944205C7010E947D0A8F
:1030F00085CD46E050E0BE016D5E7F4FCE010D965E
:103100000E94C60DCE010D960E941C0B7B01CE01C4
:103110000D960E94120BDACF6EE772E0CE01019697
:103120000E945E0DBE016F5F7F4FCE0143960E94ED
:10313000840BF82ECE0101960E94120BFF20A9F0FD
:103140000E947B0F882309F4A3CC4BE050E0BE0122
:103150006D5E7F4FCE0101960E94C60DBE016F5F6E
:103160007F4F82E10E9456109ECD6AE872E0CE0148
:1031700001960E945E0DBE016F5F7F4FCE014396A8
:103180000E94840BF82ECE0101960E94120BFF20A4
:1031900099F00E947B0F882309F47ACC4BE050E031
:1031A000BE016D5E7F4FCE0101960E94C60DBE012D
:1031B0006F5F7F4F8DE0D6CF66E972E0CE0101965A
:1031C0000E945E0DBE016F5F7F4FCE0143960E944D
:1031D000840BF82ECE0101960E94120BFF2001F104
:1031E00047E050E0BE016D5E7F4FCE0101960E9428
:1031F000C60DCE0101960E94270B6DEF71E0CE0146
:1032000001960E949F0B882329F0CE0101960E940F
:10321000B40F49CD0E947B0F882309F444CDF5CF2C
:103220006EE972E0CE0143960E949F0B882389F0DD
:103230000E947B0F882309F42BCC10926904109212
:1032400051041093A70484E00E94470C86ED93E09C
:103250003ECB64EA72E0CE0101960E945E0DBE0193
:103260006F5F7F4FCE0143960E94840BF82ECE01F4
:1032700001960E94120BFF2061F10E947B0F8823B0
:1032800009F406CC46E050E0BE016D5E7F4FCE01F2
:1032900001960E94C60DCE0101960E941C0BF62ECF
:1032A000CE0101960E94120BF11002C0F09086042C
:1032B000F0926904109251041093A70484E00E94D4
:1032C000470C8CEC93E00E9442058F2D0E94960FD4
:1032D000DFCB87EB93E00E944205CE0143960E942C
:1032E000E009D6CBE090AD04F090AE0489831A8259
:1032F000FFEFEF1AFF0AB70189EA94E00E94010D7F
:10330000882399F02091A9043091AA048091AD04FA
:103310009091AE04BE016F5F7F4F820F931F0E949A
:103320005022F092AE04E092AD048091AD049091F1
:10333000AE048134910508F482CAAECB8091880531
:1033400090918905A0918A05B0918B05892B8A2BD4
:103350008B2B09F44FC00E941B046B017C018091F0
:10336000AD059091AE05A091AF05B091B005B70144
:10337000A601481B590B6A0B7B0B80918805909125
:103380008905A0918A05B0918B05481759076A07EE
:103390007B0780F18091950590919605A091970506
:1033A000B091980520918705222309F499C00196D0
:1033B000A11DB11D8093950590939605A093970547
:1033C000B0939805409195055091960560919705A9
:1033D0007091980585E895E00E945507C092AD056B
:1033E000D092AE05E092AF05F092B00585E895E089
:1033F0000E9495078091A70481118DC24091990583
:1034000050919A0560919B0570919C05809195055E
:1034100090919605A0919705B09198054817590786
:103420006A077B0721F461E084E00E9454030E9454
:10343000400400919E0410919F042091A0043091BB
:10344000A104011511052105310509F430C2601BE5
:10345000710B820B930B97FD25C260E08CE00E94FC
:10346000540310929E0410929F041092A004109294
:10347000A1048091A804811126C08091A704811124
:1034800022C00E9440040091A3041091A404209142
:10349000A5043091A604601B710B820B930B693855
:1034A00073418105910578F0012B022B032B59F014
:1034B0000E9499091092A20485E494E00E94D40924
:1034C00081E08093A80480E090E0892B09F4A6C9EC
:1034D0000E94BF04882309F4A1C90E9400009EC96C
:1034E0000197A109B10966CF8630D1F108F4E6C091
:1034F0008FE00E942B03892B09F012C18DE392E02B
:103500000E94E70B68C0853609F473C108F58A305C
:1035100009F425C108F448C18B3009F014C2809128
:10352000700490917104A0917204B0917304C81A50
:10353000D90AEA0AFB0A80919B0490919C04B0E0AE
:10354000A0E0C816D906EA06FB0608F4FCC143C091
:10355000873609F443C008F402C1883609F0F3C184
:103560008091700490917104A0917204B0917304E1
:10357000C81AD90AEA0AFB0A80918B0490918C043C
:10358000B0E0A0E0AC01BD014053584F6F4F7F4FFA
:103590004C155D056E057F0508F0BBC08DE392E01C
:1035A0000E94170C8DEB92E0B1C0409199055091AB
:1035B0009A0560919B0570919C058091950590916D
:1035C0009605A0919705B0919805481759076A0785
:1035D0007B0709F0B8C10E94D00CB5C1809170047E
:1035E00090917104A0917204B0917304C81AD90A21
:1035F000EA0AFB0A04EFC01601E0D006E104F10478
:1036000008F4A1C1E8CF0E9440046B017C01409105
:103610006B0450916C0460916D0470916E04809104
:103620006F0446015701841A950AA60AB70AB50124
:10363000A4018823F9F08091820490918304B0E082
:10364000A0E0481759076A077B0708F47CC160E0CF
:1036500082E10E94540360E08DE00E9454031092C6
:103660006F04C0926B04D0926C04E0926D04F092EF
:103670006E0469C18091840490918504B0E0A0E05B
:10368000481759076A077B0708F45DC180916A04EF
:103690008F5F80936A0490916904891718F01092E3
:1036A000690499CF61E082E10E94540361E08DE0FA
:1036B0000E94540381E080936F04D3CF8EE00E9478
:1036C0002B03892B29F48DE392E00E94170C83CF02
:1036D0008091700490917104A0917204B091730470
:1036E000C81AD90AEA0AFB0A80918D0490918E04C7
:1036F000B0E0A0E08C159D05AE05BF0508F023C124
:103700008DE392E00E94170C8BEA92E00E94050E76
:103710001AC1C816D906EA06FB0608F414C1D3CFAD
:103720008091700490917104A0917204B09173041F
:10373000C81AD90AEA0AFB0A809190049091910470
:10374000B0E0A0E08C159D05AE05BF0508F0FBC0FC
:103750008DE392E00E94E70B8EEC92E0D7CF80E100
:103760000E942B03892B09F4C9CE8091700490919B
:103770007104A0917204B0917304C81AD90AEA0ABC
:10378000FB0A8091920490919304B0E0A0E08C1524
:103790009D05AE05BF0508F0D6C08DE392E00E94FE
:1037A000E70B81EE92E0B2CF8FE00E942B03892BD2
:1037B00039F48DE392E00E94E70B84EF92E0A6CF0C
:1037C0008091700490917104A0917204B09173047F
:1037D000C81AD90AEA0AFB0A8091950490919604C6
:1037E000B0E0A0E0C816D906EA06FB0608F4ABC0B4
:1037F00085CE83E10E942B030197A1F510929505D8
:1038000010929605109297051092980510929905BE
:1038100010929A0510929B0510929C051092B90582
:103820001092BA051092BB051092BC051092880543
:103830001092890510928A0510928B0510929D05B1
:1038400010929E0510929F051092A00560E070E016
:10385000CB010E946A0960E070E088E494E40E9471
:10386000EE08B9CE8091700490917104A091720419
:10387000B0917304C81AD90AEA0AFB0A80917E043F
:1038800090917F04B0E0A0E08C159D05AE05BF05CA
:1038900008F059C060E070E0CB010E946A0985E041
:1038A00093E034CF61E08CE00E945403E2CD20919C
:1038B000A204211102C060E0F6CFC0908904D0902C
:1038C0008A04F12CE12C2091870430918804460170
:1038D0005701820E931EA11CB11CA5019401211554
:1038E00031054105510539F38090750490907604B7
:1038F000A0907704B0907804681979098A099B0927
:103900000E94991E21E06C157D058E059F0508F427
:1039100020E0622FC8CF843009F489CD0E94400492
:103920006B017C0180917404883009F418CF08F091
:10393000EACD843009F467CE08F0D6CD813009F4A1
:1039400034CE08F04BCE0E9440046093A3047093E1
:10395000A4048093A5049093A60469CD1F93FC0151
:1039600099278827BC01E89411911032E9F31930A6
:1039700010F01E30C8F31B3251F01D3249F4689428
:1039800006C00E94D51C610F711D811D911D1191F2
:1039900010531A30B0F33EF4909580957095619570
:1039A0007F4F8F4F9F4F1F910895592F482F372FCB
:1039B000262F660F771F881F991F660F771F881F96
:1039C000991F620F731F841F951F660F771F881F33
:1039D000991F089591110C94C61D803219F08950D9
:1039E0008550C8F708950E94351D08F481E00895B8
:1039F000E89409C097FB3EF4909580957095619589
:103A00007F4F8F4F9F4F9923A9F0F92F96E9BB273E
:103A10009395F695879577956795B795F111F8CFBA
:103A2000FAF4BB0F11F460FF1BC06F5F7F4F8F4F25
:103A30009F4F16C0882311F096E911C0772321F01B
:103A40009EE8872F762F05C0662371F096E8862FB3
:103A500070E060E02AF09A95660F771F881FDAF70A
:103A6000880F9695879597F90895990F0008550F37
:103A7000AA0BE0E8FEEF16161706E807F907C0F0F4
:103A800012161306E407F50798F0621B730B840BFC
:103A9000950B39F40A2661F0232B242B252B21F4D6
:103AA00008950A2609F4A140A6958FEF811D811D76
:103AB00008950E946C1D0C94E01D0E94D21D38F0E8
:103AC0000E94D91D20F0952311F00C94C91D0C946F
:103AD000CF1D11240C94141E0E94F11D70F3959FAC
:103AE000C1F3950F50E0551F629FF001729FBB27F5
:103AF000F00DB11D639FAA27F00DB11DAA1F649F91
:103B00006627B00DA11D661F829F2227B00DA11D43
:103B1000621F739FB00DA11D621F839FA00D611DC9
:103B2000221F749F3327A00D611D231F849F600DEA
:103B3000211D822F762F6A2F11249F5750409AF013
:103B4000F1F088234AF0EE0FFF1FBB1F661F771F9F
:103B5000881F91505040A9F79E3F510580F00C946A
:103B6000C91D0C94141E5F3FE4F3983ED4F3869570
:103B700077956795B795F795E7959F5FC1F7FE2B0A
:103B8000880F911D9695879597F90895992788270D
:103B9000089597F99F6780E870E060E008959FEFCF
:103BA00080EC089500240A941616170618060906D4
:103BB000089500240A9412161306140605060895A3
:103BC000092E0394000C11F4882352F0BB0F40F42B
:103BD000BF2B11F460FF04C06F5F7F4F8F4F9F4F6B
:103BE000089557FD9058440F551F59F05F3F71F0ED
:103BF0004795880F97FB991F61F09F3F79F0879554
:103C00000895121613061406551FF2CF4695F1DFDC
:103C100008C0161617061806991FF1CF869571056C
:103C2000610508940895E894BB2766277727CB01A0
:103C300097F90895F999FECF92BD81BDF89A992719
:103C400080B50895262FF999FECF1FBA92BD81BD88
:103C500020BD0FB6F894FA9AF99A0FBE019608950E
:103C6000052E97FB1EF400940E94471E57FD07D0B7
:103C70000E94991E07FC03D04EF40C94471E5095E9
:103C80004095309521953F4F4F4F5F4F0895909548
:103C90008095709561957F4F8F4F9F4F08950E943B
:103CA000BB1EA59F900DB49F900DA49F800D911DEC
:103CB00011240895B7FF0C944F1E0E944F1E821BC3
:103CC000930B08952F923F924F925F926F927F9243
:103CD0008F929F92AF92BF92CF92DF92EF92FF921C
:103CE0000F931F93CF93DF93CDB7DEB7CA1BDB0BC8
:103CF0000FB6F894DEBF0FBECDBF09942A8839886D
:103D000048885F846E847D848C849B84AA84B98473
:103D1000C884DF80EE80FD800C811B81AA81B9817F
:103D2000CE0FD11D0FB6F894DEBF0FBECDBFED0193
:103D30000895A1E21A2EAA1BBB1BFD010DC0AA1FEC
:103D4000BB1FEE1FFF1FA217B307E407F50720F004
:103D5000A21BB30BE40BF50B661F771F881F991F7F
:103D60001A9469F760957095809590959B01AC01C8
:103D7000BD01CF010895A29FB001B39FC001A39FD1
:103D8000700D811D1124911DB29F700D811D112494
:103D9000911D0895991B79E004C0991F961708F0AA
:103DA000961B881F7A95C9F780950895EE0FFF1F1F
:103DB0000590F491E02D09945058BB27AA270E9442
:103DC000F41E0C94E01D0E94D21D38F00E94D91DF3
:103DD00020F039F49F3F19F426F40C94CF1D0EF413
:103DE000E095E7FB0C94C91DE92F0E94F11D58F3E3
:103DF000BA17620773078407950720F079F4A6F5D0
:103E00000C94131E0EF4E0950B2EBA2FA02D0B016F
:103E1000B90190010C01CA01A0011124FF27591B0F
:103E200099F0593F50F4503E68F11A16F040A22F15
:103E3000232F342F4427585FF3CF46953795279586
:103E4000A795F0405395C9F77EF41F16BA0B620B85
:103E5000730B840BBAF09150A1F0FF0FBB1F661FCC
:103E6000771F881FC2F70EC0BA0F621F731F841F0F
:103E700048F4879577956795B795F7959E3F08F035
:103E8000B0CF9395880F08F09927EE0F97958795F7
:103E900008950E945D1F0C94E01D0E94D91D58F0EA
:103EA0000E94D21D40F029F45F3F29F00C94C91DF7
:103EB00051110C94141E0C94CF1D0E94F11D68F337
:103EC0009923B1F3552391F3951B550BBB27AA27D3
:103ED00062177307840738F09F5F5F4F220F331F0D
:103EE000441FAA1FA9F335D00E2E3AF0E0E832D0D5
:103EF00091505040E695001CCAF72BD0FE2F29D0D8
:103F0000660F771F881FBB1F261737074807AB07A9
:103F1000B0E809F0BB0B802DBF01FF2793585F4F1E
:103F20003AF09E3F510578F00C94C91D0C94141E74
:103F30005F3FE4F3983ED4F3869577956795B79500
:103F4000F7959F5FC9F7880F911D9695879597F90B
:103F50000895E1E0660F771F881FBB1F6217730784
:103F60008407BA0720F0621B730B840BBA0BEE1F99
:103F700088F7E09508950E94C21F6894B1110C94CF
:103F8000141E08950E94F91D88F09F5798F0B92FCC
:103F90009927B751B0F0E1F0660F771F881F991F7E
:103FA0001AF0BA95C9F714C0B13091F00E94131EEF
:103FB000B1E008950C94131E672F782F8827B85FFF
:103FC00039F0B93FCCF3869577956795B395D9F7D6
:103FD0003EF490958095709561957F4F8F4F9F4FE0
:103FE00008950E94351D08F48FEF089519F416F412
:103FF0000C94CF1D0C943C200E94F91DB8F399231A
:10400000C9F3B6F39F57550B87FF0E944A2000243F
:10401000A0E640EA900180585695979528F4805C78
:10402000660F771F881F20F026173707480730F4E0
:10403000621B730B840B202931294A2BA6951794F8
:104040000794202531254A2758F7660F771F881FC8
:1040500020F026173707480730F4620B730B840BE8
:10406000200D311D411DA09581F7B901842F915874
:10407000880F9695879508959F3F31F0915020F4D1
:10408000879577956795B795880F911D9695879534
:1040900097F9089591505040660F771F881FD2F707
:1040A00008950F931F93CF93DF938230910510F4FF
:1040B00082E090E0E091CB05F091CC0530E020E08B
:1040C000B0E0A0E0309799F42115310509F44AC019
:1040D000281B390B24303105D8F58A819B81611565
:1040E000710589F1FB0193838283FE0111C0408138
:1040F00051810281138148175907E0F04817590789
:1041000099F4109761F012960C93129713961C93E2
:104110003296CF01DF91CF911F910F9108950093B7
:10412000CB051093CC05F4CF2115310551F0421782
:10413000530738F0A901DB019A01BD01DF01F80145
:10414000C1CFEF01F9CF9093CC058093CB05CDCFB4
:10415000FE01E20FF31F81939193225031093983BD
:104160002883D7CF2091C9053091CA05232B41F46C
:1041700020910201309103013093CA052093C905B3
:1041800020910001309101012115310541F42DB735
:104190003EB74091040150910501241B350BE0917D
:1041A000C905F091CA05E217F307A0F42E1B3F0BD7
:1041B0002817390778F0AC014E5F5F4F2417350799
:1041C00048F04E0F5F1F5093CA054093C905819375
:1041D00091939FCFF0E0E0E09CCFCF93DF930097E7
:1041E000E9F0FC01329713821282A091CB05B091C5
:1041F000CC05ED0130E020E01097A1F42081318161
:10420000820F931F2091C9053091CA0528173907DD
:1042100009F061C0F093CA05E093C905DF91CF9121
:104220000895EA01CE17DF07E8F54A815B819E0118
:1042300041155105B1F7E901FB83EA834991599191
:10424000C40FD51FEC17FD0761F4808191810296A0
:10425000840F951FE90199838883828193819B83D1
:104260008A83F0E0E0E012968D919C91139700977D
:10427000B9F52D913C911197CD010296820F931FB4
:104280002091C9053091CA052817390739F63097AA
:1042900051F51092CC051092CB05B093CA05A093AE
:1042A000C905BCCFD383C28340815181840F951F40
:1042B000C817D90761F44E5F5F4F88819981480F15
:1042C000591F518340838A819B8193838283211567
:1042D000310509F0B0CFF093CC05E093CB059ECF2C
:1042E000FD01DC01C0CF13821282D7CFB0E0A0E085
:1042F000ECE7F1E20C94641E8C01009751F4CB01C1
:104300000E9451208C01C801CDB7DEB7E0E10C94CA
:10431000801EFC01E60FF71F9C0122503109E217B5
:10432000F30708F49DC0D901CD91DC911197C61710
:10433000D70798F0C530D10530F3CE010497861722
:10434000970708F3C61BD70B2297C193D1936D93A0
:104350007C93CF010E94ED20D6CF5B01AC1ABD0A41
:104360004C018C0E9D1EA091CB05B091CC05512C1B
:10437000412CF12CE12C109731F58091C9059091D9
:10438000CA058815990509F05CC04616570608F05D
:1043900058C08091000190910101009741F48DB7C0
:1043A0009EB74091040150910501841B950BE817BD
:1043B000F90708F055C0F093CA05E093C905F90163
:1043C00071836083A0CF8D919C91119712966C9010
:1043D000129713967C901397A815B90559F56C019F
:1043E00042E0C40ED11CCA14DB0420F1AC014A190E
:1043F0005B09DA011296159780F06282738251830D
:104400004083D9016D937C93E114F10471F0D701DD
:104410001396FC93EE93129776CF22968C0F9D1FE6
:10442000F90191838083F301EFCFF093CC05E09302
:10443000CB0569CF4816590608F42C017D01D3013C
:104440009ACFCB010E9451207C01009749F0AE0128
:10445000B8010E943322C8010E94ED20870153CF8A
:1044600010E000E050CFFB01DC0102C001900D9292
:1044700041505040D8F70895FC018191861721F0F2
:104480008823D9F7992708953197CF010895FB0123
:10449000DC018D91019080190110D9F3990B0895D9
:1044A000FB01DC0101900D920020E1F70895FB0172
:1044B000DC014150504030F08D910190801919F489
:1044C0000020B9F7881B990B0895FB01DC014150CE
:1044D000504048F001900D920020C9F701C01D9294
:0C44E00041505040E0F70895F894FFCFE1
:1044EC000000CD05800017031C0323032C033103AC
:1044FC003703010300010010274A03010500640083
:10450C0060EA5F030007000000B4006A03000800C3
:10451C000000B40075030109000100E803810301E8
:10452C000B000100D0078E03000D00010032009B30
:10453C0003010E00640060EAA8030110006400602F
:10454C00EAB60301120032001027C3030114006401
:10455C0000983AD8030016003C00FF00E203011754
:10456C000064001027F803011900640010270E04E2
:10457C00001B003C00FF001904011C0032008813D2
:10458C002604011E000100E8033404012000010090
:10459C00E80342040122000000102700000000F58F
:1045AC00044C0482046205B3049104A504000000C9
:1045BC0000B605820598091A0B95071707550701D0
:1045CC0007CF06AE067A0659060306D4050D0A0077
:1045DC003F0066776400726576006F6E006F6666EA
:1045EC0000746573742000736F6C3100736F6C32E0
:1045FC000070756C73652000756E6B6E6F776E0056
:10460C0072616E676500302E342E300070696E67F3
:10461C000068656C70007374617475730073746FEB
:10462C007000706172616D73006765742000736552
:10463C007420007374756666007374657020007363
:10464C0074657070657220007072657373200070F1
:10465C0075736865722000736572766F2000736FD6
:10466C006C656E6F696420312000736F6C656E6FC2
:10467C00696420322000686F7070657220006B6E68
:10468C006F636B006B6E6F636B200070726573737E
:10469C005F6677645F74696D656F757400707265C1
:1046AC0073735F7265765F7361666574790070759C
:1046BC00736865725F6677645F74696D656F757436
:1046CC00007075736865725F7265765F74696D658D
:1046DC006F757400656A6563745F6F76657274726A
:1046EC006176656C00686F6D655F6472756D5F7483
:1046FC00696D656F75740069646C6500686F6D69D0
:10470C006E67007374756666696E670073746570A6
:10471C00006572726F72006472756D5F7374657090
:10472C00735F7065725F706F7300686F6D655F6447
:10473C0072756D5F74696D656F75745F6D73007301
:10474C006572766F5F686F6D6500736572766F5F0B
:10475C006C6F6164006B6E6F636B5F6F6E5F6D731C
:10476C00006B6E6F636B5F6F66665F6D73006B6E75
:10477C006F636B5F6379636C657300686F707065F2
:10478C00725F6F6E5F6D7300686F707065725F6FD4
:10479C0066665F6D730070726573735F7265765FCA
:1047AC006D730070726573735F6677645F74696DA7
:1047BC00656F75745F6D730070726573735F70777E
:1047CC006D007075736865725F6677645F74696D90
:1047DC00656F75745F6D73007075736865725F7269
:1047EC0065765F74696D656F75745F6D7300707558
:1047FC00736865725F70776D00656A6563745F6678
:10480C0077645F6D7300736F6C315F6477656C6C8C
:10481C005F6D7300736F6C325F6477656C6C5F6D8A
:10482C007300737465705F64656C61795F6D7300A0
:00000001FF
