:100000000C945B020C9483020C9483020C94830284
:100010000C9483020C9483020C9483020C9483024C
:100020000C9483020C9483020C9483020C94BB0EF8
:100030000C9483020C9483020C9483020C9483022C
:100040000C94190E0C9483020C94890E0C94630E7C
:100050000C9483020C9483020C9483020C9483020C
:100060000C9483020C94830265727220736571751F
:10007000656E63653A006F6B20686F6D655F646FD6
:100080006E65006572722062757379206D6F6465AC
:100090003D0065727220736F6C5F616374696F6E8F
:1000A0003A002070756C736520006F6B20006572DC
:1000B000722070756C73655F6D733A312E2E00205F
:1000C0006F6666006F6B2000657272206F6E5F64F2
:1000D000697361626C6564200065727220686F707C
:1000E0007065725F616374696F6E3A006F6B206850
:1000F0006F70706572207465737420006572722071
:10010000686F707065725F746573745F6D733A3198
:100110002E2E006F6B20686F707065723D6F666683
:10012000006F6B20686F707065723D6379636C69F6
:10013000630074797065202768656C702720666F8E
:100140007220636F6D6D616E6473007265616479B6
:10015000206669726D776172653D003D3D3D3D3DB4
:100160003D3D3D3D3D3D3D3D3D3D3D3D3D3D3D3DBF
:100170003D3D3D3D006B6E6F636B205B3C6379637F
:100180006C65733E5D00686F70706572206F6E7C89
:100190006F66667C74657374203C6D733E2020200E
:1001A000286F6E203D203130732F32307320437919
:1001B000636C652900736F6C656E6F696420317CB8
:1001C00032206F66667C70756C7365203C6D733E83
:1001D0002020202844617565722D4F4E2064656192
:1001E0006B746976696572742900736572766F2025
:1001F0003C302E2E3138303E0070757368657220A9
:100200006677647C7265767C73746F7020285057B3
:100210004D2061757320706172616D732E707573FE
:100220006865725F70776D29007072657373206600
:1002300077647C7265767C73746F702020285057C9
:100240004D2061757320706172616D732E707265DF
:1002500073735F70776D29007374657070657220B9
:100260003C73746570733E00686F6D65207C20730D
:1002700074756666207C2073746570203C312E2E68
:10028000393E207C2073746F7000706172616D73F1
:10029000207C20676574203C6B3E207C2073657455
:1002A000203C6B3E203C763E0070696E67207C20CF
:1002B000737461747573207C2068656C70003D3DBB
:1002C0003D2053746F70666D61736368696E65205D
:1002D00076302E33203D3D3D00207374657070658F
:1002E000725F706F733D0020686F707065725F653C
:1002F0006E61626C65643D0020686F707065723D70
:100300000020736F6C323D0020736F6C313D002014
:100310006D6167617A696E3D0020707573685F7208
:100320006561723D0020707573685F66726F6E74F0
:100330003D002070726573733D00206572726F72AC
:100340003D0020737465703D007374617475732093
:1003500073746174653D006F6B2073746F70006F10
:100360006B20706172616D73006F6B20686F6D69D7
:100370006E67006572722062757379006F6B20730F
:1003800074756666696E670065727220627573794E
:10039000006F6B20737465703D006572722073741A
:1003A00065705F72616E67653A312E2E00657272FC
:1003B00020627573790065727220756E6B6E6F774F
:1003C0006E5F636F6D6D616E643A006F6B206B6E74
:1003D0006F636B20006F6B206B6E6F636B006F6BD6
:1003E00020736572766F20006F6B2070757368657F
:1003F0007220006F6B20707265737320006F6B202A
:1004000073746570706572200065727220006F6B86
:1004100020006572722075736167653A7365742098
:100420003C6B65793E203C76616C75653E0065727B
:100430007220756E6B6E6F776E3A006F6B20007076
:100440006F6E67007761726E207761746368646FA6
:10045000675F74696D656F757400000000002400AB
:1004600027002A0000000000250028002B000000C3
:1004700000002300260029000404040404040404EA
:10048000020202020202030303030303010204083F
:1004900010204080010204081020010204081020EE
:1004A0000000000800020100000304070000000033
:1004B00000000000331111241FBECFEFD8E0DEBFD3
:1004C000CDBF14E0A0E0B1E0E6E2F4E402C00590A4
:1004D0000D92A831B107D9F725E0A8E1B4E001C039
:1004E0001D92A339B207E1F712E0CBE5D2E004C0D8
:1004F0002197FE010E94731ECA35D107C9F70E94D9
:100500002F120C9411220C940000CF92DF92EF92E4
:10051000FF92DC01A03282E0B807D4F5A53BB1051B
:1005200014F0A4EBB0E04091490528E830E0241B2A
:10053000310947FD3395220F331F220F331F690105
:10054000330FEE08FF0840914A0528E532E0241BEE
:10055000310947FD3395220F331F220F331F032E1E
:10056000000C440B550B2C193D094E095F09B7FFD0
:1005700002C0B0E0A0E00E94F71D24EB30E040E0B4
:1005800050E00E94CD1DC20ED31EE41EF51ED60102
:10059000E0914805EC3080F52091490588E890E02D
:1005A000821B910927FD9395880F991F880F991F2A
:1005B000A817B90784F020914A0588E592E0821BCC
:1005C000910927FD9395880F991F880F991FA817E8
:1005D000B9070CF4CD010297880F991F4FB7F89413
:1005E0002E2F30E0F901EE0FFF1FE20FF31FED5D3C
:1005F000FA4F928381834FBFFF90EF90DF90CF90AF
:100600000895833081F028F4813099F08230A9F088
:1006100008958730A9F08830C9F08430B1F4809112
:1006200080008F7D03C0809180008F778093800051
:10063000089584B58F7784BD089584B58F7DFBCFF1
:100640008091B0008F778093B00008958091B000C2
:100650008F7DF9CFCF93DF93282F30E0F901E0565B
:10066000FB4F8491F901E457FB4FD491F901E8580D
:10067000FB4FC491CC23A1F081110E940103EC2F08
:10068000F0E0EE0FFF1FE259FB4FA591B491EC9102
:10069000ED2381E090E009F480E0DF91CF910895AF
:1006A00080E090E0FACF1F93CF93DF93282F30E0C4
:1006B000F901E056FB4F8491F901E457FB4FD491C7
:1006C000F901E858FB4FC491CC23A9F0162F8111F2
:1006D0000E940103EC2FF0E0EE0FFF1FEC59FB4FDF
:1006E000A591B4918FB7F894EC91111108C0D095F1
:1006F000DE23DC938FBFDF91CF911F910895DE2B16
:10070000F8CFCF93DF9390E0FC01E457FB4F2491A7
:1007100088589B4FFC0184918823C9F090E0880F92
:10072000991FFC01E65AFB4FA591B491FC01EC59CD
:10073000FB4FC591D49161110DC09FB7F8948C9176
:10074000209582238C938881282328839FBFDF9163
:10075000CF910895623051F49FB7F8943C91822F65
:10076000809583238C93E8812E2BEFCF8FB7F8945D
:10077000EC912E2B2C938FBFEACF1F93CF93DF9357
:10078000182FEB0161E00E948103209739F460E0AB
:10079000812FDF91CF911F910C945303CF3FD1054F
:1007A00011F461E0F5CFE12FF0E0E056FB4FE4916A
:1007B000E33031F140F4E130B1F0E230E1F0C03843
:1007C000D1057CF7E4CFE73029F1E83059F1E43086
:1007D000B1F780918000806280938000D0938B007D
:1007E000C0938A0004C084B5806884BDC7BDDF9112
:1007F000CF911F91089584B5806284BDC8BDF7CFA5
:1008000080918000806880938000D0938900C0939D
:100810008800EDCF8091B00080688093B000C093D5
:10082000B300E5CF8091B00080628093B000C093A8
:10083000B400DDCF3FB7F894809182049091830497
:10084000A0918404B091850426B5A89B05C02F3FD4
:1008500019F00196A11DB11D3FBFBA2FA92F982FE6
:100860008827BC01CD01620F711D811D911D42E0E1
:10087000660F771F881F991F4A95D1F708952FB7E4
:10088000F89460917E0470917F048091800490912F
:1008900081042FBF0895AF92BF92CF92DF92EF9263
:1008A000FF920F931F93CF93DF936C017B018B011A
:1008B000040F151FEB015E01AE18BF08C017D1076A
:1008C00059F06991D601ED91FC910190F081E02DF4
:1008D000C6010995892B79F7C501DF91CF911F9149
:1008E0000F91FF90EF90DF90CF90BF90AF90089561
:1008F000FC01448155816081718186E894E00C940B
:100900004B04FC01538D448D252F30E0842F90E063
:10091000821B930B541710F0CF96089501970895FA
:10092000FC01918D828D981761F0A28DAE0FBF2FC3
:10093000B11D5D968C91928D9F5F9F73928F90E019
:1009400008958FEF9FEF0895FC01918D828D981788
:1009500031F0828DE80FF11D858D90E008958FEFC5
:100960009FEF0895FC01918D228D892F90E0805C8E
:100970009F4F821B91098F739927089586E894E011
:100980000E94B20421E0892B09F420E0822F08950F
:1009900080E090E0892B29F00E94BE0481110C9424
:1009A00000000895FC01A48DA80FB92FB11DA35A12
:1009B000BF4F2C91848D90E001968F739927848F7F
:1009C000A689B7892C93A089B1898C9183708064A2
:1009D0008C93938D848D981306C00288F389E02D43
:1009E00080818F7D80830895EF92FF920F931F93F4
:1009F000CF93DF93EC0181E0888F9B8D8C8D9813D2
:100A00001AC0E889F989808185FF15C09FB7F894DD
:100A1000EE89FF896083E889F98980818370806429
:100A200080839FBF81E090E0DF91CF911F910F9174
:100A3000FF90EF900895F62E0B8D10E00F5F1F4F83
:100A40000F731127E02E8C8D8E110CC00FB607FC92
:100A5000FACFE889F989808185FFF5CFCE010E9420
:100A6000D204F1CFEB8DEC0FFD2FF11DE35AFF4FB8
:100A7000F0829FB7F8940B8FEA89FB8980818062AE
:100A8000CFCF0F931F93CF93DF938C01D0E0C0E0C3
:100A9000F801EC0FFD1F6491662341F086E894E0B5
:100AA0000E94F404892B11F02196F2CFCE01DF9140
:100AB000CF911F910F910895682F86E894E00C94D0
:100AC000F404CF93DF93EC01888D8823B9F0AA89D1
:100AD000BB89E889F9898C9185FD03C0808186FDF9
:100AE0000DC00FB607FCF7CF8C9185FFF2CF808148
:100AF00085FFEDCFCE010E94D204E9CFDF91CF91E7
:100B00000895CF93DF93FC012781222359F1EC0153
:100B100061E080850E94810361E089850E948103F4
:100B20008F81843011F08830B1F461E08A850E94B1
:100B3000810361E08B850E9481038FA58F3F91F037
:100B400061E00E9481036EA581E068278FA5DF9197
:100B5000CF910C945303833011F0863071F761E02C
:100B60008A85E9CFDF91CF910895CF93DF93FC0180
:100B700027812223A9F0EC010190F081E02D02846D
:100B8000F385E02D60E009958FA58F3F49F061E086
:100B90000E9481036EA58FA5DF91CF910C94530322
:100BA000DF91CF910895DC01ED91FC912285338591
:100BB0004770552766277727415051096109710908
:100BC000473051056105710560F4FA01E651FA4FAD
:100BD0000C94731EF405F605F805FA05FC05FE05F0
:100BE000000661E0F901099465E0FCCF64E0FACF0A
:100BF00066E0F8CF62E0F6CF6AE0F4CF68E0F2CFCB
:100C000069E0F0CFCF93DF93EC01CB01BA0126E08E
:100C100030E040E050E00E94CD1D6230710581055A
:100C2000910589F16CF46115710581059105D1F08B
:100C30006130710581059105F9F0DF91CF9108953B
:100C4000643071058105910561F124F1653071050C
:100C50008105910591F7E881F9810284F385E02D02
:100C600066E006C0E881F9810284F385E02D64E046
:100C7000CE01DF91CF910994E881F9810284F38557
:100C8000E02D65E0F5CFE881F9810284F385E02D60
:100C900061E0EECFE881F9810284F385E02D63E025
:100CA000E7CFE881F9810284F385E02D62E0E0CFAF
:100CB000DC01ED91FC910284F385E02D4370552712
:100CC00066277727423051056105710571F0433081
:100CD00051056105710559F04130510561057105F6
:100CE00011F065E0099466E0FDCF6AE0FBCF69E0B2
:100CF000F9CFCF93DF93EC01CB01BA0123E030E0D1
:100D000040E050E00E94CD1D6130710581059105E4
:100D100099F06230710581059105A9F0672B682B68
:100D2000692BC1F4E881F9810284F385E02D64E048
:100D3000CE01DF91CF910994E881F9810284F38596
:100D4000E02D61E0F5CFE881F9810284F385E02DA3
:100D500062E0EECFDF91CF910895DC01ED91FC913F
:100D60000284F385E02D43705527662777274230AC
:100D700051056105710571F043305105610571053B
:100D800059F0413051056105710511F062E0099497
:100D900063E0FDCF61E0FBCF60E0F9CFCF93DF935D
:100DA000EC01E881F9810284F385E02D8A8160E01D
:100DB000811162E0CE010995E881F9810284F38511
:100DC000E02D8A8161E0811163E0CE0109958CA557
:100DD0009DA58230910538F0880F991F880F991FC3
:100DE00005970197F1F7E881F9810284F385E02DF9
:100DF0008A8160E0811162E0CE01DF91CF91099498
:100E0000CF93DF93EC0120E030E0A901688D798D6C
:100E10008A8D9B8D0E948E1F18162CF4E8A9F9A9C3
:100E2000DF91CF910994EAA9FBA9FACFCF92DF9283
:100E3000EF92FF920F931F93CF93DF93DC011796EE
:100E4000CC91C43039F0C83059F1C33019F0C630F4
:100E500049F1C2E08C01085F1F4FF12CE12CC62E36
:100E6000D12CD1E0F8016481C6010E2C02C0959509
:100E700087950A94E2F780FD6D270F5F1F4F8081F1
:100E80000E945303BFEFEB1AFB0AEC1658F3DF91F5
:100E9000CF911F910F91FF90EF90DF90CF90089529
:100EA000C4E0D8CFC3E0D6CFDC011796EC911797FA
:100EB000E93008F038C0F0E0E05AF84F0C94731EA7
:100EC00069076F0775077B078107930787079307F4
:100ED0008D07ED91FC910684F785E02D0994ED9145
:100EE000FC910088F189E02DF9CFED91FC91028809
:100EF000F389E02DF3CFED91FC910488F589E02D85
:100F0000EDCFED91FC910688F789E02DE7CFED91CB
:100F1000FC91008CF18DE02DE1CFED91FC91028CE4
:100F2000F38DE02DDBCF08954F925F926F927F9209
:100F30008F929F92AF92BF92CF92DF92EF92FF92E9
:100F40000F931F93CF93DF93EC01CC88DD88EE885D
:100F5000FF8888899989AA89BB89C81AD90AEA0AA7
:100F6000FB0A688D798D8A8D9B8D9B01AC010E9457
:100F7000F61C4B015C0168A179A18AA19BA19B0190
:100F8000AC010E947A1E9B01AC01C501B4010E9414
:100F9000E61E0E94581FC114D104E104F10409F0B7
:100FA000B6C062307105810591050CF0D0C01B827E
:100FB0001C821D821E82188E198E1A8E1B8E1CAAF0
:100FC0001DAA1EAA1FAAC12CD12C7601C701B601E9
:100FD000DF91CF911F910F91FF90EF90DF90CF9015
:100FE000BF90AF909F908F907F906F905F904F9049
:100FF00008951016110612061306B4F46C157D053B
:101000008E059F051CF42A812111A1C09B01AC0112
:1010100088279927DC01821B930BA40BB50B8CABA3
:101020009DABAEABBFAB93C00115110521053105DA
:1010300009F48DC06C157D058E059F050CF087C0E9
:101040008A81882309F483C03095209510950195F5
:101050001F4F2F4F3F4F0CAB1DAB2EAB3FAB77C09D
:10106000011511052105310509F471C08824992461
:1010700054018C189D08AE08BF08681579058A05CB
:101080009B050CF064C08A81811161C0DDCFCCACBE
:10109000DDACEEACFFACA7019601C701B6010E9422
:1010A0007A1E2B013C01C501B4010E94971C20E06F
:1010B00030E040E850E40E94F61C20E030E040E8D8
:1010C0005FE30E947A1E9B01AC01C301B2010E9442
:1010D000E61E9B01AC01C701B6010E94791E3B01CF
:1010E0006C01FE01E05CFF4FE080F1800281138122
:1010F0009701A8010E948E1F181614F4730186012F
:10110000C701D8018CAF9DAFAEAFBFAF3AC00CA93D
:101110001DA92EA93FA91C141D041E041F040CF4B4
:1011200068CF10161106120613060CF099CF00278F
:10113000112798010C191D092E093F096017710725
:10114000820793070CF062CF2A8121115FCF8CA810
:101150009DA8AEA8BFA881149104A104B10409F010
:1011600096CF88AD99ADAAADBBAD8CAF9DAFAEAFFC
:10117000BFAF81E01C141D041E041F040CF080E0AE
:101180008A833FEF831A930AA30AB30A8CAA9DAA03
:10119000AEAABFAA8CAC9DACAEACBFACC501B401CD
:1011A0000E945F1F6B017C01CB82DC82ED82FE829C
:1011B000A501940160E074E284E799E40E94E61ED0
:1011C000688F798F8A8F9B8F2A812111FFCE90584B
:1011D000688F798F8A8F9B8FF9CECF92DF92EF92B3
:1011E000FF926B017C0120E030E0A9010E94901C7D
:1011F00087FF04C0F7FAF094F7F8F094A70196017E
:1012000060916705709168058091690590916A0504
:101210000E94901C882309F457C0C0926705D092A1
:101220006805E0926905F0926A05A701960160E001
:1012300074E284E799E40E94E61E60938B05709344
:101240008C0580938D0590938E0580917F059091FC
:101250008005A0918105B0918205181619061A061D
:101260001B0694F560916305709164058091650596
:10127000909166059B01AC010E94F61C6B017C01FC
:1012800060916B0570916C0580916D0590916E0574
:101290009B01AC010E947A1E9B01AC01C701B60103
:1012A0000E94E61E0E94581F60937F057093800580
:1012B00080938105909382058BE495E0FF90EF90F9
:1012C000DF90CF900C949407FF90EF90DF90CF9039
:1012D00008950F931F9300915B0510915C05209179
:1012E0005D0530915E05DC01CB01800F911FA21FCF
:1012F000B31F00915F051091600520916105309149
:10130000620580179107A207B30771F080935F050C
:1013100090936005A0936105B09362058BE495E01E
:101320001F910F910C9494071F910F9108950895A8
:1013300061E084E00E94530360E087E00E94530371
:1013400060E088E00E94530360E089E00E9453035C
:1013500060E08AE00E94530370E060E085E00E9454
:10136000BD0370E060E086E00E94BD0360E082E1C2
:101370000E94530360E08DE00E94530360E08CE024
:101380000C945303FC0101900020E9F73197AF0161
:10139000481B590BBC0186E894E00C944B0484EE86
:1013A00091E00C94C209CF93DF930E944105EC01B8
:1013B0000E94CF098C0F9D1FDF91CF910895CF938D
:1013C000DF930E947804EC010E94CF098C0F9D1FCF
:1013D000DF91CF9108958F929F92AF92BF920F931A
:1013E0001F93CF93DF93CDB7DEB7A1970FB6F894D5
:1013F000DEBF0FBECDBF19A2423008F44AE08E0115
:101400000F5D1F4F842E912CB12CA12CA5019401AE
:101410000E94361EE62FB901CA01EA30F4F4E05DFD
:10142000D801EE938D01232B242B252B79F790E007
:1014300080E0109719F0CD010E94C209A1960FB665
:10144000F894DEBF0FBECDBFDF91CF911F910F91FA
:10145000BF90AF909F908F900895E95CE1CF009787
:1014600011F00C94C20990E080E00895CF93DF93CF
:10147000D0E0C0E0009719F00E94C209EC010E9480
:10148000CF098C0F9D1FDF91CF910895CF92DF92EE
:10149000EF92FF92CF93DF9397FF19C06B017C010E
:1014A0008DE20E945C05EC0166277727CB016C1961
:1014B0007D098E099F094AE00E94EB098C0F9D1F50
:1014C000DF91CF91FF90EF90DF90CF9008954AE0A9
:1014D000DF91CF91FF90EF90DF90CF900C94EB09CC
:1014E000CF93DF930E94460AEC010E94CF098C0F34
:1014F0009D1FDF91CF910895BC01990F880B990B27
:101500000C94460A4F925F926F927F928F929F92B5
:10151000AF92BF92CF92DF92EF92FF926B017C016C
:1015200020E030E0A9010E94901C87FF04C0F7FA78
:10153000F094F7F8F09480906B0590906C05A09073
:101540006D05B0906E05A7019601C501B4010E941A
:10155000901C882309F458C060917F057091800524
:1015600080918105909182050E94971C2B013C017E
:10157000A7019601C501B4010E94E61E9B01AC01C2
:10158000C301B2010E94F61C0E94581F60937F05A0
:10159000709380058093810590938205A701960141
:1015A00060E070E080E090E40E94E61E0E94991FD7
:1015B00026E53EE04DE25FE30E94F61C20E034E2C7
:1015C00044E759E40E94F61C6093830570938405F8
:1015D0008093850590938605C0926B05D0926C052B
:1015E000E0926D05F0926E058BE495E0FF90EF9030
:1015F000DF90CF90BF90AF909F908F907F906F9033
:101600005F904F900C949407FF90EF90DF90CF90F5
:10161000BF90AF909F908F907F906F905F904F9012
:101620000895FC0180819181009711F00C948A202B
:1016300008950C948A20FC0180819181009711F01B
:101640000C944B1C60E070E0CB010895AF92BF9208
:10165000CF92DF92EF92FF920F931F93CF93DF937E
:10166000DC01CD90DC901197C114D10439F01496AF
:10167000CD91DC918C017601209761F4DF91CF91BF
:101680001F910F91FF90EF90DF90CF90BF90AF90A0
:10169000089575015701BFEFAB1ABB0AF7018081AE
:1016A000082E000C990B0E94871C892B91F721971B
:1016B000CC0DDD1D8881082E000C990B0E94871C23
:1016C000892B29F0CE15DF0510F02197F3CFAE015D
:1016D0004F5F5F4F4E195F09D80115965C934E938B
:1016E0001497CE14DF0420F4B701C6010E94D02164
:1016F000D801ED91FC91119714968D919C91E80F72
:10170000F91F1082BBCFFB0144815581FC0124816C
:1017100035812417350778F080819181009759F041
:10172000FB01608171816115710529F00E94F4212E
:1017300021E0892B09F020E0822F0895FC0124810B
:101740003581232B31F421E0FB01672B49F4822FF3
:101750000895808191816115710539F421E0FC01C2
:1017600080818823A1F320E0F2CF0E94E42121E0D0
:10177000892B69F3F8CFEF92FF920F931F93CF93CA
:10178000DF937C0100E111E0D0E0C0E0F80160816E
:101790007181C7010E949E0B882379F029E02C9F5C
:1017A000C0012D9F900D1124805F9E4FDF91CF913E
:1017B0001F910F91FF90EF9008952196075F1F4FA3
:1017C000C231D10519F790E080E0F0CFCF93DF93DD
:1017D000EC0169EE71E00E94E421892B81F461E063
:1017E00089E00E94530360E08AE00E945303609105
:1017F0005C0470E086E0DF91CF910C94BD036DEE48
:1018000071E0CE010E94E42160E0892B29F489E097
:101810000E94530361E0E8CF89E00E94530360E037
:101820008AE00E94530370E060E0E4CFCF93DF933F
:10183000EC0169EE71E00E94E421892B81F461E002
:1018400087E00E94530360E088E00E9453036091A8
:10185000570470E085E0DF91CF910C94BD036DEEED
:1018600071E0CE010E94E42160E0892B29F487E039
:101870000E94530361E0E8CF87E00E94530360E0D9
:1018800088E00E94530370E060E0E4CFCF93C82F5C
:1018900080933C040E943F046093380470933904A1
:1018A00080933A0490933B04C63031F1A0F4C330E6
:1018B000C9F140F4C13019F180914904C230A1F15D
:1018C000CF910895C430A1F189EE91E0C530C1F700
:1018D000CF910C94160CC53609F44FC040F4C730B4
:1018E00009F446C0C83061F78DEE91E043C0C736B9
:1018F000C9F0D0F3C83621F78DEE91E0E9CF60E072
:1019000084E00E94530360E070E088E494E40E9465
:10191000ED08609144047091450490E080E0CF911F
:101920000C9469098091480490E0CF910C94850251
:101930001092320481E0809337040E943F04609348
:10194000330470933404809335049093360480916B
:101950003104811102C080914E048093310461E012
:1019600082E10E94530361E08DE0CF910C94530318
:1019700089EE91E0CF910C94E60B60E084E00E9448
:10198000530360E070E086E993E40E94ED0860E2B2
:1019900073E080E090E0C3CF80916D04833029F440
:1019A00010926D0410923C040895823041F48091AD
:1019B0003C048F5F8A3008F081E00C94460C813043
:1019C000D9F480913C04863659F018F4853631F00C
:1019D0000895873639F0883639F0089586E6EDCFD8
:1019E00087E6EBCF88E6E9CF10926D0410923C04B5
:1019F00086E790E00C94D30908950F931F93CF933B
:101A0000DF93EC0188819981009759F02A813B810D
:101A10002617370730F081E0DF91CF911F910F91AA
:101A200008958B016F5F7F4F0E941321009759F03B
:101A3000998388831B830A832C813D81232B59F74B
:101A4000FC011082E8CF80E0E7CFEF92FF920F9386
:101A50001F93CF93DF93EC017B018A01BA010E94AF
:101A6000FD0C28813981811114C02115310519F02F
:101A7000C9010E948A20198218821D821C821B8241
:101A80001A82CE01DF91CF911F910F91FF90EF90BD
:101A900008951D830C83B701C9010E94ED21F1CF88
:101AA000FB0101900020E9F73197AF01461B570B6E
:101AB0000C94250DFC011182108213821282158272
:101AC0001482FB0101900020E9F73197AF01461B1A
:101AD000570B0C94250DAF92BF92CF92DF92EF92ED
:101AE000FF920F931F93CF93DF93EC015B016A0189
:101AF00079012417350720F48D2D6901E42EF82E85
:101B000066EE71E0CE010E945A0DD50114960D913A
:101B10001C91C016D106E8F4E016F10608F487011E
:101B2000D501ED91FC911197E00FF11FF08010822B
:101B30006D917C916C0D7D1D61157105B1F0CE012B
:101B40000E94500DF50180819181080F191FD80165
:101B5000FC92CE01DF91CF911F910F91FF90EF90FA
:101B6000DF90CF90BF90AF900895888199810097C2
:101B700011F00E948A20198218821D821C821B8209
:101B80001A82E0CFCF93DF93EC01FB0124813581F2
:101B90000E946B0DCE01DF91CF910895FF920F93BC
:101BA0001F93CF93DF938FE195EC90934204809342
:101BB000410481E08093430401E414E023E634E02F
:101BC000F80180E0919189272E173F07D9F780937C
:101BD0006304D0E0C0E0F801F1908F01CE010E94D3
:101BE000B71DF81621F06F2DCE010E94BF1D219662
:101BF000C332D10581F7DF91CF911F910F91FF90F3
:101C0000089547E150E0BC0189E194E00E9402227E
:101C10001092300484E080936D040E949809109221
:101C2000680488E690E00E94410589E194E00C9404
:101C3000360A1F920F920FB60F9211242F933F93E3
:101C40008F939F93AF93BF9380917E0490917F0475
:101C5000A0918004B091810430917D0423E0230F92
:101C60002D3758F50196A11DB11D20937D04809359
:101C70007E0490937F04A0938004B09381048091AC
:101C8000820490918304A0918404B091850401960C
:101C9000A11DB11D8093820490938304A0938404BA
:101CA000B0938504BF91AF919F918F913F912F91F8
:101CB0000F900FBE0F901F90189526E8230F0296E5
:101CC000A11DB11DD2CF1F920F920FB60F921124FA
:101CD0002F933F934F935F936F937F938F939F9334
:101CE000AF93BF93EF93FF9386E894E00E94D204F2
:101CF000FF91EF91BF91AF919F918F917F916F91E4
:101D00005F914F913F912F910F900FBE0F901F90B9
:101D100018951F920F920FB60F9211242F938F9345
:101D20009F93EF93FF93E0919604F0919704808145
:101D3000E0919C04F0919D0482FD1BC090818091F4
:101D40009F048F5F8F732091A004821741F0E09170
:101D50009F04F0E0EA57FB4F958F80939F04FF911B
:101D6000EF919F918F912F910F900FBE0F901F9029
:101D700018958081F4CF1F920F920FB60F92112405
:101D80002F933F934F935F936F937F938F939F9383
:101D9000AF93BF93CF93DF93EF93FF93809118049A
:101DA000C0914705D0E087FF24C0109285001092B3
:101DB0008400809118048F5F809318048091180428
:101DC000082E000C990B8C179D0724F480911804A1
:101DD0008C30C4F180918400909185000496803409
:101DE0009C4908F47AC08091840090918500049603
:101DF00076C080911804082E000C990B8C179D0753
:101E0000C4F6E09118048E2FEE0F990BFC01EE0F33
:101E1000FF1FE80FF91FED5DFA4F808186FFC9CFE4
:101E2000E09118048E2FEE0F990BFC01EE0FFF1FAF
:101E3000E80FF91FED5DFA4F808160E08F730E941B
:101E40005303B7CF2091840030918500E0911804AE
:101E50008E2FEE0F990BFC01EE0FFF1FE80FF91FFD
:101E6000ED5DFA4F81819281820F931F90938900DB
:101E700080938800E09118048E2FEE0F990BFC01DF
:101E8000EE0FFF1FE80FF91FED5DFA4F808186FF0F
:101E900011C0E09118048E2FEE0F990BFC01EE0F8C
:101EA000FF1FE80FF91FED5DFA4F808161E08F732E
:101EB0000E945303FF91EF91DF91CF91BF91AF91BA
:101EC0009F918F917F916F915F914F913F912F9152
:101ED0000F900FBE0F901F90189580E49CE990938F
:101EE0008900809388008FEF80931804E3CFCF930D
:101EF000C0916D0481E0CC2399F083E890E00E94CA
:101F0000410587EE91E0C53040F4EC2FF0E0EE0F94
:101F1000FF1FEA5FFE4F808191810E94360A80E0B8
:101F2000CF910895CF93DF93682F70E090E080E029
:101F30004AE00E94EB09EC010E94CF098C0F9D1F23
:101F4000DF91CF910895CF93DF934AE00E94EB0990
:101F5000EC010E94CF098C0F9D1FDF91CF91089556
:101F6000CF92DF92EF92FF920F931F93CF93DF9365
:101F700000D000D000D0CDB7DEB78C0161EF71E0AA
:101F80000E949E0B882301F181E0809368040E94E7
:101F90003F0460933D0470933E0480933F0490930C
:101FA000400481E291E00E94D30926960FB6F8948E
:101FB000DEBF0FBECDBFDF91CF911F910F91FF907C
:101FC000EF90DF90CF90089564EF71E0C8010E9418
:101FD0009E0B882389F0109268041092640410927A
:101FE0006504109266041092670460E08CE00E9421
:101FF000530383E191E0D7CF68EF71E0CE01019602
:102000000E945A0DBE016F5F7F4FC8010E94830B73
:10201000F82ECE0101960E94110BFF20D9F145E068
:1020200050E0B801CE0101960E94C20DCE0101968A
:102030000E941B0B6B017C01CE0101960E94110BCB
:10204000D701C6010197A109B109803A9F40A105B6
:10205000B10558F08CEF90E00E94410560EA7FE006
:1020600080E090E00E94A30FA0CF0E943F046C0D7F
:102070007D1D8E1D9F1D6093640470936504809385
:102080006604909367048CEE90E00E944105C701BE
:10209000B601E8CF89ED90E00E944105C8010E9499
:1020A000DF0983CF3F924F925F926F927F928F9220
:1020B0009F92AF92BF92CF92DF92EF92FF920F93D7
:1020C0001F93CF93DF93CDB7DEB728970FB6F89461
:1020D000DEBF0FBECDBF382E8B0122E183E092E040
:1020E000321202C08EEF91E098878F8361EF71E02A
:1020F000C8010E949E0B882321F160E0832D0E947D
:10210000530388EC90E00E9441058F8198850E94DE
:10211000360A28960FB6F894DEBF0FBECDBFDF910A
:10212000CF911F910F91FF90EF90DF90CF90BF90D4
:10213000AF909F908F907F906F905F904F903F9067
:10214000089564EF71E0C8010E949E0B882389F016
:1021500060E0832D0E94530384EC90E00E944105CF
:102160008F8198850E942F0A8FEB90E00E94D309FF
:10217000D0CF68E072E0CE0101960E945A0DBE01F8
:102180006F5F7F4FC8010E94830BB82ECE0101966E
:102190000E94110BBB2009F45EC046E050E0B8017C
:1021A000CE0101960E94C20DCE0101960E941B0B2A
:1021B0004B015C01CE0101960E94110BD501C401B7
:1021C0000197A109B109883E9340A105B10558F0D6
:1021D0008EEA90E00E94410568EE73E080E090E0B6
:1021E0000E94A30F96CF61E0832D0E9453030E94AB
:1021F0001A046B017C01240135010E941A046C1938
:102200007D098E099F09683E734081059105A8F3F9
:1022100081E0481A51086108710898EEC90E93E0F0
:10222000D91EE11CF11C411451046104710429F709
:1022300060E0832D0E9453038AEA90E00E944105EA
:102240008F8198850E942F0A82EA90E00E944105C2
:10225000C501B401C5CF82E990E00E944105C801E3
:102260000E94DF0956CFCF93109289041092880400
:1022700088EE93E0A0E0B0E080938A0490938B0412
:10228000A0938C04B0938D0486EB91E09093870427
:102290008093860485EC90E090939304809392045D
:1022A00084EC90E0909395048093940480EC90E00B
:1022B000909397048093960481EC90E09093990416
:1022C0008093980482EC90E090939B0480939A040E
:1022D00086EC90E090939D0480939C0410929F0460
:1022E0001092A0041092A1041092A20488EC91E034
:1022F00090934C0580934B0581E08093520510929A
:102300005B0510925C0510925D0510925E051092BF
:102310005F0510926005109261051092620510929F
:10232000630510926405109265051092660510927F
:102330006705109268051092690510926A0510925F
:102340006B0510926C0510926D0510926E0580E081
:1023500090E0A0E8BFE380936F0590937005A09391
:102360007105B093720510924E0510924F051092B0
:1023700050051092510521E030E03093780520930C
:102380007705CFEFC0937A0510927305109274050C
:10239000109275051092760522E02093530523E0F4
:1023A0002093540524E02093550525E020935605FD
:1023B0001092790510927F05109280051092810588
:1023C0001092820510928305109284051092850563
:1023D0001092860510928705109288051092890543
:1023E00010928A0580938B0590938C05A0938D05A0
:1023F000B0938E0510924D05109257051092580516
:102400001092590510925A058BE495E00E948105BF
:1024100060E070E080E89FE30E94820A60E070E084
:1024200080E89FE30E94ED08809147058C30A0F47E
:1024300091E0980F909347058093480590E0FC0148
:10244000EE0FFF1FE80FF91FED5DFA4F88EB9BE0E1
:1024500092838183CF910895C0934805FBCFCF939A
:10246000DF93CDB7DEB768970FB6F894DEBF0FBE27
:10247000CDBF789484B5826084BD84B5816084BD0D
:1024800085B5826085BD85B5816085BD80916E0012
:10249000816080936E001092810080918100826043
:1024A0008093810080918100816080938100809180
:1024B00080008160809380008091B100846080936F
:1024C000B1008091B00081608093B00080917A006B
:1024D000846080937A0080917A00826080937A0091
:1024E00080917A00816080937A0080917A00806880
:1024F00080937A001092C100E0919604F0919704C5
:1025000082E08083E0919204F09193041082E09144
:102510009404F091950480E1808310929E04E091F0
:102520009A04F0919B0486E08083E0919804F091F6
:102530009904808180618083E0919804F0919904EE
:10254000808188608083E0919804F0919904808173
:1025500080688083E0919804F091990480818F7D58
:10256000808311E4E12E14E0F12E670110E000E019
:10257000C8010E94B71DD6018D936D010F5F1F4FDB
:1025800003321105A9F780914104909142048F31E3
:10259000954C99F480914304813079F490916304CF
:1025A00023E634E080E0F70141917F0184272E1774
:1025B0003F07C9F7981709F462C08FE195EC909333
:1025C00042048093410481E08093430488EC90E0CE
:1025D000909345048093440488E893E190934704E2
:1025E0008093460485E08093480485E58093490400
:1025F00080E590E090934B0480934A0428E730E014
:1026000030934D0420934C0428E020934E0420E2A4
:102610003EE43093500420934F0420E137E230939E
:1026200052042093510420E233E030935404209369
:10263000530420EA3FE0309356042093550448ECBD
:1026400040935704309359042093580430935B040B
:1026500020935A042CED20935C0490935E048093A5
:102660005D049093600480935F0484EF91E0909305
:10267000620480936104109263040E94CE0D61E0B5
:1026800084E00E94810361E087E00E94810361E0B1
:1026900088E00E94810361E089E00E94810361E09B
:1026A0008AE00E94810361E085E00E94810361E08D
:1026B00086E00E94810361E082E10E94810361E083
:1026C0008DE00E94810361E08CE00E94810360E064
:1026D00082E10E94530360E08DE00E94530360E0BA
:1026E0008CE00E94530360E08EE00E94810360E072
:1026F0008FE00E94810360E080E10E94810362E03C
:1027000083E10E94810360E070E088E494E40E9429
:10271000ED0860E070E88BEB94E40E94820A8091FF
:1027200048058C3008F051C061E08BE00E948103C5
:1027300080914805282F30E0F901EE0FFF1FE20FCE
:10274000F31FED5DFA4F9081907C9B609083109217
:10275000490510924A052CE0622F0E94671E829F55
:10276000B001112430E020E0AB01420F531FFA0109
:10277000EE0FFF1FE40FF51FED5DFA4F908196FD00
:1027800016C02F5F3F4F2C30310571F781110FC0FC
:102790001092800082E08093810010928500109258
:1027A0008400B19A80916F00826080936F00E09105
:1027B00048058E2F90E0FC01EE0FFF1FE80FF91F78
:1027C000ED5DFA4F8081806480838091480490E0C1
:1027D0000E9485020E9498090E943F046093690448
:1027E00070936A0480936B0490936C040E94CF09E9
:1027F0008BE491E00E9441058DE192E00E94360A4F
:1028000082E391E00E94D30980917504811109C08F
:1028100066EE71E08FE694E00E945A0D81E08093AD
:10282000750413E052E0D52E01E086E894E00E94A2
:10283000B204181619060CF077C586E894E00E94D9
:1028400090048A3019F08D3009F042C5409173042C
:10285000509174044115510541F31C8A1B8A1E8A4C
:102860001D8A188E1F8A60916F0470917004611523
:10287000710521F0CE0143960E94250DCE014396AD
:102880000E94260B8F89988D892B09F4F7C00E942E
:102890003F046093690470936A0480936B0490937F
:1028A0006C0410926E0463E272E0CE0143960E94C3
:1028B0009E0B882329F08FE394E00E94D309DEC0A9
:1028C00068E272E0CE0143960E949E0B882379F164
:1028D0008EEB92E00E94D30989EA92E00E94D3092C
:1028E0008AE892E00E94D30988E692E00E94D30928
:1028F00088E592E00E94D30989E292E00E94D30920
:1029000089EF91E00E94D3098AEE91E00E94D309F9
:1029100085EB91E00E94D30986E891E00E94D309FB
:1029200085E791E00E94D3098BE591E0C6CF6DE287
:1029300072E0CE0143960E949E0B882309F4ACC03E
:102940008EE00E942A03BB24B394892B09F0B12C9A
:102950008FE00E942A03CC24C394892B09F0C12C58
:1029600080E10E942A03EE24E394892B09F0E12CF4
:1029700083E10E942A03FF24F394019709F0F12CCC
:1029800089E493E00E944105E0916D0487EE91E0B7
:10299000E53038F4F0E0EE0FFF1FEA5FFE4F808174
:1029A00091810E942F0A82E493E00E944105609188
:1029B0003C0470E090E080E04AE00E94EB098AE38A
:1029C00093E00E94410580911904882309F461C0B5
:1029D00089E194E00E942F0A82E393E00E9441057E
:1029E0008B2D90E00E947C0A85E293E00E944105D5
:1029F0008C2D90E00E947C0A89E193E00E944105C1
:102A00008E2D90E00E947C0A8FE093E00E944105A9
:102A10008F2D90E00E947C0A88E093E00E9441059F
:102A200082E10E942A030E947C0A81E093E00E94D6
:102A300041058DE00E942A030E947C0A88EF92E003
:102A40000E9441058CE00E942A030E947C0A87EEC6
:102A500092E00E9441058091680490E00E947C0A07
:102A600089ED92E00E94410560915B0570915C05E3
:102A700080915D0590915E050E94700ACE0143969B
:102A80000E94110B66EE71E08FE694E00E94500DFB
:102A9000CCCE86EE91E09ECF64E372E0CE01439609
:102AA0000E949E0B882309F469C00E9498094090F7
:102AB000630550906405609065057090660520E0A0
:102AC00030E0A901C301B2010E94901C882379F172
:102AD000A3019201C301B2010E94F61C4B015C01EB
:102AE00060916B0570916C0580916D0590916E05FC
:102AF0009B01AC010E947A1E9B01AC01C501B4018F
:102B00000E94E61E0E94581F4B015C0120E030E04D
:102B1000A901C301B2010E948E1F181644F5C50118
:102B2000B4016F5F7F4F8F4F9F4F0E94690960E034
:102B300070E0CB010E94690960E070E088E494E4F1
:102B40000E94ED08109231041092680410926404FF
:102B500010926504109266041092670410926D043E
:102B600010923C041092190487E593E0A6CEC501AB
:102B7000B4016095709580959095D7CF69E372E028
:102B8000CE0143960E949E0B8823A1F18FE593E02E
:102B90000E94410530E1E32E31E0F32ED701139678
:102BA000ED91FC911497EF5BFB4F12968C91811184
:102BB0001EC08080912CB12CA12C80E20E945C056B
:102BC000F701808191810E942F0A8DE30E945C05AC
:102BD000C501B4010E94460AF9E0EF0EF11C22EB98
:102BE000E21621E0F206D1F60E94CF0947CF80809D
:102BF0009180E1CF60E472E0CE0101960E945A0D0F
:102C0000BE016F5F7F4FCE0143960E94830BF82E6B
:102C1000CE0101960E94110BFF2009F440C044E050
:102C200050E0BE016D5E7F4FCE0101960E94C20D45
:102C3000CE0101960E94260BCE0101960E94BB0B8D
:102C4000009749F48EE294E00E944105CE0101967E
:102C50000E94DF091EC0DC011396ED91FC911497D0
:102C6000EF5BFB4F12968C91811116C08080912CE6
:102C7000B12CA12C8BE394E00E944105CE0101967A
:102C80000E9478048DE30E945C05C501B4010E9496
:102C9000700ACE0101963EC080809180E9CF65E444
:102CA00072E0CE0101960E945A0DBE016F5F7F4F08
:102CB000CE0143960E94830BF82ECE0101960E940E
:102CC000110BFF2009F499C044E050E0BE016D5E95
:102CD0007F4FCE010D960E94C20DCE010D960E942F
:102CE000260B89899A89892B79F0ED84FE8460E22C
:102CF00070E0C7010E94D921009731F0FC01EE1964
:102D0000FF097F01F7FF09C082E194E00E94D30927
:102D1000CE010D960E94110BB1CE9F0150E040E014
:102D2000BE01635F7F4FCE0107960E946B0DA70126
:102D30004F5F5F4FBE01635F7F4FCE0101960E94E0
:102D4000C20DCE0101960E941B0B4B015C01CE010E
:102D500001960E94110BCE0107960E94BB0BFC014D
:102D6000892B99F185819681B0E0A0E088169906BB
:102D7000AA06BB06ECF187819085B0E0A0E088153B
:102D80009905AA05BB05A4F1A381B481AF5BBB4F34
:102D90008281811117C08C920E94CE0D8EE094E04A
:102DA0000E944105CE0107960E9478048DE30E949F
:102DB0005C05C501B4010E94700ACE0107960E940D
:102DC000110BA6CF8D929C92E7CF2FE0E22E22E04E
:102DD000F22E89E094E00E944105C7010E942F0A6B
:102DE0008AE30E945C05CE0107960E94DF09E5CFC9
:102DF00097E1E92E92E0F92EECCF6AE373E0CE0181
:102E000043960E949E0B882399F080916D048B7FDE
:102E100019F083E793E051CD1092190400936D04EB
:102E20001092680485E60E94460C89E693E045CD41
:102E30006AE472E0CE0143960E949E0B8823E9F07B
:102E400080916D048B7F19F088E893E036CD109265
:102E50001904D0926D04009368040E943F046093AB
:102E60003D0470933E0480933F049093400481E0BE
:102E70000E94460C8CE793E020CD60E572E0CE0125
:102E800001960E945A0DBE016F5F7F4FCE0143969F
:102E90000E94830BF82ECE0101960E94110BFF2099
:102EA00081F145E050E0BE016D5E7F4FCE0101969D
:102EB0000E94C20DCE0101960E941B0BF62E80913E
:102EC0006D048B7F29F08DEA93E00E94D309E1CE57
:102ED0008FEF8F0D893040F08AE993E00E94410521
:102EE00089E00E94920FD5CE1092190410936D04C0
:102EF0008F2D0E94460C81E993E00E9441058F2DA1
:102F0000F0CF66E572E0CE0101960E945A0DBE0137
:102F10006F5F7F4FCE0143960E94830BF82ECE0148
:102F200001960E94110BFF2069F10E94770F882300
:102F300009F4A4CD48E050E0BE016D5E7F4FCE01A4
:102F400001960E94C20DCE0101960E941B0B4B01FF
:102F50005C01CE0101960E94110B60E084E00E94AA
:102F6000530360E070E088E494E40E94ED08C5013A
:102F7000B4010E9469098DEF93E00E944105C501EB
:102F8000B4017ACD6FE572E0CE0101960E945A0D30
:102F9000BE016F5F7F4FCE0143960E94830BF82ED8
:102FA000CE0101960E94110BFF20C9F00E94770FFD
:102FB000882309F463CD46E050E0BE016D5E7F4F8B
:102FC000CE0101960E94C20DCE0101960E94260BF1
:102FD00089819A810E94160C83EF93E035CE66E6D4
:102FE00072E0CE0101960E945A0DBE016F5F7F4FC5
:102FF000CE0143960E94830BF82ECE0101960E94CB
:10300000110BFF20C9F00E94770F882309F436CDF9
:1030100047E050E0BE016D5E7F4FCE0101960E94F9
:10302000C20DCE0101960E94260B89819A810E94D1
:10303000E60B88EE93E008CE6EE672E0CE010196D4
:103040000E945A0DBE016F5F7F4FCE0143960E94D2
:10305000830BF82ECE0101960E94110BFF2009F47C
:1030600051C00E94770F882309F408CD46E050E054
:10307000BE016D5E7F4FCE0101960E94C20DCE0152
:1030800001960E941B0BF12CE12C97FD19C046E024
:1030900050E0BE016D5E7F4FCE0107960E94C20DCB
:1030A000CE0107960E941B0B653B710581059105BA
:1030B000B4F084EBE82EF12CCE0107960E94110BA0
:1030C000CE0101960E94110BC7010E9485028EED70
:1030D00093E00E944105C7010E947C0A85CD46E02D
:1030E00050E0BE016D5E7F4FCE010D960E94C20D75
:1030F000CE010D960E941B0B7B01CE010D960E9406
:10310000110BDACF65E772E0CE0101960E945A0DED
:10311000BE016F5F7F4FCE0143960E94830BF82E56
:10312000CE0101960E94110BFF20A9F00E94770F9B
:10313000882309F4A3CC4BE050E0BE016D5E7F4FC5
:10314000CE0101960E94C20DBE016F5F7F4F82E1EA
:103150000E9452109ECD61E872E0CE0101960E945D
:103160005A0DBE016F5F7F4FCE0143960E94830BC5
:10317000F82ECE0101960E94110BFF2099F00E94BB
:10318000770F882309F47ACC4BE050E0BE016D5EE6
:103190007F4FCE0101960E94C20DBE016F5F7F4F2F
:1031A0008DE0D6CF6DE872E0CE0101960E945A0DF7
:1031B000BE016F5F7F4FCE0143960E94830BF82EB6
:1031C000CE0101960E94110BFF2001F147E050E073
:1031D000BE016D5E7F4FCE0101960E94C20DCE01F1
:1031E00001960E94260B64EF71E0CE0101960E94C9
:1031F0009E0B882329F0CE0101960E94B00F49CD85
:103200000E94770F882309F444CDF5CF65E972E079
:10321000CE0143960E949E0B882389F00E94770F6F
:10322000882309F42BCC10923104109219041093C6
:103230006D0484E00E94460C85ED93E03ECB6BE983
:1032400072E0CE0101960E945A0DBE016F5F7F4F62
:10325000CE0143960E94830BF82ECE0101960E9468
:10326000110BFF2061F10E94770F882309F406CC2F
:1032700046E050E0BE016D5E7F4FCE0101960E9498
:10328000C20DCE0101960E941B0BF62ECE010196B7
:103290000E94110BF11002C0F0904E04F092310424
:1032A0001092190410936D0484E00E94460C8BEC7C
:1032B00093E00E9441058F2D0E94920FDFCB86EB99
:1032C00093E00E944105CE0143960E94DF09D6CBD0
:1032D000E0907304F090740489831A82FFEFEF1A70
:1032E000FF0AB7018FE694E00E94FD0C882399F055
:1032F00020916F0430917004809173049091740454
:10330000BE016F5F7F4F820F931F0E94ED21F092ED
:103310007404E09273048091730490917404813476
:10332000910508F482CAAECB80914E0590914F056D
:10333000A0915005B0915105892B8A2B8B2B09F454
:103340004FC00E941A046B017C018091730590911B
:103350007405A0917505B0917605B701A601481BCB
:10336000590B6A0B7B0B80914E0590914F05A091F4
:103370005005B0915105481759076A077B0780F13E
:1033800080915B0590915C05A0915D05B0915E0513
:1033900020914D05222309F49EC00196A11DB11D67
:1033A00080935B0590935C05A0935D05B0935E05EB
:1033B00040915B0550915C0560915D0570915E05E3
:1033C0008BE495E00E945407C0927305D092740577
:1033D000E0927505F09276058BE495E00E949407E3
:1033E00080916D048B7FF1F00E943F046B017C01A2
:1033F00080913C04873009F46FC108F08EC084309E
:1034000008F06DC0823008F0CCC0813009F4B0C043
:103410000E943F046093690470936A0480936B0474
:1034200090936C040E943F04009164041091650421
:1034300020916604309167040115110521053105BD
:1034400009F4F5C1601B710B820B930B97FDEAC168
:1034500060E08CE00E9453031092640410926504B3
:10346000109266041092670480916E04811126C048
:1034700080916D04811122C00E943F040091690473
:1034800010916A0420916B0430916C04601B710BE5
:10349000820B930B693873418105910578F0012BFC
:1034A000022B032B59F00E9498091092680484E4BF
:1034B00094E00E94D30981E080936E0480E090E064
:1034C000892B09F4A1C90E94BE04882309F49CC970
:1034D0000E94000099C90197A109B10961CF853007
:1034E00009F4CFC008F472C0809138049091390477
:1034F000A0913A04B0913B04C81AD90AEA0AFB0A1F
:103500008091530490915404B0E0A0E0C816D9060D
:10351000EA06FB0608F47CCFB9C0853609F429C158
:10352000F8F4883009F401C1893009F071CF809135
:10353000380490913904A0913A04B0913B04C81A20
:10354000D90AEA0AFB0A8091610490916204B0E012
:10355000A0E0C816D906EA06FB0608F459CF1EC03B
:103560008736F9F008F4E1C0883609F4BDCF50CFB2
:1035700040915F0550916005609161057091620511
:1035800080915B0590915C05A0915D05B0915E0511
:10359000481759076A077B0709F03ACF0E94CC0CFD
:1035A00037CF8091380490913904A0913A04B091BA
:1035B0003B04C81AD90AEA0AFB0A04EFC01601E064
:1035C000D006E104F10408F423CFE8CF0E943F04C1
:1035D0006B017C01409133045091340460913504B7
:1035E000709136048091370446015701841A950A78
:1035F000A60AB70AB501A4018823F9F080914A040C
:1036000090914B04B0E0A0E0481759076A077B0788
:1036100008F4FECE60E082E10E94530360E08DE09A
:103620000E94530310923704C0923304D0923404A2
:10363000E0923504F0923604EBCE80914C049091E8
:103640004D04B0E0A0E0481759076A077B0708F46B
:10365000DFCE809132048F5F8093320490913104E9
:10366000891718F01092310499CF61E082E10E942D
:10367000530361E08DE00E94530381E0809337049F
:10368000D3CF8EE00E942A03892B29F484E392E0B1
:103690000E94160C83CF8091380490913904A09138
:1036A0003A04B0913B04C81AD90AEA0AFB0A80918D
:1036B000550490915604B0E0A0E08C159D05AE0530
:1036C000BF0508F0A5CE84E392E00E94160C82EAC2
:1036D00092E00E94010E9CCE8FE00E942A03892B6B
:1036E00029F484E392E00E94E60B58CF80913804DD
:1036F00090913904A0913A04B0913B04C81AD90AB8
:10370000EA0AFB0A8091580490915904B0E0A0E0C5
:103710008C159D05AE05BF0508F07ACE84E392E0D6
:103720000E94E60B84EB92E0D4CF80E10E942A0352
:10373000892BB9F28091380490913904A0913A0410
:10374000B0913B04C81AD90AEA0AFB0A80915A04CC
:1037500090915B04B0E0A0E08C159D05AE05BF051F
:1037600008F056CE84E392E00E94E60B87EC92E0EC
:10377000B0CF83E10E942A030197A1F510925B0567
:1037800010925C0510925D0510925E0510925F0527
:1037900010926005109261051092620510927F05EB
:1037A00010928005109281051092820510924E05AC
:1037B00010924F051092500510925105109263051A
:1037C00010926405109265051092660560E070E045
:1037D000CB010E94690960E070E088E494E40E94F3
:1037E000ED08DCCE8091380490913904A0913A0420
:1037F000B0913B04C81AD90AEA0AFB0A8091460430
:1038000090914704B0E0A0E08C159D05AE05BF0582
:1038100008F0FECD60E070E0CB010E9469098AEDFE
:1038200092E057CF61E08CE00E9453031DCE2091BF
:103830006804211102C060E0F6CFC0905104D0901E
:103840005204F12CE12C20914F0430915004460198
:103850005701820E931EA11CB11CA50194012115D4
:1038600031054105510539F380903D0490903E04A7
:10387000A0903F04B0904004681979098A099B0917
:103880000E94361E21E06C157D058E059F0508F40B
:1038900020E0622FC8CF1F93FC0199278827BC0125
:1038A000E89411911032E9F3193010F01E30C8F38A
:1038B0001B3251F01D3249F4689406C00E94721CFC
:1038C000610F711D811D911D119110531A30B0F3BC
:1038D0003EF490958095709561957F4F8F4F9F4FE7
:1038E0001F910895592F482F372F262F660F771FC6
:1038F000881F991F660F771F881F991F620F731FFC
:10390000841F951F660F771F881F991F08959111B7
:103910000C94631D803219F089508550C8F70895C2
:103920000E94D21C08F481E00895E89409C097FB36
:103930003EF490958095709561957F4F8F4F9F4F86
:103940009923A9F0F92F96E9BB279395F6958795CA
:1039500077956795B795F111F8CFFAF4BB0F11F48D
:1039600060FF1BC06F5F7F4F8F4F9F4F16C0882334
:1039700011F096E911C0772321F09EE8872F762F6A
:1039800005C0662371F096E8862F70E060E02AF0AB
:103990009A95660F771F881FDAF7880F9695879597
:1039A00097F90895990F0008550FAA0BE0E8FEEF6C
:1039B00016161706E807F907C0F012161306E407F3
:1039C000F50798F0621B730B840B950B39F40A26EC
:1039D00061F0232B242B252B21F408950A2609F4CA
:1039E000A140A6958FEF811D811D08950E94091D9C
:1039F0000C947D1D0E946F1D38F00E94761D20F0F2
:103A0000952311F00C94661D0C946C1D11240C94DC
:103A1000B11D0E948E1D70F3959FC1F3950F50E06C
:103A2000551F629FF001729FBB27F00DB11D639F70
:103A3000AA27F00DB11DAA1F649F6627B00DA11D16
:103A4000661F829F2227B00DA11D621F739FB00DBC
:103A5000A11D621F839FA00D611D221F749F33272C
:103A6000A00D611D231F849F600D211D822F762FC5
:103A70006A2F11249F5750409AF0F1F088234AF0A2
:103A8000EE0FFF1FBB1F661F771F881F915050400E
:103A9000A9F79E3F510580F00C94661D0C94B11D52
:103AA0005F3FE4F3983ED4F3869577956795B79595
:103AB000F795E7959F5FC1F7FE2B880F911D9695AF
:103AC000879597F9089599278827089597F99F670B
:103AD00080E870E060E008959FEF80EC0895002496
:103AE0000A941616170618060906089500240A9463
:103AF00012161306140605060895092E0394000CE9
:103B000011F4882352F0BB0F40F4BF2B11F460FF77
:103B100004C06F5F7F4F8F4F9F4F089557FD9058A0
:103B2000440F551F59F05F3F71F04795880F97FB81
:103B3000991F61F09F3F79F087950895121613063B
:103B40001406551FF2CF4695F1DF08C0161617066A
:103B50001806991FF1CF869571056105089408959F
:103B6000E894BB2766277727CB0197F90895F99941
:103B7000FECF92BD81BDF89A992780B50895262F72
:103B8000F999FECF1FBA92BD81BD20BD0FB6F89442
:103B9000FA9AF99A0FBE01960895052E97FB1EF426
:103BA00000940E94E41D57FD07D00E94361E07FCBA
:103BB00003D04EF40C94E41D50954095309521951A
:103BC0003F4F4F4F5F4F0895909580957095619549
:103BD0007F4F8F4F9F4F08950E94581EA59F900DB5
:103BE000B49F900DA49F800D911D11240895B7FFDF
:103BF0000C94EC1D0E94EC1D821B930B08952F92D8
:103C00003F924F925F926F927F928F929F92AF926C
:103C1000BF92CF92DF92EF92FF920F931F93CF93B9
:103C2000DF93CDB7DEB7CA1BDB0B0FB6F894DEBF50
:103C30000FBECDBF09942A88398848885F846E8476
:103C40007D848C849B84AA84B984C884DF80EE80C0
:103C5000FD800C811B81AA81B981CE0FD11D0FB6C9
:103C6000F894DEBF0FBECDBFED010895A1E21A2E7C
:103C7000AA1BBB1BFD010DC0AA1FBB1FEE1FFF1F10
:103C8000A217B307E407F50720F0A21BB30BE40B60
:103C9000F50B661F771F881F991F1A9469F76095A7
:103CA0007095809590959B01AC01BD01CF01089561
:103CB000A29FB001B39FC001A39F700D811D11246D
:103CC000911DB29F700D811D1124911D0895991BA6
:103CD00079E004C0991F961708F0961B881F7A9503
:103CE000C9F780950895EE0FFF1F0590F491E02D20
:103CF00009945058BB27AA270E94911E0C947D1D41
:103D00000E946F1D38F00E94761D20F039F49F3F0D
:103D100019F426F40C946C1D0EF4E095E7FB0C945A
:103D2000661DE92F0E948E1D58F3BA1762077307AC
:103D30008407950720F079F4A6F50C94B01D0EF4D5
:103D4000E0950B2EBA2FA02D0B01B90190010C01AB
:103D5000CA01A0011124FF27591B99F0593F50F4C3
:103D6000503E68F11A16F040A22F232F342F44271B
:103D7000585FF3CF469537952795A795F040539513
:103D8000C9F77EF41F16BA0B620B730B840BBAF0E3
:103D90009150A1F0FF0FBB1F661F771F881FC2F74E
:103DA0000EC0BA0F621F731F841F48F48795779562
:103DB0006795B795F7959E3F08F0B0CF9395880F1C
:103DC00008F09927EE0F9795879508950E94FA1E9F
:103DD0000C947D1D0E94761D58F00E946F1D40F0CE
:103DE00029F45F3F29F00C94661D51110C94B11D0C
:103DF0000C946C1D0E948E1D68F39923B1F355231A
:103E000091F3951B550BBB27AA27621773078407ED
:103E100038F09F5F5F4F220F331F441FAA1FA9F383
:103E200035D00E2E3AF0E0E832D091505040E69571
:103E3000001CCAF72BD0FE2F29D0660F771F881FD2
:103E4000BB1F261737074807AB07B0E809F0BB0BC5
:103E5000802DBF01FF2793585F4F3AF09E3F5105D9
:103E600078F00C94661D0C94B11D5F3FE4F3983E0E
:103E7000D4F3869577956795B795F7959F5FC9F7C2
:103E8000880F911D9695879597F90895E1E0660F43
:103E9000771F881FBB1F621773078407BA0720F0BC
:103EA000621B730B840BBA0BEE1F88F7E095089525
:103EB0000E945F1F6894B1110C94B11D08950E9477
:103EC000961D88F09F5798F0B92F9927B751B0F0F9
:103ED000E1F0660F771F881F991F1AF0BA95C9F78E
:103EE00014C0B13091F00E94B01DB1E008950C945F
:103EF000B01D672F782F8827B85F39F0B93FCCF312
:103F0000869577956795B395D9F73EF4909580950A
:103F1000709561957F4F8F4F9F4F08950E94D21CDF
:103F200008F48FEF089519F416F40C946C1D0C949A
:103F3000D91F0E94961DB8F39923C9F3B6F39F5772
:103F4000550B87FF0E94E71F0024A0E640EA90017E
:103F500080585695979528F4805C660F771F881FC8
:103F600020F026173707480730F4621B730B840BC9
:103F7000202931294A2BA69517940794202531250D
:103F80004A2758F7660F771F881F20F02617370734
:103F9000480730F4620B730B840B200D311D411D5B
:103FA000A09581F7B901842F9158880F9695879530
:103FB00008959F3F31F0915020F48795779567954C
:103FC000B795880F911D9695879597F9089591500B
:103FD0005040660F771F881FD2F708950F931F93E5
:103FE000CF93DF938230910510F482E090E0E0916E
:103FF0009105F091920530E020E0B0E0A0E030972C
:1040000099F42115310509F44AC0281B390B2430D5
:104010003105D8F58A819B816115710589F1FB0114
:1040200093838283FE0111C04081518102811381FB
:1040300048175907E0F04817590799F4109761F0AD
:1040400012960C93129713961C933296CF01DF9120
:10405000CF911F910F9108950093910510939205B0
:10406000F4CF2115310551F04217530738F0A9015B
:10407000DB019A01BD01DF01F801C1CFEF01F9CFEA
:104080009093920580939105CDCFFE01E20FF31F2F
:10409000819391932250310939832883D7CF20917E
:1040A0008F0530919005232B41F42091020130912E
:1040B00003013093900520938F05209100013091EA
:1040C00001012115310541F42DB73EB7409104019E
:1040D00050910501241B350BE0918F05F09190055F
:1040E000E217F307A0F42E1B3F0B2817390778F0CF
:1040F000AC014E5F5F4F2417350748F04E0F5F1F2E
:104100005093900540938F05819391939FCFF0E05A
:10411000E0E09CCFCF93DF930097E9F0FC0132976A
:1041200013821282A0919105B0919205ED0130E0C9
:1041300020E01097A1F420813181820F931F2091FC
:104140008F05309190052817390709F061C0F09369
:104150009005E0938F05DF91CF910895EA01CE1786
:10416000DF07E8F54A815B819E0141155105B1F7F2
:10417000E901FB83EA8349915991C40FD51FEC17DC
:10418000FD0761F4808191810296840F951FE901FA
:1041900099838883828193819B838A83F0E0E0E026
:1041A00012968D919C9113970097B9F52D913C91A2
:1041B0001197CD010296820F931F20918F053091A8
:1041C00090052817390739F6309751F51092920566
:1041D00010929105B0939005A0938F05BCCFD38327
:1041E000C28340815181840F951FC817D90761F49C
:1041F0004E5F5F4F88819981480F591F51834083DB
:104200008A819B81938382832115310509F0B0CF88
:10421000F0939205E09391059ECFFD01DC01C0CFA4
:1042200013821282D7CFB0E0A0E0E9E1F1E20C9472
:10423000011E8C01009751F4CB010E94EE1F8C01EE
:10424000C801CDB7DEB7E0E10C941D1EFC01E60FFE
:10425000F71F9C0122503109E217F30708F49DC0B3
:10426000D901CD91DC911197C617D70798F0C530C9
:10427000D10530F3CE0104978617970708F3C61BC4
:10428000D70B2297C193D1936D937C93CF010E945A
:104290008A20D6CF5B01AC1ABD0A4C018C0E9D1E44
:1042A000A0919105B0919205512C412CF12CE12C5B
:1042B000109731F580918F0590919005881599059B
:1042C00009F05CC04616570608F058C080910001FE
:1042D00090910101009741F48DB79EB74091040180
:1042E00050910501841B950BE817F90708F055C09C
:1042F000F0939005E0938F05F90171836083A0CF5F
:104300008D919C91119712966C90129713967C90B8
:104310001397A815B90559F56C0142E0C40ED11CDC
:10432000CA14DB0420F1AC014A195B09DA011296C8
:10433000159780F06282738251834083D9016D9317
:104340007C93E114F10471F0D7011396FC93EE9382
:10435000129776CF22968C0F9D1FF901918380834F
:10436000F301EFCFF0939205E093910569CF4816E2
:10437000590608F42C017D01D3019ACFCB010E948C
:10438000EE1F7C01009749F0AE01B8010E94D021D8
:10439000C8010E948A20870153CF10E000E050CF6F
:1043A000FB01DC0102C001900D9241505040D8F752
:1043B0000895FC018191861721F08823D9F7992768
:1043C00008953197CF010895FB01DC018D91019093
:1043D00080190110D9F3990B0895FB01DC010190BC
:1043E0000D920020E1F70895FB01DC01415050409F
:1043F00030F08D910190801919F40020B9F7881BD5
:10440000990B0895FB01DC014150504048F00190A8
:104410000D920020C9F701C01D9241505040E0F7B5
:064420000895F894FFCF9F
:10442600000093058000EC02F102F8020103060386
:104436000C03010300010010271F0301050064009F
:1044460060EA34030007000000B4003F03000800E0
:104456000000B4004A030109000100E80356030105
:104466000B000100D0076303000D0001003200704D
:1044760003010E00640060EA7D0301100064006021
:10448600EA8B03011200320010279803011400641E
:10449600001027AD030016003C00FF00B70301170C
:1044A6000064001027CD0301190064001027E30300
:1044B600001B003C00FF00EE03011C000100E803A6
:1044C600FC03011E000100E8030A040120000000AD
:1044D600102700000000F4044B0481046105B204B7
:1044E6009004A40400000000B50581059709190B86
:1044F6009407160754070007CE06AD067906580638
:104506000206D3050D0A003F0066776400726576E1
:10451600006F6E006F666600746573742000736FBB
:104526006C3100736F6C320070756C7365200075AA
:104536006E6B6E6F776E0072616E676500302E333C
:104546002E310070696E670068656C700073746167
:104556007475730073746F7000706172616D7300AF
:104566006765742000736574200073747566660051
:1045760073746570200073746570706572200070C6
:1045860072657373200070757368657220007365B9
:1045960072766F2000736F6C656E6F6964203120D0
:1045A60000736F6C656E6F696420322000686F70EF
:1045B60070657220006B6E6F636B006B6E6F636B62
:1045C600200070726573735F6677645F74696D65EA
:1045D6006F7574007075736865725F6677645F7473
:1045E600696D656F7574007075736865725F726565
:1045F600765F74696D656F757400686F6D655F646D
:1046060072756D5F74696D656F75740069646C654C
:1046160000686F6D696E67007374756666696E67AC
:104626000073746570006572726F72006472756DE6
:104636005F73746570735F7065725F706F73006827
:104646006F6D655F6472756D5F74696D656F7574A6
:104656005F6D7300736572766F5F686F6D6500736B
:104666006572766F5F6C6F6164006B6E6F636B5F14
:104676006F6E5F6D73006B6E6F636B5F6F66665F09
:104686006D73006B6E6F636B5F6379636C6573004C
:10469600686F707065725F6F6E5F6D7300686F70C4
:1046A6007065725F6F66665F6D73007072657373B7
:1046B6005F7265765F6D730070726573735F6677A0
:1046C600645F74696D656F75745F6D730070726594
:1046D60073735F70776D007075736865725F667768
:1046E600645F74696D656F75745F6D730070757363
:1046F6006865725F7265765F74696D656F75745F04
:104706006D73007075736865725F70776D00736F97
:104716006C315F6477656C6C5F6D7300736F6C32C0
:104726005F6477656C6C5F6D7300737465705F644E
:08473600656C61795F6D730091
:00000001FF
