:100000000C947E020C94781D0C949F1D0C94A602F7
:100010000C94A6020C94A6020C94A6020C941B1D30
:100020000C94A6020C94A6020C94A6020C94F5164D
:100030000C94A6020C94A6020C94A6020C94A602A0
:100040000C943B200C94A6020C94A41A0C94D61A7F
:100050000C94A6020C94A6020C94A6020C94A60280
:100060000C94A6020C94A6027761726E20776174DC
:100070006368646F675F74696D656F757400747928
:100080007065202768656C702720666F7220636F2B
:100090006D6D616E6473007265616479206669726A
:1000A0006D776172653D0065727220756E6B6E6F63
:1000B000776E5F636F6D6D616E643A006F6B206B7E
:1000C0006E6F636B20006F6B20637574006F6B2025
:1000D0006B6E6F636B006F6B20736572766F2000C1
:1000E0006F6B2070757368657220006F6B20707283
:1000F00065737320006F6B20737465707065722078
:100100000065727220006F6B20006572722075733B
:100110006167653A736574203C6B65793E203C7677
:10012000616C75653E0065727220756E6B6E6F77DF
:100130006E3A006F6B2000706F6E67006572722000
:10014000686F707065725F616374696F6E3A006F9B
:100150006B20686F70706572207465737420006521
:10016000727220686F707065725F746573745F6D12
:10017000733A312E2E006F6B20686F707065723D80
:100180006F6666006F6B20686F707065723D637993
:10019000636C69630065727220736F6C5F61637476
:1001A000696F6E3A002070756C736520006F6B206C
:1001B000006572722070756C73655F6D733A312ED5
:1001C0002E00206F6666006F6B2000657272206FD4
:1001D0006E5F64697361626C656420006572722091
:1001E00062757379206D6F64653D003D3D3D3D3D19
:1001F0003D3D3D3D3D3D3D3D3D3D3D3D3D3D3D3D2F
:100200003D3D3D3D00637574202020285363686E9A
:100210006569647A796B6C75733A204B6C696E67AB
:10022000652072756E7465722F7665727765696C7C
:10023000656E2F686F636829006B6E6F636B205B60
:100240003C6379636C65733E5D00686F70706572C6
:10025000206F6E7C6F66667C74657374203C6D7372
:100260003E202020286F6E203D203130732F323009
:1002700073204379636C652900736F6C656E6F69D9
:100280006420317C32206F66667C70756C736520EB
:100290003C6D733E2020202844617565722D4F4EC1
:1002A000206465616B746976696572742900736591
:1002B00072766F203C302E2E3138303E00707573D0
:1002C000686572206677647C7265767C73746F7083
:1002D000202850574D2061757320706172616D73D5
:1002E0002E7075736865725F70776D290070726526
:1002F0007373206677647C7265767C73746F70208C
:10030000202850574D2061757320706172616D73A4
:100310002E70726573735F70776D290073746570EA
:10032000706572203C73746570733E00686F6D6514
:10033000207C207374756666207C20737465702041
:100340003C312E2E31323E207C2073746F70007051
:100350006172616D73207C20676574203C6B3E2068
:100360007C20736574203C6B3E203C763E007069B7
:100370006E67207C20737461747573207C206865BF
:100380006C70003D3D3D2053746F70666D6173630A
:1003900068696E652076302E35203D3D3D00207326
:1003A0007465707065725F706F733D002063757463
:1003B0003D0020686F707065725F656E61626C658C
:1003C000643D0020686F707065723D0020736F6C33
:1003D000323D0020736F6C313D00206D6167617AA2
:1003E000696E3D0020707573685F726561723D00D3
:1003F00020707573685F66726F6E743D0020707256
:100400006573733D00206572726F723D00207374D6
:1004100065703D00737461747573207374617465E5
:100420003D006F6B2073746F70006F6B2073746589
:10043000703D0065727220737465705F72616E67E3
:10044000653A312E2E006572722062757379006FE5
:100450006B207374756666696E67006572722062E0
:10046000757379006F6B20686F6D696E67006572D8
:10047000722062757379006F6B20686F6D655F64C1
:100480006F6E65006572722073657175656E636568
:100490003A006F6B20706172616D730002000000A2
:1004A0000800020100000304070000000000000033
:1004B00000010204081020408001020408102001FD
:1004C00002040810200404040404040404020202C8
:1004D00002020203030303030300000000230026BB
:1004E00000290000000000250028002B000000006B
:1004F00000240027002A00008406061B11241FBECA
:10050000CFEFD8E0DEBFCDBF14E0A0E0B1E0ECE378
:10051000F0E502C005900D92AE38B107D9F726E09C
:10052000AEE8B4E001C01D92AE31B207E1F712E0CF
:10053000CEE7D2E004C02197FE010E94AB22CC3767
:10054000D107C9F70E942A200C941C280C940000A3
:1005500061E084E00E94F72160E087E00E94F721DB
:1005600060E088E00E94F72160E089E00E94F721C6
:1005700060E08AE00E94F72170E060E085E00E9480
:10058000352170E060E086E00E94352160E082E184
:100590000E94F72160E08DE00E94F72160E08CE08E
:1005A0000C94F72186E994E00C94071E47E150E093
:1005B000BC0181EB94E00E94A8271092C80484E05B
:1005C0008093CE040E94A8021092A40464E874E010
:1005D0008DE695E00E946F1B61EB74E08DE695E07F
:1005E0000C94D81B8091CE048823C9F06CED71E087
:1005F0008DE695E00E946F1BE091CE046BE071E008
:10060000E53038F4F0E0EE0FFF1FEC5BFD4F60814A
:1006100071818DE695E00E94D81B80E0089581E00D
:100620000895CF93DF93EC016DE071E00E948A277B
:10063000892B81F461E087E00E94F72160E088E087
:100640000E94F7216091380570E085E0DF91CF913D
:100650000C94352161E171E0CE010E948A2760E0AF
:10066000892B29F487E00E94F72161E0E8CF87E039
:100670000E94F72160E088E00E94F72170E060E0CE
:10068000E4CFCF93DF93EC016DE071E00E948A2705
:10069000892B81F461E089E00E94F72160E08AE023
:1006A0000E94F72160913D0570E086E0DF91CF91D7
:1006B0000C94352161E171E0CE010E948A2760E04F
:1006C000892B29F489E00E94F72161E0E8CF89E0D5
:1006D0000E94F72160E08AE00E94F72170E060E06C
:1006E000E4CFCF93C82F8093CD040E9485206093E0
:1006F000C9047093CA048093CB049093CC04C8308F
:1007000009F483C0C0F4C43009F45FC048F4C230B7
:1007100009F450C008F056C0C130A9F1CF91089536
:10072000C63061F18DE091E0C73050F18DE091E08D
:10073000CF910C944103C53609F46AC0C0F4CA30A5
:1007400009F463C098F3CB3049F71092A9040E94D2
:1007500085206093A5047093A6048093A7049093CA
:10076000A8046091280570E084ED94E028C0C736A5
:1007700009F45FC008F449C0C83681F681E191E010
:10078000CF910C94110360E084E00E94F72140E0D7
:1007900050E068E474E48AED94E00E94931540917F
:1007A00021055091220570E060E08AED94E0CF9140
:1007B0000C94D3146091260570E087ED94E0CF91FE
:1007C0000C94871860912505F7CF1092B00481E052
:1007D0008093AF040E9485206093AB047093AC04B7
:1007E0008093AD049093AE048091AA04811102C05D
:1007F00080912F058093AA0461E082E10E94F72195
:1008000061E08DE0CF910C94F72181E191E090CFF0
:1008100060E084E00E94F72140E050E066E973E484
:100820008AED94E00E94931540E253E060E070E0AE
:10083000BCCF6091250570E087ED94E00E94871899
:100840006091270590CF8091CE04833029F41092D7
:10085000CE041092CD040895823041F48091CD04ED
:100860008F5F8D3008F081E00C9471038130E9F4E2
:100870008091CD04863659F018F4853631F008950C
:10088000873639F0883639F0089586E6EDCF87E669
:10089000EBCF88E6E9CF1092CE041092CD0467E743
:1008A00074E08DE695E00C94B41B0895CF93DF932C
:1008B000EC01FB01248135810E94771FCE01DF917D
:1008C000CF9108958F929F92AF92BF92CF92DF9275
:1008D000FF920F931F93CF93DF9300D000D000D0EF
:1008E000CDB7DEB7F82E8B0122E19AE1C92E91E057
:1008F000D92E821304C085E1C82E81E0D82E6FE185
:1009000071E0C8010E94061F882309F160E08F2D65
:100910000E94F7216BEC71E08DE695E00E946F1B61
:10092000B6018DE695E00E94D81B26960FB6F89486
:10093000DEBF0FBECDBFDF91CF911F910F91FF9012
:10094000DF90CF90BF90AF909F908F90089562E21C
:1009500071E0C8010E94061F8823B1F060E08F2D6E
:100960000E94F72167EC71E08DE695E00E946F1B15
:10097000B6018DE695E00E94A11B62EC71E08DE668
:1009800095E00E94B41BD1CF66E271E0CE010196E2
:100990000E94791EBE016F5F7F4FC8010E94481FF1
:1009A000B82ECE0101960E94071EBB2009F44EC04E
:1009B00046E050E0B801CE0101960E945604CE01F7
:1009C00001960E941A204B015C01CE0101960E9403
:1009D000071ED501C4010197A109B109883E9340C2
:1009E000A105B10588F061EB71E08DE695E00E940C
:1009F0006F1B2AE030E048EE53E060E070E08DE6E7
:100A000095E00E94D41C91CF61E08F2D0E94F721C8
:100A1000C501B4010E94B62060E08F2D0E94F7212D
:100A20006DEA71E08DE695E00E946F1BB6018DE6E0
:100A300095E00E94A11B65EA71E08DE695E00E94B9
:100A40006F1B2AE030E0B501A401D9CF65E971E060
:100A50008DE695E00E946F1BB8018DE695E00E943F
:100A6000C61B63CFCF92DF92EF92FF920F931F933B
:100A7000CF93DF9300D000D000D0CDB7DEB78C018C
:100A80006FE171E00E94061F882311F181E08093DD
:100A9000A4040E9485206093A0047093A104809315
:100AA000A2049093A30464E871E08DE695E00E94AF
:100AB000B41B26960FB6F894DEBF0FBECDBFDF91F4
:100AC000CF911F910F91FF90EF90DF90CF900895FD
:100AD00062E271E0C8010E94061F882389F010922B
:100AE000A40410929C0410929D0410929E041092F3
:100AF0009F0460E08CE00E94F72166E771E0D5CFAB
:100B00006DE271E0CE0101960E94791EBE016F5F19
:100B10007F4FC8010E94481FF82ECE0101960E9407
:100B2000071EFF2009F445C045E050E0B801CE01A2
:100B300001960E945604CE0101960E941A206B0174
:100B40007C01CE0101960E94071ED701C6010197C4
:100B5000A109B109803A9F40A105B10588F06FE570
:100B600071E08DE695E00E946F1B2AE030E040EADC
:100B70005FE060E070E08DE695E00E94D41C99CFC4
:100B80000E9485206C0D7D1D8E1D9F1D60939C0411
:100B900070939D0480939E0490939F046FE471E092
:100BA0008DE695E00E946F1B2AE030E0B701A601B8
:100BB000E2CF6CE371E08DE695E00E946F1BB80117
:100BC0008DE695E00E94C61B74CFCF93DF9326E09D
:100BD00040E052EC61E070E08DE695E00E94421A40
:100BE0000E94E50F61E084E00E94BB2161E087E0A4
:100BF0000E94BB2161E088E00E94BB2161E089E0A6
:100C00000E94BB2161E08AE00E94BB2161E085E097
:100C10000E94BB2161E086E00E94BB2161E082E18D
:100C20000E94BB2161E08DE00E94BB2161E08CE06D
:100C30000E94BB2160E082E10E94F72160E08DE02C
:100C40000E94F72160E08CE00E94F72160E08EE0D6
:100C50000E94BB2160E08FE00E94BB2160E080E148
:100C60000E94BB2162E083E10E94BB2140E050E092
:100C700068E474E48AED94E00E94931540E050E843
:100C80006BEB74E48AED94E00E9473166BE070E005
:100C900087ED94E00E944A18CEE1D5E06F8170E0C4
:100CA00087ED94E00E94871861E170E084ED94E0A4
:100CB0000E944A18698570E084ED94E00E948718CC
:100CC0000E94A8020E9485206093D0047093D104F2
:100CD0008093D2049093D3048DE695E00E94B01BDC
:100CE00067E970E08DE695E00E946F1B63E371E0B9
:100CF0008DE695E00E94D81B6EE770E08DE695E0EA
:100D0000DF91CF910C94B41BCF92EF920F93CC2430
:100D1000C39485E0E82E04E023E042E061E08AED40
:100D200094E00E94091687ED94E00E94B01784EDCC
:100D300094E00F91EF90CF900C94B0178F929F9208
:100D4000AF92BF92CF92DF92EF92FF920F931F93D9
:100D5000CF93DF93CDB7DEB768970FB6F894DEBFB9
:100D60000FBECDBF80918E0481110DC06DE874E07F
:100D700086E994E00E94791E81E080938E0482EDE2
:100D800092E00E94262093E0F92E22E0D22EEE245B
:100D9000E3948DE695E00E946819181619060CF088
:100DA0007AC58DE695E00E9482198A3019F08D305F
:100DB00009F063C580919A0490919B04892B49F3B3
:100DC00066E974E0CE0143960E94AF1ECE014396C1
:100DD0000E94BD1F8F89988D892B09F4AAC10E949A
:100DE00085206093D0047093D1048093D2049093B3
:100DF000D3041092CF0469E371E0CE0143960E94C0
:100E0000061F67E371E0811153C06EE371E0CE010C
:100E100043960E94061F882309F44FC063E873E0DD
:100E20008DE695E00E94B41B6EE673E08DE695E0DA
:100E30000E94B41B6FE473E08DE695E00E94B41B42
:100E40006CE273E08DE695E00E94B41B6CE173E008
:100E50008DE695E00E94B41B6DEE72E08DE695E0A4
:100E60000E94B41B6DEB72E08DE695E00E94B41B0E
:100E70006EEA72E08DE695E00E94B41B69E772E0CD
:100E80008DE695E00E94B41B6AE472E08DE695E081
:100E90000E94B41B69E372E08DE695E00E94B41BEA
:100EA00065E072E08DE695E00E94B41B6BEE71E0A8
:100EB0008DE695E00E94B41B3CC163E471E0CE0175
:100EC00043960E94061F882309F4F0C08EE00E941A
:100ED0002522BB24B394892B09F0B12C8FE00E940A
:100EE0002522CC24C394892B09F0C12C80E10E94D7
:100EF000252201E0892B09F000E083E10E942522F0
:100F000011E0019709F010E064E174E08DE695E0EE
:100F10000E946F1BE091CE046BE071E0E53038F485
:100F2000F0E0EE0FFF1FEC5BFD4F608171818DE6FD
:100F300095E00E94A11B6DE074E08DE695E00E94B3
:100F40006F1B4AE050E06091CD048DE695E00E9471
:100F5000BB1C65E074E08DE695E00E946F1B8091FC
:100F6000B1046DE874E0882311F061EB74E08DE664
:100F700095E00E94A11B6DEF73E08DE695E00E9465
:100F80006F1B6B2D70E04AE050E08DE695E00E940B
:100F9000831C60EF73E08DE695E00E946F1B6C2D63
:100FA00070E04AE050E08DE695E00E94831C64EE1C
:100FB00073E08DE695E00E946F1B602F70E04AE0C1
:100FC00050E08DE695E00E94831C6AED73E08DE6AB
:100FD00095E00E946F1B612F70E04AE050E08DE6C3
:100FE00095E00E94831C63ED73E08DE695E00E941E
:100FF0006F1B82E10E9425224AE050E0BC018DE691
:1010000095E00E94831C6CEC73E08DE695E00E94F5
:101010006F1B8DE00E9425224AE050E0BC018DE666
:1010200095E00E94831C63EC73E08DE695E00E94DE
:101030006F1B8CE00E9425224AE050E0BC018DE647
:1010400095E00E94831C62EB73E08DE695E00E94C0
:101050006F1B6091A40470E04AE050E08DE695E0DB
:101060000E94831C6CEA73E08DE695E00E946F1B82
:1010700084ED94E00E9403194AE050E0BC018DE643
:1010800095E00E94831C6EE973E08DE695E00E9476
:101090006F1B8AED94E00E944615AB01BC012AE06B
:1010A00030E08DE695E00E949C1C43C06AE471E04C
:1010B000CE0143960E94061F882389F10E94A80250
:1010C0006091270570E084ED94E00E9487188AED16
:1010D00094E00E94971640E050E0BA018AED94E057
:1010E0000E94D31440E050E068E474E48AED94E098
:1010F0000E9493151092AA041092A40410929C04CA
:1011000010929D0410929E0410929F041092CE049F
:101110001092CD041092B10462E274E0C9CE6FE483
:1011200071E0CE0143960E94061F882369F00E9459
:101130008310CE0143960E94071E6DE874E086E995
:1011400094E00E94B81E25CE66E571E0CE010196BE
:101150000E94791EBE016F5F7F4FCE0143960E94B1
:10116000481F182FCE0101960E94071E112309F473
:1011700043C044E050E0BE016D5E7F4FCE0101965A
:101180000E945604CE0101960E94BD1FBE01695FF8
:101190007F4FCE0101960E9460108823F9F063E32F
:1011A00071E08DE695E00E946F1BBE016F5F7F4F7F
:1011B0008DE695E00E94931B6DE38DE695E00E941D
:1011C000A91B4F81588569857A852AE030E08DE634
:1011D00095E00E949C1CCE01019640C066E271E041
:1011E0008DE695E00E946F1BBE016F5F7F4F8DE61D
:1011F00095E00E94C61BEFCF6BE571E0CE01019632
:101200000E94791EBE016F5F7F4FCE0143960E9400
:10121000481F182FCE0101960E94071E112309F4C2
:1012200085C044E050E0BE016D5E7F4FCE010D965B
:101230000E945604CE010D960E94BD1F60E2CE01B1
:101240000D960E94731F8C0197FF0BC06AE071E03E
:101250008DE695E00E94B41BCE010D960E94071EFC
:1012600068CF9C0150E040E0BE01635F7F4FCE013C
:1012700007960E94771FA8014F5F5F4FBE01635F13
:101280007F4FCE0101960E945604CE0101960E9426
:101290001A204B015C01CE0101960E94071E8DE8C9
:1012A00094E09A8389839E012F5F3F4FB501A4018B
:1012B000CE0107960E9423108823F9F066E071E0C2
:1012C0008DE695E00E946F1BBE01695F7F4F8DE642
:1012D00095E00E94931B6DE38DE695E00E94A91BAB
:1012E0002AE030E0B501A4018DE695E00E949C1C47
:1012F000CE0107960E94071EAFCF61E071E08DE638
:1013000095E00E946F1B69817A818DE695E00E94CD
:10131000A11B6AE38DE695E00E94A91BBE01695FEF
:101320007F4F8DE695E00E94C61BE2CF6AE872E02F
:10133000CE0143960E94061F882399F08091CE0427
:101340008B7F6EE674E009F0B3CD1092B104E092A9
:10135000CE041092A40485E60E94710364E674E052
:10136000A7CD60E671E0CE0143960E94061F882358
:10137000E9F08091CE048B7F6BE574E009F098CDA5
:101380001092B104D092CE04E092A4040E94852071
:101390006093A0047093A1048093A2049093A3048B
:1013A00081E00E9471036FE474E082CD66E671E033
:1013B000CE0101960E94791EBE016F5F7F4FCE0164
:1013C00043960E94481F182FCE0101960E94071EC7
:1013D0001123E1F145E050E0BE016D5E7F4FCE018B
:1013E00001960E945604CE0101960E941A20162FE3
:1013F0008091CE048B7F39F066E474E08DE695E051
:101400000E94B41BE8CE8FEF810F8C3070F063E345
:1014100074E08DE695E00E946F1B4AE050E06CE0BE
:101420008DE695E00E94C21CD6CE1092B104F092D7
:10143000CE04812F0E9471036AE274E08DE695E08C
:101440000E946F1B4AE050E0612FEACF6CE671E02A
:10145000CE0101960E94791EBE016F5F7F4FCE01C3
:1014600043960E94481F182FCE0101960E94071E26
:101470001123A9F10E94F202882309F45ACE48E010
:1014800050E0BE016D5E7F4FCE0101960E94560472
:10149000CE0101960E941A204B015C01CE010196FB
:1014A0000E94071E60E084E00E94F72140E050E0C7
:1014B00068E474E48AED94E00E949315B501A401F8
:1014C0008AED94E00E94D31465EF70E08DE695E01C
:1014D0000E946F1B2AE030E0B501A401E2CD65E770
:1014E00071E0CE0101960E94791EBE016F5F7F4FB1
:1014F000CE0143960E94481F182FCE0101960E94EC
:10150000071E1123C9F00E94F202882309F411CEAC
:1015100046E050E0BE016D5E7F4FCE0101960E9415
:101520005604CE0101960E94BD1F89819A810E94B6
:1015300011036BEE70E054CE6CE771E0CE010196C2
:101540000E94791EBE016F5F7F4FCE0143960E94BD
:10155000481F182FCE0101960E94071E1123C9F0C3
:101560000E94F202882309F4E4CD47E050E0BE0176
:101570006D5E7F4FCE0101960E945604CE0101960A
:101580000E94BD1F89819A810E94410360EE70E034
:1015900027CE64E871E0CE0101960E94791EBE015B
:1015A0006F5F7F4FCE0143960E94481F182FCE01D8
:1015B00001960E94071E112309F457C00E94F202EF
:1015C000882309F4B6CD46E050E0BE016D5E7F4F42
:1015D000CE0101960E945604CE0101960E941A2067
:1015E00010E000E097FD2AC046E050E0BE016D5ECD
:1015F0007F4FCE0107960E945604CE0107960E94A7
:101600001A2004EB10E0653B71058105910594F407
:1016100046E050E0BE016D5E7F4FCE010D960E9408
:101620005604CE010D960E941A208B01CE010D9614
:101630000E94071ECE0107960E94071ECE0101964A
:101640000E94071EB80187ED94E00E94871866ED9E
:1016500070E08DE695E00E946F1B4AE050E0B80113
:101660008DE695E00E948A1C64CD6BE871E0CE01A6
:1016700001960E94791EBE016F5F7F4FCE01439697
:101680000E94481F182FCE0101960E94071E1123A9
:10169000A9F00E94F202882309F44BCD4BE050E000
:1016A000BE016D5E7F4FCE0101960E945604BE01C1
:1016B0006F5F7F4F82E10E9462048DCD67E971E028
:1016C000CE0101960E94791EBE016F5F7F4FCE0151
:1016D00043960E94481F182FCE0101960E94071EB4
:1016E000112399F00E94F202882309F422CD4BE0E5
:1016F00050E0BE016D5E7F4FCE0101960E94560400
:10170000BE016F5F7F4F8DE0D6CF63EA71E0CE01FF
:1017100001960E94791EBE016F5F7F4FCE014396F6
:101720000E94481F182FCE0101960E94071E112308
:1017300001F147E050E0BE016D5E7F4FCE010196A2
:101740000E945604CE0101960E94BD1F62E271E024
:10175000CE0101960E94061F882329F0CE01019632
:101760000E94320538CD0E94F202882309F433CD5D
:10177000F5CF6BEA71E0CE0143960E94061F8823E5
:1017800089F00E94F202882309F4D3CC1092AA04B3
:101790001092B104F092CE0484E00E9471036DECCB
:1017A00070E086CB67EA72E0CE0143960E94061F86
:1017B000882379F00E94F202882309F4BACC1092AF
:1017C000B104F092CE048BE00E94710366EC70E0ED
:1017D0006FCB61EB71E0CE0101960E94791EBE01D4
:1017E0006F5F7F4FCE0143960E94481F182FCE0196
:1017F00001960E94071E112391F10E94F202882394
:1018000009F497CC46E050E0BE016D5E7F4FCE01FB
:1018100001960E945604CE0101960E941A20162FAE
:10182000CE0101960E94071E111102C010912F05D2
:101830001093AA041092B104F092CE0484E00E94A6
:1018400071036CEB70E08DE695E00E946F1B4AE03F
:1018500050E0612F8DE695E00E94C21C6ACC67EAD9
:1018600070E08DE695E00E946F1BBE016D5E7F4FBC
:101870008DE695E00E94C61B5CCC682F86E994E05B
:101880000E94F31E80919A0490919B0481349105EB
:1018900008F47FCA52CC8AED94E00E9462158091D0
:1018A000CE0481110CC08AED94E00E943415672BA0
:1018B000682B692B21F461E084E00E94F72180917C
:1018C000CE048B7FF9F00E9485206B017C01809112
:1018D000CD04883009F4CCC108F085C0843009F407
:1018E0001DC108F070C0813009F4F7C008F001C1D3
:1018F0000E9485206093D0047093D1048093D20419
:101900009093D3040E94852000919C0410919D0423
:1019100020919E0430919F04011511052105310588
:1019200009F475C2601B710B820B930B97FD6AC2A1
:1019300060E08CE00E94F72110929C0410929D04BC
:1019400010929E0410929F048091CF04811128C0B0
:101950008091CE04811124C00E9485200091D00482
:101960001091D1042091D2043091D304601B710BEB
:10197000820B930B693873418105910588F0012B27
:10198000022B032B69F00E94A8021092A40468E6BF
:1019900070E08DE695E00E94B41B81E08093CF0457
:1019A00068960FB6F894DEBF0FBECDBFDF91CF9122
:1019B0001F910F91FF90EF90DF90CF90BF90AF906D
:1019C0009F908F900895863009F462C008F4FFC09C
:1019D0008FE00E942522892B09F02BC18AE491E037
:1019E0000E94410383C08C3009F4D1C140F58A3094
:1019F00009F43EC108F461C10E9485206B017C019D
:101A00008091A904813009F49FC108F47BC1823020
:101A100009F06ECF8091A5049091A604A091A7042F
:101A2000B091A804C81AD90AEA0AFB0A34EFC3160F
:101A300031E0D306E104F10408F45ACF57C08636EA
:101A400009F416C100F5853609F052CF83E10E94F2
:101A50002522019709F0B4C140E050E0BA018AEDB7
:101A600094E00E944C1540E050E0BA018AED94E009
:101A70000E94D31440E050E068E474E48AED94E0FE
:101A80000E94931533C08736A1F1883609F030CF14
:101A90008091C9049091CA04A091CB04B091CC0468
:101AA000C81AD90AEA0AFB0A8091340590913505D3
:101AB000B0E0A0E0AC01BD014053584F6F4F7F4FE5
:101AC0004C155D056E057F0508F0ACC08AE491E019
:101AD0000E9411038AEC91E0A2C08AED94E00E947A
:101AE0003415672B682B692B09F002CF0E94230461
:101AF000FFCE8091C9049091CA04A091CB04B0910B
:101B0000CC04C81AD90AEA0AFB0A24EFC21621E05B
:101B1000D206E104F10408F4EBCEE8CF0E94852060
:101B20006B017C012091AF048091AB049091AC04D7
:101B3000A091AD04B091AE04B701A601481B590BAA
:101B40006A0B7B0B2223F9F080912B0590912C05D9
:101B5000B0E0A0E0481759076A077B0708F4C8CE31
:101B600060E082E10E94F72160E08DE00E94F721B1
:101B70001092AF04C092AB04D092AC04E092AD04DA
:101B8000F092AE04B5CE80912D0590912E05B0E077
:101B9000A0E0481759076A077B0708F4A9CE80918F
:101BA000B0048F5F8093B0049091AA04891718F055
:101BB0001092AA049BCF61E082E10E94F72161E0CC
:101BC0008DE00E94F72181E08093AF04D3CF8EE0B7
:101BD0000E942522892B29F48AE491E00E941103B6
:101BE00085CF8091C9049091CA04A091CB04B09193
:101BF000CC04C81AD90AEA0AFB0A809136059091EA
:101C00003705B0E0A0E08C159D05AE05BF0508F0D6
:101C10006FCE8AE491E00E94110388EB91E00E946C
:101C2000D60266CEC816D906EA06FB0608F460CED0
:101C3000D3CF8091C9049091CA04A091CB04B091F4
:101C4000CC04C81AD90AEA0AFB0A80913905909196
:101C50003A05B0E0A0E08C159D05AE05BF0508F083
:101C600047CE8AE491E00E9441038BED91E0D7CF0B
:101C700080E10E942522892B09F4B0CE8091C9040D
:101C80009091CA04A091CB04B091CC04C81AD90A8F
:101C9000EA0AFB0A80913B0590913C05B0E0A0E088
:101CA0008C159D05AE05BF0508F022CE8AE491E0B3
:101CB0000E9441038EEE91E0B2CF8FE00E94252278
:101CC000892B39F48AE491E00E94410381E092E09B
:101CD000A6CF8091C9049091CA04A091CB04B09181
:101CE000CC04C81AD90AEA0AFB0A80913E059091F1
:101CF0003F05B0E0A0E0C816D906EA06FB0608F4E6
:101D0000F7CD6CCE8091A5049091A604A091A70474
:101D1000B091A80446015701881A990AAA0ABB0A79
:101D2000D501C401843F9140A105B10508F4E0CD7F
:101D300081E08093A904C092A504D092A604E09209
:101D4000A704F092A804D4CD8091A5049091A60494
:101D5000A091A704B091A804B701A601481B590B94
:101D60006A0B7B0B8091290590912A05B0E0A0E0D9
:101D7000481759076A077B0708F4BACD6091270511
:101D800070E084ED94E00E94871882E0D2CF8091C9
:101D9000C9049091CA04A091CB04B091CC04C81A94
:101DA000D90AEA0AFB0A8091440590914505B0E002
:101DB000A0E0C816D906EA06FB0608F499CD96CE2F
:101DC0008091C9049091CA04A091CB04B091CC0435
:101DD000C81AD90AEA0AFB0A8091230590912405C2
:101DE000B0E0A0E08C159D05AE05BF0508F080CDE4
:101DF00040E050E0BA018AED94E00E94D31482E101
:101E000092E00DCF61E08CE00E94F7219DCD209102
:101E1000A404211102C060E0F6CFC0903205D0903A
:101E20003305F12CE12C209130053091310546012C
:101E30005701820E931EA11CB11CA501940121150E
:101E400031054105510539F38090A0049090A1041B
:101E5000A090A204B090A304681979098A099B098B
:101E60000E946A2221E06C157D058E059F0508F40D
:101E700020E0622FC8CFEF92FF920F931F93CF9372
:101E8000DF937C0103E913E0D0E0C0E0F80160815A
:101E90007181C7010E94061F882379F029E02C9FD9
:101EA000C0012D9F900D11248D569C4FDF91CF9135
:101EB0001F910F91FF90EF9008952196075F1F4F9C
:101EC000C631D10519F790E080E0F0CFEEE1F5E002
:101ED0008FE195EC9183808383E0828388EC90E0AE
:101EE0009483838388E893E19683858385E0878361
:101EF00085E580878AE081878EE6828786E990E0A3
:101F00009487838780E590E09687858728E730E08F
:101F1000308B278728E0218B20E23EE4338B228B15
:101F200020E137E2358B248B20E233E0378B268BA0
:101F300020EA3FE0318F208F48EC428F348F238F8F
:101F4000368F258F2CED278F20E931E031A320A398
:101F500093A382A395A384A384EF91E097A386A380
:101F600010A60895FF920F931F93CF93DF938FE1F5
:101F700095EC90931F0580931E0583E080932005C8
:101F80000EE115E026E435E0F80180E09191892723
:101F90002E173F07D9F780934605D0E0C0E0F8013F
:101FA000F1908F01CE010E94CF27F81621F06F2DFE
:101FB000CE010E94D7272196C932D10581F7DF9142
:101FC000CF911F910F91FF900895EF92FF920F9381
:101FD0001F93CF93DF930EE115E07801D0E0C0E0CE
:101FE000CE010E94CF27F70181937F012196C9324C
:101FF000D105B1F780911E0590911F058F31954C49
:1020000089F480912005833069F49091460580E041
:10201000F80121918F018227F5E006341F07C1F7EF
:10202000981751F00E94660FDF91CF911F910F9189
:10203000FF90EF900C94B20FDF91CF911F910F9111
:10204000FF90EF900895CF92DF92EF92FF92CF939F
:10205000DF936A017B01E9010E943B0FFC018EE4E2
:1020600092E03097A1F085819681B0E0A0E0C8169B
:10207000D906EA06FB064CF087819085B0E0A0E027
:102080008C159D05AE05BF0564F486E592E0998345
:10209000888380E0DF91CF91FF90EF90DF90CF9029
:1020A0000895A381B481A25EBA4F8281811105C0D7
:1020B000CC920E94B20F81E0EDCFCD92DC92F9CFAD
:1020C000CF93DF93EB010E943B0F0097D1F0DC012F
:1020D0001396ED91FC911497E25EFA4F12968C9153
:1020E00081110CC0808190E0B0E0A0E088839983EA
:1020F000AA83BB8381E0DF91CF9108958081918194
:10210000F3CF80E0F8CFCF92DF92EF92FF92CF93A0
:10211000DF9362E974E08DE695E00E946F1BC3E9EE
:10212000D3E0EB81FC81E25EFA4F8A8181112BC002
:10213000C080D12CF12CE12C60E28DE695E00E946C
:10214000A91B688179818DE695E00E94A11B6DE352
:102150008DE695E00E94A91B2AE030E0B701A601B8
:102160008DE695E00E943B1C299684E0C935D8078E
:10217000C1F68DE695E0DF91CF91FF90EF90DF9073
:10218000CF900C94B01BC080D180D4CF08954F92D3
:102190005F926F927F928F929F92AF92BF92CF92F7
:1021A000DF92EF92FF920F931F93CF93DF93EC0197
:1021B000CC88DD88EE88FF8888899989AA89BB89BF
:1021C000C81AD90AEA0AFB0A688D798D8A8D9B8D17
:1021D0009B01AC010E949C244B015C0168A179A188
:1021E0008AA19BA19B01AC010E94CC229B01AC0166
:1021F000C501B4010E943D230E94AF23C114D10444
:10220000E104F10409F0B6C0623071058105910561
:102210000CF0D0C01B821C821D821E82188E198E6B
:102220001A8E1B8E1CAA1DAA1EAA1FAAC12CD12C55
:102230007601C701B601DF91CF911F910F91FF90F9
:10224000EF90DF90CF90BF90AF909F908F907F9056
:102250006F905F904F9008951016110612061306A6
:10226000B4F46C157D058E059F051CF42A8121119F
:10227000A1C09B01AC0188279927DC01821B930B2D
:10228000A40BB50B8CAB9DABAEABBFAB93C0011534
:1022900011052105310509F48DC06C157D058E05EC
:1022A0009F050CF087C08A81882309F483C030958C
:1022B0002095109501951F4F2F4F3F4F0CAB1DAB35
:1022C0002EAB3FAB77C0011511052105310509F48F
:1022D00071C08824992454018C189D08AE08BF0849
:1022E000681579058A059B050CF064C08A81811107
:1022F00061C0DDCFCCACDDACEEACFFACA70196018C
:10230000C701B6010E94CC222B013C01C501B401DA
:102310000E94E72320E030E040E850E40E949C2443
:1023200020E030E040E85FE30E94CC229B01AC015A
:10233000C301B2010E943D239B01AC01C701B6015C
:102340000E94CB223B016C01FE01E05CFF4FE0806C
:10235000F180028113819701A8010E949724181629
:1023600014F473018601C701D8018CAF9DAFAEAFE5
:10237000BFAF3AC00CA91DA92EA93FA91C141D046A
:102380001E041F040CF468CF101611061206130663
:102390000CF099CF0027112798010C191D092E095F
:1023A0003F0960177107820793070CF062CF2A81FB
:1023B00021115FCF8CA89DA8AEA8BFA8811491045D
:1023C000A104B10409F096CF88AD99ADAAADBBAD1B
:1023D0008CAF9DAFAEAFBFAF81E01C141D041E04D7
:1023E0001F040CF080E08A833FEF831A930AA30A4C
:1023F000B30A8CAA9DAAAEAABFAA8CAC9DACAEAC07
:10240000BFACC501B4010E94B6236B017C01CB8235
:10241000DC82ED82FE82A501940160E074E284E733
:1024200099E40E943D23688F798F8A8F9B8F2A8140
:102430002111FFCE9058688F798F8A8F9B8FF9CEAC
:10244000DC011796EC911797E93008F038C0F0E0FE
:10245000E45DFD4E0C94AB2235123B124112471243
:102460004D125F1253125F125912ED91FC910684C6
:10247000F785E02D0994ED91FC910088F189E02D1C
:10248000F9CFED91FC910288F389E02DF3CFED9126
:10249000FC910488F589E02DEDCFED91FC91068843
:1024A000F789E02DE7CFED91FC91008CF18DE02DC7
:1024B000E1CFED91FC91028CF38DE02DDBCF0895FF
:1024C000CF93DF93EC01CB01BA0126E030E040E08E
:1024D00050E00E948C22623071058105910589F1DE
:1024E0006CF46115710581059105D1F061307105BC
:1024F00081059105F9F0DF91CF9108956430710560
:102500008105910561F124F1653071058105910521
:1025100091F7E881F9810284F385E02D66E006C039
:10252000E881F9810284F385E02D64E0CE01DF913A
:10253000CF910994E881F9810284F385E02D65E06B
:10254000F5CFE881F9810284F385E02D61E0EECFDB
:10255000E881F9810284F385E02D63E0E7CFE8812B
:10256000F9810284F385E02D62E0E0CFDC01ED919A
:10257000FC91228533854770552766277727415080
:10258000510961097109473051056105710560F410
:10259000FA01E353FD4E0C94AB22D712D912DB1291
:1025A000DD12DF12E112E31261E0F901099465E046
:1025B000FCCF64E0FACF66E0F8CF62E0F6CF6AE0E5
:1025C000F4CF68E0F2CF69E0F0CFCF92DF92EF92E4
:1025D000FF920F931F93CF93DF93DC011796CC915B
:1025E000C43039F0C83059F1C33019F0C63049F160
:1025F000C2E08C01085F1F4FF12CE12CC62ED12CBC
:10260000D1E0F8016481C6010E2C02C09595879532
:102610000A94E2F780FD6D270F5F1F4F80810E94B3
:10262000F721BFEFEB1AFB0AEC1658F3DF91CF91BD
:102630001F910F91FF90EF90DF90CF900895C4E02D
:10264000D8CFC3E0D6CFCF93DF93EC01E881F981F7
:102650000284F385E02D8A8160E0811162E0CE0181
:102660000995E881F9810284F385E02D8A8161E092
:10267000811163E0CE0109958CA59DA50E94EF20F4
:10268000E881F9810284F385E02D8A8160E081117F
:1026900062E0CE01DF91CF9109940C943920CF9361
:1026A000DF93EC0120E030E0A901688D798D8A8DFF
:1026B0009B8D0E94972418162CF4E8A9F9A9DF91A4
:1026C000CF910994EAA9FBA9FACFDC01ED91FC9125
:1026D0000284F385E02D4370552766277727423023
:1026E00051056105710571F04330510561057105B2
:1026F00059F0413051056105710511F062E009940E
:1027000063E0FDCF61E0FBCF60E0F9CFCF93DF93D3
:10271000EC01CB01BA0123E030E040E050E00E9440
:102720008C22613071058105910599F06230710547
:1027300081059105A9F0672B682B692BC1F4E8810D
:10274000F9810284F385E02D64E0CE01DF91CF9121
:102750000994E881F9810284F385E02D61E0F5CFE9
:10276000E881F9810284F385E02D62E0EECFDF910C
:10277000CF910895DC01ED91FC910284F385E02D69
:10278000437055276627772742305105610571054B
:1027900071F0433051056105710559F04130510523
:1027A0006105710511F065E0099466E0FDCF6AE00E
:1027B000FBCF69E0F9CFCF93DF93FC012781222380
:1027C000A9F0EC010190F081E02D0284F385E02D69
:1027D00060E009958FA58F3F49F061E00E94BB2121
:1027E0006EA58FA5DF91CF910C94F721DF91CF914A
:1027F0000895CF93DF93FC012781222359F1EC0147
:1028000061E080850E94BB2161E089850E94BB2137
:102810008F81843011F08830B1F461E08A850E94A4
:10282000BB2161E08B850E94BB218FA58F3F91F07A
:1028300061E00E94BB216EA581E068278FA5DF9132
:10284000CF910C94F721833011F0863071F761E05D
:102850008A85E9CFDF91CF9108954F925F926F9271
:102860007F928F929F92AF92BF92CF92DF92EF9220
:10287000FF92CF93DF93EC016A017B0120E030E00F
:10288000A901CB01B6010E94382387FF04C0F7FAE3
:10289000F094F7F8F09488A099A0AAA0BBA0A70193
:1028A0009601C501B4010E943823882309F44DC064
:1028B0006CA97DA98EA99FA90E94E7232B013C0149
:1028C000A7019601C501B4010E943D239B01AC0103
:1028D000C301B2010E949C240E94AF236CAB7DAB6C
:1028E0008EAB9FABA701960160E070E080E090E4C2
:1028F0000E943D230E940F2526E53EE04DE25FE366
:102900000E949C2420E034E244E759E40E949C2485
:1029100068AF79AF8AAF9BAFC8A2D9A2EAA2FBA2E7
:10292000E881F9810084F185E02DCE01DF91CF911E
:10293000FF90EF90DF90CF90BF90AF909F908F90DF
:102940007F906F905F904F900994DF91CF91FF90AF
:10295000EF90DF90CF90BF90AF909F908F907F903F
:102960006F905F904F9008950F931F93DC015496E2
:102970000D911D912D913C9157970417150726072E
:10298000370771F0FC01448B558B668B778B019078
:10299000F081E02D0084F185E02D1F910F910994C5
:1029A0001F910F9108950F931F93FC0100891189C6
:1029B00022893389400F511F621F731F1F910F918E
:1029C0000C94B414CF92DF92EF92FF92CF93DF93E7
:1029D000FC014381548165817681452B462B472B31
:1029E00041F480E0DF91CF91FF90EF90DF90CF90A6
:1029F0000895EC010E9491206B017C0188A599A5A6
:102A0000AAA5BBA5B701A601481B590B6A0B7B0BF6
:102A10008B819C81AD81BE81481759076A077B076E
:102A200000F388899989AA89BB892A812223C1F068
:102A30000196A11DB11D888B998BAA8BBB8B4889F0
:102A400059896A897B89E881F9810484F585E02DBB
:102A5000CE010995C8A6D9A6EAA6FBA681E0C2CFF9
:102A60000197A109B109E7CF0F931F93FC01648976
:102A70007589868997890089118922893389601B24
:102A8000710B820B930B1F910F910895FC016089CC
:102A90007189828993890895FC01408B518B628BE7
:102AA000738B448B558B668B778B14AA15AA16AA49
:102AB00017AA1382148215821682108E118E128E1E
:102AC000138E08950F931F93CF93DF93EC010E9411
:102AD000E214882339F0E881F9810084F185E02D42
:102AE000CE01099520E030E0A901688D798D8A8DAD
:102AF0009B8D0E943823811114C081E00C891D89AF
:102B00002E893F89488959896A897B890417150765
:102B10002607370709F480E0DF91CF911F910F91CD
:102B2000089581E0F9CFCF92DF92EF92FF920F9359
:102B30001F93CF93DF93EC016A017B0120E030E02B
:102B4000A901CB01B6010E94382387FF04C0F7FA20
:102B5000F094F7F8F094A70196016C8D7D8D8E8D21
:102B60009F8D0E943823882309F44AC0CC8EDD8EC5
:102B7000EE8EFF8E8E01005C1F4FA701960160E074
:102B800074E284E799E40E943D23F8016083718335
:102B9000828393838CA99DA9AEA9BFA91816190693
:102BA0001A061B066CF5688D798D8A8D9B8D9B01AD
:102BB000AC010E949C246B017C0168A179A18AA1CF
:102BC0009BA19B01AC010E94CC229B01AC01C701DF
:102BD000B6010E943D230E94AF236CAB7DAB8EAB50
:102BE0009FABE881F9810084F185E02DCE01DF9172
:102BF000CF911F910F91FF90EF90DF90CF900994AC
:102C0000DF91CF911F910F91FF90EF90DF90CF90C8
:102C10000895CF92EF920F93CF93DF93EC018DE560
:102C200094E0998388836F83188A198A1A8A1B8A89
:102C30001C8A1D8A1E8A1F8A188E198E1A8E1B8E58
:102C40001C8E1D8E1E8E1F8E18A219A21AA21BA2E8
:102C500080E090E0A0E8BFE38CA39DA3AEA3BFA358
:102C60001B821C821D821E8261E070E07DA76CA722
:102C70003FEF3FA718A619A61AA61BA648872987C3
:102C80000A87EB861EA61CAA1DAA1EAA1FAA18AE9A
:102C900019AE1AAE1BAE1CAE1DAE1EAE1FAEFE01AF
:102CA000E05CFF4F80839183A283B3831A821C86EA
:102CB0001D861E861F86CC2019F0CE010E94F913B6
:102CC00040E050E060E87FE3CE010E942D1440E038
:102CD00050E060E87FE3CE01DF91CF910F91EF905C
:102CE000CF900C949315CF92DF92EF92FF92CF93F7
:102CF000DF93EC016A017B0120E030E0A901CB0108
:102D0000B6010E943823882359F0B701A601CE01ED
:102D1000DF91CF91FF90EF90DF90CF900C942D1426
:102D2000DF91CF91FF90EF90DF90CF9008958F9239
:102D30009F92AF92BF92CF92DF92EF92FF92CF938A
:102D4000DF93EC01888C998CAA8CBB8C20E030E05E
:102D5000A901C501B4010E9438238823D9F1A50136
:102D60009401C501B4010E949C246B017C0168A1FF
:102D700079A18AA19BA19B01AC010E94CC229B015D
:102D8000AC01C701B6010E943D230E94AF236B0135
:102D90007C0120E030E0A901C501B4010E94972424
:102DA000B701A60118168CF44F5F5F4F6F4F7F4F2E
:102DB000CE01DF91CF91FF90EF90DF90CF90BF9049
:102DC000AF909F908F900C94D31440955095609540
:102DD0007095EECFDF91CF91FF90EF90DF90CF9085
:102DE000BF90AF909F908F9008951F920F920FB653
:102DF0000F9211242F933F934F935F936F937F9381
:102E00008F939F93AF93BF93EF93FF938091480568
:102E100087FF27C01092850010928400809148059A
:102E20008F5F8093480580914805082E000C990B10
:102E3000209147052817190629F024F080914805AC
:102E40008C30DCF180918400909185000496803470
:102E50009C4908F47BC08091840090918500049681
:102E600077C080914805082E000C990B20914705EA
:102E70002817190699F294F2E09148058E2FEE0F6B
:102E8000990BFC01EE0FFF1FE80FF91FE75BFA4FEC
:102E9000808186FFC3CFE09148058E2FEE0F990BFE
:102EA000FC01EE0FFF1FE80FF91FE75BFA4F80816F
:102EB00060E08F730E94F721B1CF209184003091A0
:102EC0008500E09148058E2FEE0F990BFC01EE0F67
:102ED000FF1FE80FF91FE75BFA4F81819281820F94
:102EE000931F9093890080938800E09148058E2F6E
:102EF000EE0F990BFC01EE0FFF1FE80FF91FE75BC8
:102F0000FA4F808186FF11C0E09148058E2FEE0FA9
:102F1000990BFC01EE0FFF1FE80FF91FE75BFA4F5B
:102F2000808161E08F730E94F721FF91EF91BF9143
:102F3000AF919F918F917F916F915F914F913F9151
:102F40002F910F900FBE0F901F90189580E49CE971
:102F500090938900809388008FEF80934805E5CF98
:102F6000FC01909147059C3098F481E0890F809393
:102F700047059083892F90E0FC01EE0FFF1FE80FBB
:102F8000F91FE75BFA4F88EB9BE0928381830895FA
:102F90008FEF80830895DF92EF92FF920F931F933C
:102FA000CF93DF93EC01D62E7A01890188818C3092
:102FB00008F067C061E08D2D0E94BB218881282F19
:102FC00030E0F901EE0FFF1FE20FF31FE75BFA4F4E
:102FD0009D2D9F736081607C692B608320E232E0CD
:102FE0002E193F0937FF02C02D5F3F4F35952795BA
:102FF00035952795298320E639E0201B310B37FFD3
:1030000002C02D5F3F4F35952795359527952A832B
:103010002CE0622F0E945E22829FB001112430E0DA
:1030200020E0AB01420F531FFA01EE0FFF1FE40F28
:10303000F51FE75BFA4F908196FD16C02F5F3F4F5B
:103040002C30310571F781110FC01092800082E0A1
:10305000809381001092850010928400B19A809133
:103060006F00826080936F00E8818E2F90E0FC01FA
:10307000EE0FFF1FE80FF91FE75BFA4F80818064B6
:1030800080838881DF91CF911F910F91FF90EF9006
:10309000DF90089520E639E040E252E00C94CB172F
:1030A000DC01EC91EC3090F511968C91119728E8A9
:1030B00030E0281B310987FD3395220F331F220F83
:1030C000331F6217730784F012968C9128E532E063
:1030D000281B310987FD3395220F331F220F331F21
:1030E000621773070CF49B0122503109220F331F22
:1030F0004FB7F8948E2F90E0FC01EE0FFF1FE80F02
:10310000F91FE75BFA4F328321834FBF0895AF92D7
:10311000BF92CF92DF92EF92FF920F931F93CF93C4
:10312000DF93EC01603282E078070CF03EC0653B33
:10313000710514F064EB70E0898148E8A42EB12C8D
:10314000A81AB10887FDB394AA0CBB1CAA0CBB1C1F
:103150000B2C000CCC08DD0877FF02C070E060E0AB
:10316000072E000C880B990B2A8108E512E0021B40
:10317000110927FD1395000F111F000F111F012EBC
:10318000000C220B330B3F932F931F930F9314EBE1
:10319000E12EF12C00E010E020E030E0A9010E94D7
:1031A000C61D0F900F900F900F90CE01DF91CF9121
:1031B0001F910F91FF90EF90DF90CF90BF90AF9055
:1031C0000C945018FC0180818F3FD1F090E0FC01FD
:1031D000EE0FFF1FE80FF91FE75BFA4F8181928125
:1031E00033E0880F991F3A95E1F7B0E0A0E044E0A2
:1031F000B595A795979587954A95D1F70296089525
:1032000090E080E008954F925F926F927F92AF922C
:10321000BF92CF92DF92EF92FF920F931F93CF93C3
:10322000DF9300D000D0CDB7DEB7FC01428128E5A6
:1032300032E0241B310947FD3395220F331F220F43
:10324000331FA901330F660B770B49835A836B83B6
:103250007C83218158E8452E512C421A510827FDC4
:103260005394440C551C440C551C052C000C66084A
:1032700077080E94E2180196BC01990F880B990B00
:103280001F921F921F9224EB2F93A12CB12C65014A
:10329000E980FA800B811C81A30192010E94C61D66
:1032A0000F900F900F900F90CB010F900F900F90F9
:1032B0000F90DF91CF911F910F91FF90EF90DF90D2
:1032C000CF90BF90AF907F906F905F904F90089598
:1032D000FC01918D228D892F90E0805C9F4F821B95
:1032E00091098F7399270895FC01918D828D98170C
:1032F00031F0828DE80FF11D858D90E008958FEFFC
:103300009FEF0895FC01918D828D981761F0A28D39
:10331000AE0FBF2FB11D5D968C91928D9F5F9F73F5
:10332000928F90E008958FEF9FEF0895FC01538DE9
:10333000448D252F30E0842F90E0821B930B54178F
:1033400010F0CF960895019708958CEF9AE1892B9C
:1033500049F080E090E0892B29F00E94FC1A81114D
:103360000C9400000895FC01A48DA80FB92FB11D85
:10337000A35ABF4F2C91848D90E001968F739927AB
:10338000848FA689B7892C93A089B1898C91837089
:1033900080648C93938D848D981306C00288F38982
:1033A000E02D80818F7D80830895CF93DF93EC01A2
:1033B000888D8823B9F0AA89BB89E889F9898C911D
:1033C00085FD03C0808186FD0DC00FB607FCF7CFD9
:1033D0008C9185FFF2CF808185FFEDCFCE010E94D9
:1033E000B319E9CFDF91CF910895EF92FF920F9338
:1033F0001F93CF93DF93EC0181E0888F9B8D8C8DA1
:1034000098131AC0E889F989808185FF15C09FB794
:10341000F894EE89FF896083E889F9898081837057
:10342000806480839FBF81E090E0DF91CF911F9106
:103430000F91FF90EF900895F62E0B8D10E00F5F27
:103440001F4F0F731127E02E8C8D8E110CC00FB6FD
:1034500007FCFACFE889F989808185FFF5CFCE0195
:103460000E94B319F1CFEB8DEC0FFD2FF11DE35A44
:10347000FF4FF0829FB7F8940B8FEA89FB89808118
:103480008062CFCFCF92DF92EF92FF921F93CF93C4
:10349000DF93EC016A017B01122FE889F98982E050
:1034A0008083C11481EED806E104F104A1F060E04C
:1034B00079E08DE390E0A70196010E946A222150F5
:1034C0003109410951095695479537952795211599
:1034D00080E1380798F0E889F989108260E874E89B
:1034E0008EE190E0A70196010E946A2221503109E5
:1034F000410951095695479537952795EC85FD85E6
:103500003083EE85FF852083188EEC89FD8910833A
:10351000EA89FB89808180618083EA89FB898081D7
:1035200088608083EA89FB89808180688083EA895A
:10353000FB8980818F7D8083DF91CF911F91FF90E8
:10354000EF90DF90CF9008951F920F920FB60F92D9
:1035500011242F938F939F93EF93FF93E0917D0519
:10356000F0917E058081E0918305F091840582FDD4
:103570001BC09081809186058F5F8F732091870596
:10358000821741F0E0918605F0E0E359FA4F958FFC
:1035900080938605FF91EF919F918F912F910F90CE
:1035A0000FBE0F901F9018958081F4CF1F920F923D
:1035B0000FB60F9211242F933F934F935F936F9306
:1035C0007F938F939F93AF93BF93EF93FF938DE67A
:1035D00095E00E94B319FF91EF91BF91AF919F9138
:1035E0008F917F916F915F914F913F912F910F90AC
:1035F0000FBE0F901F9018958DE695E00E946819F8
:1036000021E0892B09F420E0822F0895EDE6F5E012
:103610001382128288EE93E0A0E0B0E08483958369
:10362000A683B7838DE794E09183808385EC90E057
:103630009587848784EC90E09787868780EC90E07C
:10364000918B808B81EC90E0938B828B82EC90E06D
:10365000958B848B86EC90E0978B868B118E128EE7
:10366000138E148E0895AF92BF92CF92DF92EF9295
:10367000FF920F931F93CF93DF936C017B018B011C
:10368000040F151FEB015E01AE18BF08C017D1076C
:1036900059F06991D601ED91FC910190F081E02DF6
:1036A000C6010995892B79F7C501DF91CF911F914B
:1036B0000F91FF90EF90DF90CF90BF90AF90089563
:1036C000FB0101900020E9F73197AF01461B570B32
:1036D000DC01ED91FC910280F381E02D0994EF92E1
:1036E000FF920F931F93CF93DF938C017B01D0E068
:1036F000C0E0F701EC0FFD1F6491662361F0D80173
:10370000ED91FC910190F081E02DC8010995892B84
:1037100011F02196EECFCE01DF91CF911F910F9145
:10372000FF90EF900895DB0114964D915C911597F1
:103730006D917C91DC01ED91FC910280F381E02D93
:1037400009946115710511F00C94601B90E080E004
:103750000895DC01ED91FC910190F081E02D099438
:103760006BE874E00C94601B0F931F93CF93DF936F
:10377000EC010E946F1B8C01CE010E94B01B800FD8
:10378000911FDF91CF911F910F9108950F931F9378
:10379000CF93DF93EC010E94931B8C01CE010E941A
:1037A000B01B800F911FDF91CF911F910F91089552
:1037B0000F931F93CF93DF938C01D0E0C0E061158E
:1037C000710519F00E94601BEC01C8010E94B01B3A
:1037D0008C0F9D1FDF91CF911F910F9108958F92B4
:1037E0009F92AF92BF92EF92FF920F931F93CF934E
:1037F000DF93CDB7DEB7A1970FB6F894DEBF0FBE4B
:10380000CDBF7C01FA01CB0119A2223008F42AE0D5
:103810008E010F5D1F4F822E912CB12CA12CBF0168
:10382000A50194010E946A22F901CA016A300CF5CF
:10383000605DD8016E938D01232B242B252B79F706
:1038400090E080E0109721F0BD01C7010E94601B4D
:10385000A1960FB6F894DEBF0FBECDBFDF91CF911A
:103860001F910F91FF90EF90BF90AF909F908F901E
:103870000895695CDECFCF92DF92EF92FF920F93B3
:103880001F93CF93DF932115310581F4DC01ED9176
:10389000FC910190F081E02D642FDF91CF911F9179
:1038A0000F91FF90EF90DF90CF9009942A3031056F
:1038B00001F52AE077FF1DC06A017B01EC016DE292
:1038C0000E94A91B8C0144275527BA014C195D0998
:1038D0006E097F092AE0CE010E94EF1B800F911F25
:1038E000DF91CF911F910F91FF90EF90DF90CF90DC
:1038F0000895DF91CF911F910F91FF90EF90DF908E
:10390000CF900C94EF1B9A01AB01770F660B770BEE
:103910000C943B1C0F931F93CF93DF93EC010E94F9
:10392000831C8C01CE010E94B01B800F911FDF9180
:10393000CF911F910F9108950F931F93CF93DF9312
:10394000EC010E943B1C8C01CE010E94B01B800F39
:10395000911FDF91CF911F910F910895211531058E
:1039600041F4DC01ED91FC910190F081E02D642F98
:1039700009940C94EF1B9A01462F50E070E060E030
:103980000C94AE1C0F931F93CF93DF93EC010E9416
:10399000BB1C8C01CE010E94B01B800F911FDF91D8
:1039A000CF911F910F9108950F931F93CF93DF93A2
:1039B000EC010E94AE1C8C01CE010E94B01B800F56
:1039C000911FDF91CF911F910F910895813039F0B0
:1039D00018F0823051F0089510926E000895809191
:1039E0006F008D7F80936F000895809170008D7FB0
:1039F0008093700081E08093B0008091B100887F57
:103A000084608093B1001092B3000895CF93C82FC3
:103A100080910601C8130DC0ECE9F4E084919FEF9A
:103A2000909306010E94E61C60E08C2FCF910C94CD
:103A3000F7218FEFF7CF1F920F920FB60F9211243D
:103A40002F933F934F935F936F937F938F939F93A6
:103A5000AF93BF93EF93FF9380910D0690910E0665
:103A6000A0910F06B0911006892B8A2B8B2BD1F1D8
:103A700090910A06E0910B06F0910C06808189274F
:103A8000808380910D0690910E06A0910F06B09153
:103A90001006181619061A061B069CF480910D06CE
:103AA00090910E06A0910F06B09110060197A10902
:103AB000B10980930D0690930E06A0930F06B09364
:103AC0001006FF91EF91BF91AF919F918F917F91E0
:103AD0006F915F914F913F912F910F900FBE0F907B
:103AE0001F901895809106010E94061DEACF089547
:103AF0001F920F920FB60F9211242F933F934F9363
:103B00005F936F937F938F939F93AF93BF93EF9345
:103B1000FF93E0910701F09108010995FF91EF9162
:103B2000BF91AF919F918F917F916F915F914F91D5
:103B30003F912F910F900FBE0F901F9018951F92DD
:103B40000F920FB60F9211242F933F934F935F93D1
:103B50006F937F938F939F93AF93BF93EF93FF9355
:103B6000E0910901F0910A010995FF91EF91BF9150
:103B7000AF919F918F917F916F915F914F913F9105
:103B80002F910F900FBE0F901F9018954F925F923C
:103B90006F927F92AF92BF92CF92DF92EF92FF929D
:103BA0000F931F93CF93DF93CDB7DEB729013A016F
:103BB0009B01AC01241935094609570989899A895D
:103BC000AB89BC89BC01CD016A197B098C099D09AF
:103BD0000E944E22A8019701241935094609570968
:103BE0000E948C22CA01B9016A0D7B1D8C1D9D1D8E
:103BF000DF91CF911F910F91FF90EF90DF90CF90C9
:103C0000BF90AF907F906F905F904F900895FC01B0
:103C100080819181009711F00C9400260895CF9334
:103C2000DF93EC0188819981009711F00E940026B2
:103C3000198218821D821C821B821A82DF91CF9109
:103C400008950F931F93CF93DF93EC018B016F5F68
:103C50007F4F888199810E948926009751F099832E
:103C600088831B830A8381E0DF91CF911F910F919D
:103C7000089580E0F9CFCF93DF93EC01888199819B
:103C8000892B49F08A819B818617970720F081E074
:103C9000DF91CF910895CE010E94211E8823C1F3A8
:103CA0008C819D81892B99F7E881F9811082EFCF72
:103CB000EF92FF920F931F93CF93DF93EC017B0161
:103CC0008A01BA010E943B1E81110BC0CE010E94E5
:103CD0000F1ECE01DF91CF911F910F91FF90EF90BA
:103CE00008951D830C83B701888199810E949327D1
:103CF000F0CFFC011182108213821282158214828D
:103D00006115710551F0FB0101900020E9F7319731
:103D1000AF01461B570B0C94581E0895FB010190F0
:103D20000020E9F73197AF01461B570B0C94581E42
:103D3000CF93DF93EC01FB018617970749F0608171
:103D400071816115710541F0448155810E94581EB1
:103D5000CE01DF91CF9108950E940F1EF9CFFC0193
:103D60001182108213821282158214820C94981E82
:103D7000CF93DF93EC016115710531F00E948E1E27
:103D8000CE01DF91CF9108950E940F1EF9CFEF92DF
:103D9000FF920F931F93CF93DF936115710541F449
:103DA00080E0DF91CF911F910F91FF90EF900895E8
:103DB00041155105B1F07B01EC010C811D81040F0F
:103DC000151FB8010E943B1E882351F328813981B9
:103DD0008C819D81B701820F931F0E9493271D83C1
:103DE0000C8381E0DECFCF93DF9300D0CDB7DEB779
:103DF00069831A8241E050E0BE016F5F7F4F0E94ED
:103E0000C71E0F900F90DF91CF910895FC01248180
:103E10003581232B31F421E0FB01672B49F4822FFC
:103E20000895808191816115710539F421E0FC01CB
:103E300080818823A1F320E0F2CF0E948A2721E02D
:103E4000892B69F3F8CFDB011496ED91FC91DC012D
:103E500014962D913C9115972E1B3F0B2417350777
:103E6000A0F02D913C912115310579F0DB016D9188
:103E70007C916115710549F0CA01AF01820F931F52
:103E80000E949A2721E0892B09F020E0822F0895D3
:103E9000FC0144815581FB01248135814217530780
:103EA00020F050E040E00C94231F80E00895CF9371
:103EB000DF93FC01248135814217530788F4C081C8
:103EC000D181062E000C770BCE01840F951F0E9426
:103ED0007F27009729F08C1B9D0BDF91CF910895D0
:103EE0008FEF9FEFFACF50E040E00C94571FAF9256
:103EF000BF92CF92DF92EF92FF920F931F93CF93D7
:103F0000DF935C016B017A0189012417350720F4E6
:103F10008F2D7901042F182F6DE874E0C5010E94E0
:103F2000791ED6011496CD91DC91EC16FD06C8F4ED
:103F30000C171D0708F4E801D601ED91FC911197CB
:103F4000EC0FFD1F108110826D917C916E0D7F1D15
:103F5000C5010E94B81EF60180819181C80FD91F4A
:103F60001883C501DF91CF911F910F91FF90EF90C2
:103F7000DF90CF90BF90AF900895AF92BF92CF9255
:103F8000DF92EF92FF920F931F93CF93DF93DC01A9
:103F9000CD90DC901197C114D10439F01496CD91D5
:103FA000DC918C017601209761F4DF91CF911F9114
:103FB0000F91FF90EF90DF90CF90BF90AF9008955A
:103FC00075015701BFEFAB1ABB0AF7018081082EBC
:103FD000000C990B0E946D27892B91F72197CC0D2E
:103FE000DD1D8881082E000C990B0E946D27892BFE
:103FF00029F0CE15DF0510F02197F3CFAE014F5F0A
:104000005F4F4E195F09D80115965C934E93149734
:10401000CE14DF0420F4B701C6010E947627D80130
:10402000ED91FC91119714968D919C91E80FF91FD9
:104030001082BBCFFC0180819181009711F00C941C
:10404000462760E070E0CB010895089590E080E09D
:10405000089508950E94FA200E9429200E94E505F3
:10406000C5EAD9E10E949E062097E1F30E94A519B6
:10407000F9CF0C9400261F920F920FB60F921124C5
:104080002F933F938F939F93AF93BF93809112068B
:1040900090911306A0911406B09115063091110667
:1040A00023E0230F2D3758F50196A11DB11D209354
:1040B00011068093120690931306A0931406B093F2
:1040C00015068091160690911706A0911806B091DA
:1040D00019060196A11DB11D80931606909317062F
:1040E000A0931806B0931906BF91AF919F918F913D
:1040F0003F912F910F900FBE0F901F90189526E8BB
:10410000230F0296A11DB11DD2CF2FB7F894609155
:1041100012067091130680911406909115062FBF18
:1041200008953FB7F8948091160690911706A091D4
:104130001806B091190626B5A89B05C02F3F19F0A7
:104140000196A11DB11D3FBFBA2FA92F982F882717
:10415000BC01CD01620F711D811D911D42E0660FF2
:10416000771F881F991F4A95D1F708958F929F92C4
:10417000AF92BF92CF92DF92EF92FF926B017C01E0
:104180000E9491204B015C01C114D104E104F104AF
:10419000E9F00E9425200E949120681979098A0976
:1041A0009B09683E73408105910570F321E0C21AB6
:1041B000D108E108F10888EE880E83E0981EA11C62
:1041C000B11CC114D104E104F10429F7FF90EF9070
:1041D000DF90CF90BF90AF909F908F9008958230E6
:1041E000910538F0880F991F880F991F059701973F
:1041F000F1F70895789484B5826084BD84B58160B8
:1042000084BD85B5826085BD85B5816085BDEEE6DE
:10421000F0E0808181608083E1E8F0E010828081BD
:1042200082608083808181608083E0E8F0E080812B
:1042300081608083E1EBF0E0808184608083E0EB4B
:10424000F0E0808181608083EAE7F0E08081846033
:10425000808380818260808380818160808380818F
:10426000806880831092C10008951F93CF93DF93DD
:10427000182FEB0161E00E94BB21209739F460E028
:10428000812FDF91CF911F910C94F721CF3FD10562
:1042900011F461E0F5CFE12FF0E0E356FB4FE4913C
:1042A000E33031F140F4E130B1F0E230E1F0C03818
:1042B000D1057CF7E4CFE73029F1E83059F1E4305B
:1042C000B1F780918000806280938000D0938B0052
:1042D000C0938A0004C084B5806884BDC7BDDF91E7
:1042E000CF911F91089584B5806284BDC8BDF7CF7A
:1042F00080918000806880938000D0938900C09373
:104300008800EDCF8091B00080688093B000C093AA
:10431000B300E5CF8091B00080628093B000C0937D
:10432000B400DDCF833081F028F4813099F0823001
:10433000A9F008958730A9F08830C9F08430B1F42D
:10434000809180008F7D03C0809180008F77809363
:104350008000089584B58F7784BD089584B58F7DDE
:10436000FBCF8091B0008F778093B000089580914B
:10437000B0008F7DF9CFCF93DF9390E0FC01EF5435
:10438000FB4F24918B539B4FFC0184918823C9F0F0
:1043900090E0880F991FFC01E351FB4FA591B49168
:1043A000FC01ED51FB4FC591D49161110DC09FB738
:1043B000F8948C91209582238C93888128232883DC
:1043C0009FBFDF91CF910895623051F49FB7F89469
:1043D0003C91822F809583238C93E8812E2BEFCF05
:1043E0008FB7F894EC912E2B2C938FBFEACF1F93AD
:1043F000CF93DF93282F30E0F901E356FB4F8491F0
:10440000F901EF54FB4FD491F901EB53FB4FC491E9
:10441000CC23A9F0162F81110E949221EC2FF0E0FD
:10442000EE0FFF1FED51FB4FA591B4918FB7F8949C
:10443000EC91111108C0D095DE23DC938FBFDF9182
:10444000CF911F910895DE2BF8CFCF93DF93282FC4
:1044500030E0F901E356FB4F8491F901EF54FB4F33
:10446000D491F901EB53FB4FC491CC23A1F08111FE
:104470000E949221EC2FF0E0EE0FFF1FE752FB4F5E
:10448000A591B491EC91ED2381E090E009F480E0F6
:10449000DF91CF91089580E090E0FACFDB018F9318
:1044A0009F930E94B122BF91AF91A29F800D911D59
:1044B000A39F900DB29F900D11240895991B79E050
:1044C00004C0991F961708F0961B881F7A95C9F7A4
:1044D00080950895A1E21A2EAA1BBB1BFD010DC0F9
:1044E000AA1FBB1FEE1FFF1FA217B307E407F507A4
:1044F00020F0A21BB30BE40BF50B661F771F881F80
:10450000991F1A9469F760957095809590959B0115
:10451000AC01BD01CF010895052E97FB1EF4009458
:104520000E94A32257FD07D00E946A2207FC03D0F5
:104530004EF40C94A32250954095309521953F4F11
:104540004F4F5F4F089590958095709561957F4F7F
:104550008F4F9F4F0895EE0FFF1F0590F491E02DB0
:1045600009940E94BC22A59F900DB49F900DA49F1A
:10457000800D911D11240895A29FB001B39FC00129
:10458000A39F700D811D1124911DB29F700D811D7F
:104590001124911D08955058BB27AA270E94E32299
:1045A0000C945D240E944F2438F00E94562420F081
:1045B00039F49F3F19F426F40C944C240EF4E09542
:1045C000E7FB0C944624E92F0E946E2458F3BA1797
:1045D000620773078407950720F079F4A6F50C9419
:1045E00090240EF4E0950B2EBA2FA02D0B01B901EB
:1045F00090010C01CA01A0011124FF27591B99F059
:10460000593F50F4503E68F11A16F040A22F232F64
:10461000342F4427585FF3CF469537952795A795B4
:10462000F0405395C9F77EF41F16BA0B620B730B5B
:10463000840BBAF09150A1F0FF0FBB1F661F771FCC
:10464000881FC2F70EC0BA0F621F731F841F48F481
:10465000879577956795B795F7959E3F08F0B0CF0A
:104660009395880F08F09927EE0F979587950895F1
:104670000E94222408F481E008950E9451230C94A2
:104680005D240E94562458F00E944F2440F029F4E3
:104690005F3F29F00C94462451110C9491240C9402
:1046A0004C240E946E2468F39923B1F3552391F3AF
:1046B000951B550BBB27AA2762177307840738F091
:1046C0009F5F5F4F220F331F441FAA1FA9F335D0EE
:1046D0000E2E3AF0E0E832D091505040E695001CA2
:1046E000CAF72BD0FE2F29D0660F771F881FBB1F5C
:1046F000261737074807AB07B0E809F0BB0B802D3A
:10470000BF01FF2793585F4F3AF09E3F510578F065
:104710000C9446240C9491245F3FE4F3983ED4F328
:10472000869577956795B795F7959F5FC9F7880F39
:10473000911D9695879597F90895E1E0660F771F8B
:10474000881FBB1F621773078407BA0720F0621B1C
:10475000730B840BBA0BEE1F88F7E09508950E9447
:10476000B6236894B1110C94912408950E94762484
:1047700088F09F5798F0B92F9927B751B0F0E1F022
:10478000660F771F881F991F1AF0BA95C9F714C0D2
:10479000B13091F00E949024B1E008950C949024DF
:1047A000672F782F8827B85F39F0B93FCCF386950B
:1047B00077956795B395D9F73EF490958095709568
:1047C00061957F4F8F4F9F4F0895E89409C097FBE5
:1047D0003EF490958095709561957F4F8F4F9F4FD8
:1047E0009923A9F0F92F96E9BB279395F69587951C
:1047F00077956795B795F111F8CFFAF4BB0F11F4DF
:1048000060FF1BC06F5F7F4F8F4F9F4F16C0882385
:1048100011F096E911C0772321F09EE8872F762FBB
:1048200005C0662371F096E8862F70E060E02AF0FC
:104830009A95660F771F881FDAF7880F96958795E8
:1048400097F90895990F0008550FAA0BE0E8FEEFBD
:1048500016161706E807F907C0F012161306E40744
:10486000F50798F0621B730B840B950B39F40A263D
:1048700061F0232B242B252B21F408950A2609F41B
:10488000A140A6958FEF811D811D089597F99F671F
:1048900080E870E060E008959FEF80EC08950024C8
:1048A0000A941616170618060906089500240A9495
:1048B00012161306140605060895092E0394000C1B
:1048C00011F4882352F0BB0F40F4BF2B11F460FFAA
:1048D00004C06F5F7F4F8F4F9F4F089557FD9058D3
:1048E000440F551F59F05F3F71F04795880F97FBB4
:1048F000991F61F09F3F79F087950895121613066E
:104900001406551FF2CF4695F1DF08C0161617069C
:104910001806991FF1CF86957105610508940895D1
:10492000E894BB2766277727CB0197F908950E9463
:10493000222408F48FEF08950E94AF240C945D2484
:104940000E944F2438F00E94562420F0952311F045
:104950000C9446240C944C2411240C9491240E9411
:104960006E2470F3959FC1F3950F50E0551F629F21
:10497000F001729FBB27F00DB11D639FAA27F00DB8
:10498000B11DAA1F649F6627B00DA11D661F829FDF
:104990002227B00DA11D621F739FB00DA11D621FC4
:1049A000839FA00D611D221F749F3327A00D611DE1
:1049B000231F849F600D211D822F762F6A2F1124C3
:1049C0009F5750409AF0F1F088234AF0EE0FFF1FF6
:1049D000BB1F661F771F881F91505040A9F79E3F4D
:1049E000510580F00C9446240C9491245F3FE4F32D
:1049F000983ED4F3869577956795B795F795E795A3
:104A00009F5FC1F7FE2B880F911D9695879597F9AB
:104A1000089519F416F40C944C240C944F250E941C
:104A20007624B8F39923C9F3B6F39F57550B87FF44
:104A30000E945D250024A0E640EA9001805856952A
:104A4000979528F4805C660F771F881F20F0261743
:104A50003707480730F4621B730B840B2029312978
:104A60004A2BA69517940794202531254A2758F7F5
:104A7000660F771F881F20F026173707480730F486
:104A8000620B730B840B200D311D411DA09581F726
:104A9000B901842F9158880F9695879508959F3F67
:104AA00031F0915020F4879577956795B795880FE9
:104AB000911D9695879597F9089591505040660FEE
:104AC000771F881FD2F708950F931F93CF93DF931B
:104AD0008230910510F482E090E0E0911C06F091A4
:104AE0001D0630E020E0B0E0A0E0309799F42115F9
:104AF000310509F44AC0281B390B24303105D8F59B
:104B00008A819B816115710589F1FB019383828301
:104B1000FE0111C04081518102811381481759075C
:104B2000E0F04817590799F4109761F012960C932A
:104B3000129713961C933296CF01DF91CF911F915C
:104B40000F91089500931C0610931D06F4CF2115B4
:104B5000310551F04217530738F0A901DB019A01E2
:104B6000BD01DF01F801C1CFEF01F9CF90931D0620
:104B700080931C06CDCFFE01E20FF31F819391932A
:104B80002250310939832883D7CF20911A063091DA
:104B90001B06232B41F42091020130910301309335
:104BA0001B0620931A062091000130910101211566
:104BB000310541F42DB73EB74091040150910501F4
:104BC000241B350BE0911A06F0911B06E217F30740
:104BD000A0F42E1B3F0B2817390778F0AC014E5F6D
:104BE0005F4F2417350748F04E0F5F1F50931B0689
:104BF00040931A06819391939FCFF0E0E0E09CCF21
:104C0000CF93DF930097E9F0FC0132971382128271
:104C1000A0911C06B0911D06ED0130E020E0109738
:104C2000A1F420813181820F931F20911A063091C7
:104C30001B062817390709F061C0F0931B06E093A3
:104C40001A06DF91CF910895EA01CE17DF07E8F544
:104C50004A815B819E0141155105B1F7E901FB8352
:104C6000EA8349915991C40FD51FEC17FD0761F4F0
:104C7000808191810296840F951FE9019983888331
:104C8000828193819B838A83F0E0E0E012968D918C
:104C90009C9113970097B9F52D913C911197CD01F7
:104CA0000296820F931F20911A0630911B06281737
:104CB000390739F6309751F510921D0610921C06EF
:104CC000B0931B06A0931A06BCCFD383C283408146
:104CD0005181840F951FC817D90761F44E5F5F4F4C
:104CE00088819981480F591F518340838A819B8114
:104CF000938382832115310509F0B0CFF0931D060F
:104D0000E0931C069ECFFD01DC01C0CF138212820E
:104D1000D7CFB0E0A0E0EFE8F6E20C94E7278C01F3
:104D2000009751F4CB010E9464258C01C801CDB7D6
:104D3000DEB7E0E10C940328FC01E60FF71F9C01AD
:104D400022503109E217F30708F49DC0D901CD9133
:104D5000DC911197C617D70798F0C530D10530F30D
:104D6000CE0104978617970708F3C61BD70B229727
:104D7000C193D1936D937C93CF010E940026D6CF2F
:104D80005B01AC1ABD0A4C018C0E9D1EA0911C0645
:104D9000B0911D06512C412CF12CE12C109731F5CE
:104DA00080911A0690911B068815990509F05CC040
:104DB0004616570608F058C08091000190910101F5
:104DC000009741F48DB79EB74091040150910501C1
:104DD000841B950BE817F90708F055C0F0931B06E4
:104DE000E0931A06F90171836083A0CF8D919C91A5
:104DF000119712966C90129713967C901397A815A2
:104E0000B90559F56C0142E0C40ED11CCA14DB048B
:104E100020F1AC014A195B09DA011296159780F06E
:104E20006282738251834083D9016D937C93E11434
:104E3000F10471F0D7011396FC93EE93129776CF9D
:104E400022968C0F9D1FF90191838083F301EFCF90
:104E5000F0931D06E0931C0669CF4816590608F426
:104E60002C017D01D3019ACFCB010E9464257C01E6
:104E7000009749F0AE01B8010E947627C8010E9450
:104E80000026870153CF10E000E050CF1F93FC01B4
:104E900099278827BC01E89411911032E9F3193061
:104EA00010F01E30C8F31B3251F01D3249F46894E3
:104EB00006C00E94B727610F711D811D911D1191C0
:104EC00010531A30B0F33EF490958095709561952B
:104ED0007F4F8F4F9F4F1F91089591110C94CC27B6
:104EE000803219F089508550C8F70895FB01DC0124
:104EF00002C001900D9241505040D8F70895FC0136
:104F00008191861721F08823D9F799270895319741
:104F1000CF010895FB01DC018D91019080190110F2
:104F2000D9F3990B0895FB01DC0101900D9200204B
:104F3000E1F70895FB01DC014150504030F08D91C4
:104F40000190801919F40020B9F7881B990B089576
:104F5000FB01DC014150504048F001900D920020CF
:104F6000C9F701C01D9241505040E0F70895592FF4
:104F7000482F372F262F660F771F881F991F660F20
:104F8000771F881F991F620F731F841F951F660F5D
:104F9000771F881F991F0895992788270895F999E1
:104FA000FECF92BD81BDF89A992780B50895262F2E
:104FB000F999FECF1FBA92BD81BD20BD0FB6F894FE
:104FC000FA9AF99A0FBE019608952F923F924F9246
:104FD0005F926F927F928F929F92AF92BF92CF9289
:104FE000DF92EF92FF920F931F93CF93DF93CDB792
:104FF000DEB7CA1BDB0B0FB6F894DEBF0FBECDBF0A
:1050000009942A88398848885F846E847D848C84DA
:105010009B84AA84B984C884DF80EE80FD800C81E3
:105020001B81AA81B981CE0FD11D0FB6F894DEBFC6
:0C5030000FBECDBFED010895F894FFCF36
:10503C0000001E062000FF771D771D3F0066776479
:10504C000072657600736F6C3100736F6C32006F99
:10505C006E006F66660070756C7365200074657306
:10506C00742000302E352E300070696E6700686534
:10507C006C70007374617475730073746F7000706E
:10508C006172616D73006765742000736574200034
:10509C007374756666007374657020007374657044
:1050AC007065722000707265737320007075736880
:1050BC0065722000736572766F2000736F6C656E7D
:1050CC006F696420312000736F6C656E6F696420AA
:1050DC00322000686F7070657220006B6E6F636BAE
:1050EC00006B6E6F636B200070726573735F667715
:1050FC00645F74696D656F75740070726573735F4E
:10510C007265765F73616665747900707573686536
:10511C00725F6677645F74696D656F757400707526
:10512C00736865725F7265765F74696D656F7574AF
:10513C0000656A6563745F6F76657274726176651B
:10514C006C00686F6D655F6472756D5F74696D6519
:10515C006F75740069646C6500686F6D696E6700CB
:10516C007374756666696E6700737465700065723A
:10517C00726F720024022902300239023E02756EEF
:10518C006B6E6F776E0072616E6765006472756D21
:10519C005F73746570735F7065725F706F730068B6
:1051AC006F6D655F6472756D5F74696D656F757435
:1051BC005F6D7300736572766F5F686F6D650073FA
:1051CC006572766F5F6C6F6164006375745F686F96
:1051DC006D65006375745F637574006375745F64EB
:1051EC0077656C6C5F6D73006B6E6F636B5F6F6E6E
:1051FC005F6D73006B6E6F636B5F6F66665F6D7375
:10520C00006B6E6F636B5F6379636C657300686FC3
:10521C00707065725F6F6E5F6D7300686F70706534
:10522C00725F6F66665F6D730070726573735F7229
:10523C0065765F6D730070726573735F6677645F1C
:10524C0074696D656F75745F6D73007072657373DF
:10525C005F70776D007075736865725F6677645FF9
:10526C0074696D656F75745F6D73007075736865C7
:10527C00725F7265765F74696D656F75745F6D735F
:10528C00007075736865725F70776D00656A656331
:10529C00745F6677645F6D7300736F6C315F6477F6
:1052AC00656C6C5F6D7300736F6C325F6477656CEB
:1052BC006C5F6D7300737465705F64656C61795FAE
:1052CC006D73005C02010300010010276F020105E1
:1052DC0000640060EA84020007000000B4008F0242
:1052EC000008000000B4009A020009000000B4009D
:1052FC00A302000A000000B400AB02010B00000086
:10530C00D007B802010D000100E803C402010F0030
:10531C000100D007D10200110001003200DE0201B1
:10532C001200640060EAEB02011400640060EAF908
:10533C0002011600320010270603011800640098C1
:10534C003A1B03001A003C00FF002503011B0064FC
:10535C000010273B03011D00640010275103001FA0
:10536C00003C00FF005C030120003200881369033D
:10537C000122000100E80377030124000100E80387
:10538C0085030126000000102700000000DB13F944
:10539C0013C6104D13C710E51220124F13231365BB
:1053AC00138613BA136012B61200000000F51933FD
:0E53BC001B9619D5196819821974190D0A006B
:00000001FF
