:100000000C94BE020C94F31E0C941A1F0C94E6027E
:100010000C94E6020C94E6020C94E6020C94961EF4
:100020000C94E6020C94E6020C94E6020C946A1816
:100030000C94E6020C94E6020C94E6020C94E602A0
:100040000C94B6210C94E6020C94191C0C944B1CD5
:100050000C94E6020C94E6020C94E6020C94E60280
:100060000C94E6020C94E6027761726E207761745C
:100070006368646F675F74696D656F757400747928
:100080007065202768656C702720666F7220636F2B
:100090006D6D616E6473007265616479206669726A
:1000A0006D776172653D0065727220756E6B6E6F63
:1000B000776E5F636F6D6D616E643A006F6B206B7E
:1000C0006E6F636B20006F6B20637574006F6B2025
:1000D0006B6E6F636B006F6B20736572766F2000C1
:1000E0006F6B2070757368657220006F6B20707283
:1000F00065737320006F6B20737465707065722078
:100100000065727220006F6B20006572722075733B
:100110006167653A736574203C6B65793E203C7677
:10012000616C75653E0065727220756E6B6E6F77DF
:100130006E3A006F6B2000706F6E67006572722000
:10014000686F707065725F616374696F6E3A006F9B
:100150006B20686F70706572207465737420006521
:10016000727220686F707065725F746573745F6D12
:10017000733A312E2E006F6B20686F707065723D80
:100180006F6666006F6B20686F707065723D637993
:10019000636C69630065727220736F6C5F61637476
:1001A000696F6E3A002070756C736520006F6B206C
:1001B000006572722070756C73655F6D733A312ED5
:1001C0002E00206F6666006F6B2000657272206FD4
:1001D0006E5F64697361626C656420006572722091
:1001E00062757379206D6F64653D003D3D3D3D3D19
:1001F0003D3D3D3D3D3D3D3D3D3D3D3D3D3D3D3D2F
:100200003D3D3D3D00637574202020285363686E9A
:100210006569647A796B6C75733A204B6C696E67AB
:10022000652072756E7465722F7665727765696C7C
:10023000656E2F686F636829006B6E6F636B205B60
:100240003C6379636C65733E5D00686F70706572C6
:10025000206F6E7C6F66667C74657374203C6D7372
:100260003E202020286F6E203D203130732F323009
:1002700073204379636C652900736F6C656E6F69D9
:100280006420317C32206F66667C70756C736520EB
:100290003C6D733E2020202844617565722D4F4EC1
:1002A000206465616B746976696572742900736591
:1002B00072766F203C302E2E3138303E00707573D0
:1002C000686572206677647C7265767C73746F7083
:1002D000202850574D2061757320706172616D73D5
:1002E0002E7075736865725F70776D290070726526
:1002F0007373206677647C7265767C73746F70208C
:10030000202850574D2061757320706172616D73A4
:100310002E70726573735F70776D290073746570EA
:10032000706572203C73746570733E00686F6D6514
:10033000207C207374756666207C20737465702041
:100340003C312E2E31323E207C2073746F70007051
:100350006172616D73207C20676574203C6B3E2068
:100360007C20736574203C6B3E203C763E007069B7
:100370006E67207C20737461747573207C206865BF
:100380006C70003D3D3D2053746F70666D6173630A
:1003900068696E652076302E35203D3D3D00207326
:1003A0007465707065725F706F733D002065727266
:1003B0005F6D61673D00206572725F70723D002065
:1003C0006572725F70663D00206572725F70726563
:1003D00073733D00206572725F743D002065727218
:1003E0005F737465703D0020657272636E743D00CA
:1003F00020636E743D00206375743D0020686F704B
:100400007065725F656E61626C65643D0020686F47
:10041000707065723D0020736F6C323D0020736F09
:100420006C313D00206D6167617A696E3D0020701E
:100430007573685F726561723D0020707573685FE7
:1004400066726F6E743D002070726573733D00209C
:100450006572726F723D0020737465703D00737435
:10046000617475732073746174653D006F6B2073E4
:10047000746F70006F6B20737465703D00657272ED
:1004800020737465705F72616E67653A312E2E005D
:100490006572722062757379006F6B207374756674
:1004A00066696E67006572722062757379006F6BA2
:1004B00020686F6D696E670065727220627573796E
:1004C000006F6B20686F6D655F646F6E6500206DF7
:1004D0006167617A696E3D0020707573685F72654F
:1004E00061723D0020707573685F66726F6E743D57
:1004F000002070726573733D0020743D002073749A
:1005000065703D006572722073657175656E636517
:100510003A006F6B20706172616D73000200000021
:1005200008000201000003040700000000000000B2
:10053000000102040810204080010204081020017C
:100540000204081020040404040404040402020247
:10055000020202030303030303000000002300263A
:1005600000290000000000250028002B00000000EA
:1005700000240027002A000076077B1C11241FBEE0
:10058000CFEFD8E0DEBFCDBF14E0A0E0B1E0E2E302
:10059000F3E502C005900D92AE38B107D9F726E019
:1005A000AEE8B4E001C01D92AB32B207E1F712E051
:1005B000CEEBD2E004C02197FE010E942624CC3B62
:1005C000D107C9F70E94A5210C9497290C9400002B
:1005D00061E084E00E94722360E087E00E94722361
:1005E00060E088E00E94722360E089E00E9472234C
:1005F00060E08AE00E94722370E060E085E00E9483
:10060000B02270E060E086E00E94B02260E082E10B
:100610000E94722360E08DE00E94722360E08CE013
:100620000C94722386E994E00C94821F0F931F931D
:1006300047E150E0BC018EEB94E00E942329109228
:10064000D5048091DA048093B9040E9400220091BD
:10065000D6041091D7042091D8043091D904601B9E
:10066000710B820B930B6093B5047093B604809367
:10067000B7049093B8048EE00E94A02321E0892B58
:1006800009F020E02093B4048FE00E94A02321E031
:10069000892B09F020E02093B30480E10E94A0237D
:1006A00021E0892B09F020E02093B20483E10E942D
:1006B000A02321E0019709F020E02093B10480916C
:1006C000BA049091BB0401969093BB048093BA0442
:1006D00084E08093DB040E94E8021092A40464E0AA
:1006E00075E08AE795E00E94E41C6EEB74E08AE70F
:1006F00095E00E94161D6DEF74E08AE795E00E9478
:10070000E41C4AE050E06091B9048AE795E00E9459
:10071000301E69EF74E08AE795E00E94E41C409186
:10072000B5045091B6046091B7047091B8042AE002
:1007300030E08AE795E00E94231E61EF74E08AE7CB
:1007400095E00E94E41C6091B40470E04AE050E03F
:100750008AE795E00E94F81D64EE74E08AE795E070
:100760000E94E41C6091B30470E04AE050E08AE724
:1007700095E00E94F81D68ED74E08AE795E00E941C
:10078000E41C6091B20470E04AE050E08AE795E032
:100790000E94F81D6EEC74E08AE795E00E94E41C6C
:1007A0006091B10470E04AE050E08AE795E01F9163
:1007B0000F910C94FF1D8091DB048823C9F06CED30
:1007C00071E08AE795E00E94E41CE091DB046BE0B5
:1007D00071E0E53038F4F0E0EE0FFF1FEC5BFD4F09
:1007E000608171818AE795E00E944D1D80E0089547
:1007F00081E00895CF93DF93EC016DE071E00E94FA
:100800000529892B81F461E087E00E94722360E072
:1008100088E00E9472236091450570E085E0DF91D9
:10082000CF910C94B02261E171E0CE010E940529C4
:1008300060E0892B29F487E00E94722361E0E8CF11
:1008400087E00E94722360E088E00E94722370E0DB
:1008500060E0E4CFCF93DF93EC016DE071E00E94A4
:100860000529892B81F461E089E00E94722360E010
:100870008AE00E94722360914A0570E086E0DF9171
:10088000CF910C94B02261E171E0CE010E94052964
:1008900060E0892B29F489E00E94722361E0E8CFAF
:1008A00089E00E94722360E08AE00E94722370E077
:1008B00060E0E4CFCF93C82F8093DA040E94002237
:1008C0006093D6047093D7048093D8049093D9048E
:1008D000C83009F483C0C0F4C43009F45FC048F4E0
:1008E000C23009F450C008F056C0C130A9F1CF9110
:1008F0000895C63061F18DE091E0C73050F18DE090
:1009000091E0CF910C942A04C53609F46AC0C0F472
:10091000CA3009F463C098F3CB3049F71092A904A8
:100920000E9400226093A5047093A6048093A704FC
:100930009093A8046091350570E081EE94E028C0A2
:10094000C73609F45FC008F449C0C83681F681E1B2
:1009500091E0CF910C94FA0360E084E00E9472234E
:1009600040E050E068E474E487EE94E00E940817E9
:1009700040912E0550912F0570E060E087EE94E0E5
:10098000CF910C9448166091330570E084EE94E0AA
:10099000CF910C94FC1960913205F7CF1092B004FE
:1009A00081E08093AF040E9400226093AB047093B7
:1009B000AC048093AD049093AE048091AA0481119D
:1009C00002C080913C058093AA0461E082E10E940C
:1009D000722361E08DE0CF910C94722381E191E06C
:1009E00090CF60E084E00E94722340E050E066E92E
:1009F00073E487EE94E00E94081740E253E060E061
:100A000070E0BCCF6091320570E084EE94E00E940B
:100A1000FC196091340590CF8091DB04833029F478
:100A20001092DB041092DA040895823089F48091E8
:100A3000DA048F5F8D3050F08091BC049091BD043A
:100A400001969093BD048093BC0481E00C945A04F9
:100A50008130E9F48091DA04863659F018F485364D
:100A600031F00895873639F0883639F0089586E6F2
:100A7000EDCF87E6EBCF88E6E9CF1092DB0410924A
:100A8000DA0461EC74E08AE795E00C94291D08957E
:100A9000CF93DF93EC01FB01248135810E94F2208A
:100AA000CE01DF91CF9108958F929F92AF92BF9226
:100AB000CF92DF92FF920F931F93CF93DF9300D0DB
:100AC00000D000D0CDB7DEB7F82E8B0122E19AE13D
:100AD000C92E91E0D92E821304C085E1C82E81E091
:100AE000D82E6FE171E0C8010E948120882309F1AE
:100AF00060E08F2D0E9472236BEC71E08AE795E035
:100B00000E94E41CB6018AE795E00E944D1D2696DE
:100B10000FB6F894DEBF0FBECDBFDF91CF911F910E
:100B20000F91FF90DF90CF90BF90AF909F908F90EC
:100B3000089562E271E0C8010E9481208823B1F02B
:100B400060E08F2D0E94722367EC71E08AE795E0E8
:100B50000E94E41CB6018AE795E00E94161D62EC33
:100B600071E08AE795E00E94291DD1CF66E271E02D
:100B7000CE0101960E94F41FBE016F5F7F4FC80136
:100B80000E94C320B82ECE0101960E94821FBB2076
:100B900009F44EC046E050E0B801CE0101960E9433
:100BA0004805CE0101960E9495214B015C01CE01C2
:100BB00001960E94821FD501C4010197A109B109C4
:100BC000883E9340A105B10588F061EB71E08AE7AA
:100BD00095E00E94E41C2AE030E048EE53E060E03B
:100BE00070E08AE795E00E944F1E91CF61E08F2D63
:100BF0000E947223C501B4010E94312260E08F2D52
:100C00000E9472236DEA71E08AE795E00E94E41C7D
:100C1000B6018AE795E00E94161D65EA71E08AE751
:100C200095E00E94E41C2AE030E0B501A401D9CF90
:100C300065E971E08AE795E00E94E41CB8018AE763
:100C400095E00E943B1D63CFCF92DF92EF92FF921F
:100C50000F931F93CF93DF9300D000D000D0CDB778
:100C6000DEB78C016FE171E00E948120882311F1D1
:100C700081E08093A4040E9400226093A0047093FA
:100C8000A1048093A2049093A30464E871E08AE72E
:100C900095E00E94291D26960FB6F894DEBF0FBE80
:100CA000CDBFDF91CF911F910F91FF90EF90DF901B
:100CB000CF90089562E271E0C8010E9481208823EC
:100CC00089F01092A40410929C0410929D0410923A
:100CD0009E0410929F0460E08CE00E94722366E7FD
:100CE00071E0D5CF6DE271E0CE0101960E94F41F54
:100CF000BE016F5F7F4FC8010E94C320F82ECE0156
:100D000001960E94821FFF2009F445C045E050E093
:100D1000B801CE0101960E944805CE0101960E94BD
:100D200095216B017C01CE0101960E94821FD701A3
:100D3000C6010197A109B109803A9F40A105B105FB
:100D400088F06FE571E08AE795E00E94E41C2AE0F4
:100D500030E040EA5FE060E070E08AE795E00E9402
:100D60004F1E99CF0E9400226C0D7D1D8E1D9F1D70
:100D700060939C0470939D0480939E0490939F04C1
:100D80006FE471E08AE795E00E94E41C2AE030E01D
:100D9000B701A601E2CF6CE371E08AE795E00E941B
:100DA000E41CB8018AE795E00E943B1D74CFCF9305
:100DB000DF9326E040E052EC61E070E08AE795E0E6
:100DC0000E94B71B0E945A1161E084E00E94362302
:100DD00061E087E00E94362361E088E00E943623CC
:100DE00061E089E00E94362361E08AE00E943623B8
:100DF00061E085E00E94362361E086E00E943623B0
:100E000061E082E10E94362361E08DE00E9436239A
:100E100061E08CE00E94362360E082E10E94722350
:100E200060E08DE00E94722360E08CE00E947223FB
:100E300060E08EE00E94362360E08FE00E9436235F
:100E400060E080E10E94362362E083E10E94362365
:100E500040E050E068E474E487EE94E00E940817F4
:100E600040E050E86BEB74E487EE94E00E94E817F2
:100E70006BE070E084EE94E00E94BF19CBE2D5E015
:100E80006F8170E084EE94E00E94FC1961E170E0F3
:100E900081EE94E00E94BF19698570E081EE94E0D4
:100EA0000E94FC190E94E8020E9400226093DD0467
:100EB0007093DE048093DF049093E0048AE795E06A
:100EC0000E94251D67E970E08AE795E00E94E41C16
:100ED00063E371E08AE795E00E944D1D6EE770E0E4
:100EE0008AE795E0DF91CF910C94291DCF92EF9284
:100EF0000F93CC24C39485E0E82E04E023E042E085
:100F000061E087EE94E00E947E1784EE94E00E94F8
:100F1000251981EE94E00F91EF90CF900C94251954
:100F20008F929F92AF92BF92CF92DF92EF92FF92F9
:100F30000F931F93CF93DF93CDB7DEB768970FB6AC
:100F4000F894DEBF0FBECDBF80918E0481110DC01D
:100F50006DE874E086E994E00E94F41F81E08093DC
:100F60008E0482E193E00E94A12193E0F92E22E019
:100F7000D22EEE24E3948AE795E00E94DD1A18163B
:100F800019060CF0FDC58AE795E00E94F71A8A3031
:100F900019F08D3009F0E6C580919A0490919B0478
:100FA000892B49F366E974E0CE0143960E942A201A
:100FB000CE0143960E9438218F89988D892B09F4A0
:100FC0002DC20E9400226093DD047093DE048093A2
:100FD000DF049093E0041092DC0469E371E0CE0139
:100FE00043960E94812067E371E0811153C06EE354
:100FF00071E0CE0143960E948120882309F44FC0FE
:1010000063E873E08AE795E00E94291D6EE673E0CD
:101010008AE795E00E94291D6FE473E08AE795E076
:101020000E94291D6CE273E08AE795E00E94291D69
:101030006CE173E08AE795E00E94291D6DEE72E095
:101040008AE795E00E94291D6DEB72E08AE795E042
:101050000E94291D6EEA72E08AE795E00E94291D30
:1010600069E772E08AE795E00E94291D6AE472E070
:101070008AE795E00E94291D69E372E08AE795E01E
:101080000E94291D65E072E08AE795E00E94291D13
:101090006BEE71E08AE795E00E94291DBFC163E411
:1010A00071E0CE0143960E948120882309F473C128
:1010B0008EE00E94A023BB24B394892B09F0B12CAD
:1010C0008FE00E94A023CC24C394892B09F0C12C6B
:1010D00080E10E94A02301E0892B09F000E083E178
:1010E0000E94A02311E0019709F010E06EE574E082
:1010F0008AE795E00E94E41CE091DB046BE071E07C
:10110000E53038F4F0E0EE0FFF1FEC5BFD4F60813F
:1011100071818AE795E00E94161D67E574E08AE711
:1011200095E00E94E41C4AE050E06091DA048AE70E
:1011300095E00E94301E6FE474E08AE795E00E941B
:10114000E41C8091BE046DE874E0882311F06EEB1E
:1011500074E08AE795E00E94161D67E474E08AE770
:1011600095E00E94E41C6B2D70E04AE050E08AE7B5
:1011700095E00E94F81D6AE374E08AE795E00E941A
:10118000E41C6C2D70E04AE050E08AE795E00E9494
:10119000F81D6EE274E08AE795E00E94E41C602F7F
:1011A00070E04AE050E08AE795E00E94F81D64E2B2
:1011B00074E08AE795E00E94E41C612F70E04AE049
:1011C00050E08AE795E00E94F81D6DE174E08AE73F
:1011D00095E00E94E41C82E10E94A0234AE050E0D6
:1011E000BC018AE795E00E94F81D66E174E08AE799
:1011F00095E00E94E41C8DE00E94A0234AE050E0AC
:10120000BC018AE795E00E94F81D6DE074E08AE772
:1012100095E00E94E41C8CE00E94A0234AE050E08C
:10122000BC018AE795E00E94F81D6CEF73E08AE745
:1012300095E00E94E41C6091A40470E04AE050E054
:101240008AE795E00E94F81D66EF73E08AE795E073
:101250000E94E41C81EE94E00E94781A4AE050E07B
:10126000BC018AE795E00E94F81D60EF73E08AE711
:1012700095E00E94E41C6091BC047091BD044AE0BA
:1012800050E08AE795E00E94491E67EE73E08AE726
:1012900095E00E94E41C6091BA047091BB044AE09E
:1012A00050E08AE795E00E94491E8091BE048823A1
:1012B00009F45EC06CED73E08AE795E00E94E41CDF
:1012C0004AE050E06091B9048AE795E00E94301E40
:1012D00064ED73E08AE795E00E94E41C4091B50458
:1012E0005091B6046091B7047091B8042AE030E0E0
:1012F0008AE795E00E94231E68EC73E08AE795E098
:101300000E94E41C6091B40470E04AE050E08AE777
:1013100095E00E94F81D6FEB73E08AE795E00E946C
:10132000E41C6091B30470E04AE050E08AE795E085
:101330000E94F81D66EB73E08AE795E00E94E41CCA
:101340006091B20470E04AE050E08AE795E00E94C4
:10135000F81D6CEA73E08AE795E00E94E41C609156
:10136000B10470E04AE050E08AE795E00E94F81D81
:101370006EE973E08AE795E00E94E41C87EE94E052
:101380000E94BB16AB01BC012AE030E08AE795E081
:101390000E94111E43C06AE471E0CE0143960E9490
:1013A0008120882389F10E94E8026091340570E071
:1013B00081EE94E00E94FC1987EE94E00E940C18E4
:1013C00040E050E0BA0187EE94E00E94481640E009
:1013D00050E068E474E487EE94E00E9408171092ED
:1013E000AA041092A40410929C0410929D041092DE
:1013F0009E0410929F041092DB041092DA04109263
:10140000BE046CE674E046CE6FE471E0CE01439614
:101410000E948120882369F00E94F811CE01439632
:101420000E94821F6DE874E086E994E00E943320F8
:10143000A2CD66E571E0CE0101960E94F41FBE01C7
:101440006F5F7F4FCE0143960E94C320182FCE01BD
:1014500001960E94821F112309F443C044E050E02A
:10146000BE016D5E7F4FCE0101960E944805CE0100
:1014700001960E943821BE01695F7F4FCE0101961F
:101480000E94D5118823F9F063E371E08AE795E0C3
:101490000E94E41CBE016F5F7F4F8AE795E00E94C7
:1014A000081D6DE38AE795E00E941E1D4F81588557
:1014B00069857A852AE030E08AE795E00E94111E6E
:1014C000CE01019640C066E271E08AE795E00E9495
:1014D000E41CBE016F5F7F4F8AE795E00E943B1DD1
:1014E000EFCF6BE571E0CE0101960E94F41FBE01C3
:1014F0006F5F7F4FCE0143960E94C320182FCE010D
:1015000001960E94821F112309F485C044E050E037
:10151000BE016D5E7F4FCE010D960E944805CE0143
:101520000D960E94382160E2CE010D960E94EE20B9
:101530008C0197FF0BC06AE071E08AE795E00E949A
:10154000291DCE010D960E94821F68CF9C0150E09C
:1015500040E0BE01635F7F4FCE0107960E94F220FC
:10156000A8014F5F5F4FBE01635F7F4FCE010196C1
:101570000E944805CE0101960E9495214B015C0115
:10158000CE0101960E94821F8DE894E09A838983A0
:101590009E012F5F3F4FB501A401CE0107960E9427
:1015A00098118823F9F066E071E08AE795E00E94DF
:1015B000E41CBE01695F7F4F8AE795E00E94081D29
:1015C0006DE38AE795E00E941E1D2AE030E0B50138
:1015D000A4018AE795E00E94111ECE0107960E94A1
:1015E000821FAFCF61E071E08AE795E00E94E41CC2
:1015F00069817A818AE795E00E94161D6AE38AE78D
:1016000095E00E941E1DBE01695F7F4F8AE795E04D
:101610000E943B1DE2CF6AE872E0CE0143960E9431
:101620008120882399F08091DB048B7F68EB74E044
:1016300009F030CD1092BE04E092DB041092A404B5
:1016400085E60E945A046EEA74E024CD60E671E0FB
:10165000CE0143960E9481208823E9F08091DB042B
:101660008B7F65EA74E009F015CD1092BE04D0922C
:10167000DB04E092A4040E9400226093A004709313
:10168000A1048093A2049093A30481E00E945A04D1
:1016900069E974E0FFCC66E671E0CE0101960E9434
:1016A000F41FBE016F5F7F4FCE0143960E94C3209F
:1016B000182FCE0101960E94821F1123E1F145E00F
:1016C00050E0BE016D5E7F4FCE0101960E9448053D
:1016D000CE0101960E949521162F8091DB048B7F0D
:1016E00039F060E974E08AE795E00E94291DE8CEB0
:1016F0008FEF810F8C3070F06DE774E08AE795E032
:101700000E94E41C4AE050E06CE08AE795E00E9409
:10171000371ED6CE1092BE04F092DB04812F0E94B9
:101720005A0464E774E08AE795E00E94E41C4AE00A
:1017300050E0612FEACF6CE671E0CE0101960E9485
:10174000F41FBE016F5F7F4FCE0143960E94C320FE
:10175000182FCE0101960E94821F1123A9F10E9429
:10176000DB03882309F45ACE48E050E0BE016D5EE9
:101770007F4FCE0101960E944805CE0101960E943E
:1017800095214B015C01CE0101960E94821F60E011
:1017900084E00E94722340E050E068E474E487EE45
:1017A00094E00E940817B501A40187EE94E00E941E
:1017B000481665EF70E08AE795E00E94E41C2AE095
:1017C00030E0B501A401E2CD65E771E0CE010196FC
:1017D0000E94F41FBE016F5F7F4FCE0143960E94AF
:1017E000C320182FCE0101960E94821F1123C9F039
:1017F0000E94DB03882309F411CE46E050E0BE01CD
:101800006D5E7F4FCE0101960E944805CE01019684
:101810000E94382189819A810E94FA036BEE70E060
:1018200054CE6CE771E0CE0101960E94F41FBE0118
:101830006F5F7F4FCE0143960E94C320182FCE01C9
:1018400001960E94821F1123C9F00E94DB038823A6
:1018500009F4E4CD47E050E0BE016D5E7F4FCE015C
:1018600001960E944805CE0101960E943821898187
:101870009A810E942A0460EE70E027CE64E871E04D
:10188000CE0101960E94F41FBE016F5F7F4FCE0113
:1018900043960E94C320182FCE0101960E94821FFA
:1018A000112309F457C00E94DB03882309F4B6CD45
:1018B00046E050E0BE016D5E7F4FCE0101960E9472
:1018C0004805CE0101960E94952110E000E097FDA9
:1018D0002AC046E050E0BE016D5E7F4FCE01079604
:1018E0000E944805CE0107960E94952104EB10E066
:1018F000653B71058105910594F446E050E0BE0119
:101900006D5E7F4FCE010D960E944805CE010D966B
:101910000E9495218B01CE010D960E94821FCE015F
:1019200007960E94821FCE0101960E94821FB80175
:1019300084EE94E00E94FC1966ED70E08AE795E081
:101940000E94E41C4AE050E0B8018AE795E00E945A
:10195000FF1D64CD6BE871E0CE0101960E94F41F7B
:10196000BE016F5F7F4FCE0143960E94C320182FA8
:10197000CE0101960E94821F1123A9F00E94DB0371
:10198000882309F44BCD4BE050E0BE016D5E7F4FE4
:10199000CE0101960E944805BE016F5F7F4F82E134
:1019A0000E9454058DCD67E971E0CE0101960E9439
:1019B000F41FBE016F5F7F4FCE0143960E94C3208C
:1019C000182FCE0101960E94821F112399F00E94C8
:1019D000DB03882309F422CD4BE050E0BE016D5EAD
:1019E0007F4FCE0101960E944805BE016F5F7F4F79
:1019F0008DE0D6CF63EA71E0CE0101960E94F41F1C
:101A0000BE016F5F7F4FCE0143960E94C320182F07
:101A1000CE0101960E94821F112301F147E050E0A0
:101A2000BE016D5E7F4FCE0101960E944805CE013A
:101A300001960E94382162E271E0CE0101960E9477
:101A40008120882329F0CE0101960E94240638CDFA
:101A50000E94DB03882309F433CDF5CF6BEA71E0F4
:101A6000CE0143960E948120882389F00E94DB03E7
:101A7000882309F4D3CC1092AA041092BE04F092E9
:101A8000DB0484E00E945A046DEC70E003CB67EA4B
:101A900072E0CE0143960E948120882379F00E9453
:101AA000DB03882309F4BACC1092BE04F092DB0465
:101AB0008BE00E945A0466EC70E0ECCA61EB71E0C6
:101AC000CE0101960E94F41FBE016F5F7F4FCE01D1
:101AD00043960E94C320182FCE0101960E94821FB8
:101AE000112391F10E94DB03882309F497CC46E08F
:101AF00050E0BE016D5E7F4FCE0101960E94480509
:101B0000CE0101960E949521162FCE0101960E94CA
:101B1000821F111102C010913C051093AA0410926B
:101B2000BE04F092DB0484E00E945A046CEB70E087
:101B30008AE795E00E94E41C4AE050E0612F8AE7C2
:101B400095E00E94371E6ACC67EA70E08AE795E06C
:101B50000E94E41CBE016D5E7F4F8AE795E00E9403
:101B60003B1D5CCC682F86E994E00E946E2080913A
:101B70009A0490919B048134910508F4FCC952CCDD
:101B800087EE94E00E94D7168091DB0481110CC08F
:101B900087EE94E00E94A916672B682B692B21F42D
:101BA00061E084E00E9472238091DB048B7FF9F076
:101BB0000E9400226B017C018091DA04883009F4D4
:101BC000CCC108F085C0843009F41DC108F070C094
:101BD000813009F4F7C008F001C10E94002260932F
:101BE000DD047093DE048093DF049093E0040E9490
:101BF000002200919C0410919D0420919E0430913C
:101C00009F04011511052105310509F475C2601BFA
:101C1000710B820B930B97FD6AC260E08CE00E940F
:101C2000722310929C0410929D0410929E041092B4
:101C30009F048091DC04811128C08091DB04811114
:101C400024C00E9400220091DD041091DE04209146
:101C5000DF043091E004601B710B820B930B693839
:101C600073418105910588F0012B022B032B69F04C
:101C70000E94E8021092A40468E670E08AE795E00A
:101C80000E94291D81E08093DC0468960FB6F894C9
:101C9000DEBF0FBECDBFDF91CF911F910F91FF909F
:101CA000EF90DF90CF90BF90AF909F908F9008956E
:101CB000863009F462C008F4FFC08FE00E94A023C0
:101CC000892B09F02BC18AE491E00E942A0483C089
:101CD0008C3009F4D1C140F58A3009F43EC108F4D2
:101CE00061C10E9400226B017C018091A9048130B6
:101CF00009F49FC108F47BC1823009F06ECF809156
:101D0000A5049091A604A091A704B091A804C81AB4
:101D1000D90AEA0AFB0A34EFC31631E0D306E1041C
:101D2000F10408F45ACF57C0863609F416C100F5FD
:101D3000853609F052CF83E10E94A023019709F074
:101D4000B4C140E050E0BA0187EE94E00E94C116B1
:101D500040E050E0BA0187EE94E00E94481640E06F
:101D600050E068E474E487EE94E00E94081733C002
:101D70008736A1F1883609F030CF8091D604909152
:101D8000D704A091D804B091D904C81AD90AEA0A94
:101D9000FB0A8091410590914205B0E0A0E0AC01C2
:101DA000BD014053584F6F4F7F4F4C155D056E0579
:101DB0007F0508F0ACC08AE491E00E94FA038AEC47
:101DC00091E0A2C087EE94E00E94A916672B682BD1
:101DD000692B09F002CF0E940C05FFCE8091D6043A
:101DE0009091D704A091D804B091D904C81AD90A07
:101DF000EA0AFB0A24EFC21621E0D206E104F1044C
:101E000008F4EBCEE8CF0E9400226B017C01209108
:101E1000AF048091AB049091AC04A091AD04B0915B
:101E2000AE04B701A601481B590B6A0B7B0B22239A
:101E3000F9F08091380590913905B0E0A0E048179D
:101E400059076A077B0708F4C8CE60E082E10E9468
:101E5000722360E08DE00E9472231092AF04C09262
:101E6000AB04D092AC04E092AD04F092AE04B5CED7
:101E700080913A0590913B05B0E0A0E048175907E2
:101E80006A077B0708F4A9CE8091B0048F5F809326
:101E9000B0049091AA04891718F01092AA049BCF5D
:101EA00061E082E10E94722361E08DE00E94722372
:101EB00081E08093AF04D3CF8EE00E94A023892BD2
:101EC00029F48AE491E00E94FA0385CF8091D60438
:101ED0009091D704A091D804B091D904C81AD90A16
:101EE000EA0AFB0A8091430590914405B0E0A0E026
:101EF0008C159D05AE05BF0508F06FCE8AE491E014
:101F00000E94FA0388EB91E00E94160366CEC81681
:101F1000D906EA06FB0608F460CED3CF8091D6043A
:101F20009091D704A091D804B091D904C81AD90AC5
:101F3000EA0AFB0A8091460590914705B0E0A0E0CF
:101F40008C159D05AE05BF0508F047CE8AE491E0EB
:101F50000E942A048BED91E0D7CF80E10E94A0235C
:101F6000892B09F4B0CE8091D6049091D704A0912A
:101F7000D804B091D904C81AD90AEA0AFB0A809198
:101F8000480590914905B0E0A0E08C159D05AE058F
:101F9000BF0508F022CE8AE491E00E942A048EEE6A
:101FA00091E0B2CF8FE00E94A023892B39F48AE41C
:101FB00091E00E942A0481E092E0A6CF8091D604AD
:101FC0009091D704A091D804B091D904C81AD90A25
:101FD000EA0AFB0A80914B0590914C05B0E0A0E025
:101FE000C816D906EA06FB0608F4F7CD6CCE809138
:101FF000A5049091A604A091A704B091A80446015D
:102000005701881A990AAA0ABB0AD501C401843F5C
:102010009140A105B10508F4E0CD81E08093A904C9
:10202000C092A504D092A604E092A704F092A8045E
:10203000D4CD8091A5049091A604A091A704B0915D
:10204000A804B701A601481B590B6A0B7B0B8091B2
:10205000360590913705B0E0A0E0481759076A07A8
:102060007B0708F4BACD6091340570E081EE94E00E
:102070000E94FC1982E0D2CF8091D6049091D704BF
:10208000A091D804B091D904C81AD90AEA0AFB0A67
:102090008091510590915205B0E0A0E0C816D90694
:1020A000EA06FB0608F499CD96CE8091D60490916D
:1020B000D704A091D804B091D904C81AD90AEA0A61
:1020C000FB0A8091300590913105B0E0A0E08C15BD
:1020D0009D05AE05BF0508F080CD40E050E0BA0197
:1020E00087EE94E00E94481682E192E00DCF61E015
:1020F0008CE00E9472239DCD2091A404211102C086
:1021000060E0F6CFC0903F05D0904005F12CE12C67
:1021100020913D0530913E0546015701820E931EE8
:10212000A11CB11CA50194012115310541055105E2
:1021300039F38090A0049090A104A090A204B090E4
:10214000A304681979098A099B090E94E52321E003
:102150006C157D058E059F0508F420E0622FC8CF21
:10216000EF92FF920F931F93CF93DF937C0103E9CC
:1021700013E0D0E0C0E0F80160817181C7010E94E6
:102180008120882379F029E02C9FC0012D9F900D9C
:1021900011248D569C4FDF91CF911F910F91FF908D
:1021A000EF9008952196075F1F4FC631D10519F7AB
:1021B00090E080E0F0CFEBE2F5E08FE195EC9183E9
:1021C000808383E0828388EC90E09483838388E833
:1021D00093E19683858385E0878385E580878AE020
:1021E00081878EE6828786E990E09487838780E501
:1021F00090E09687858728E730E0308B278728E0B6
:10220000218B20E23EE4338B228B20E137E2358BB9
:10221000248B20E233E0378B268B20EA3FE0318F9E
:10222000208F48EC428F348F238F368F258F2CEDF3
:10223000278F20E931E031A320A393A382A395A3A4
:1022400084A384EF91E097A386A310A60895FF923C
:102250000F931F93CF93DF938FE195EC90932C0511
:1022600080932B0583E080932D050BE215E023E599
:1022700035E0F80180E0919189272E173F07D9F7C3
:1022800080935305D0E0C0E0F801F1908F01CE01BA
:102290000E944A29F81621F06F2DCE010E94522982
:1022A0002196C932D10581F7DF91CF911F910F910E
:1022B000FF900895EF92FF920F931F93CF93DF93B8
:1022C0000BE215E07801D0E0C0E0CE010E944A297F
:1022D000F70181937F012196C932D105B1F7809131
:1022E0002B0590912C058F31954C89F480912D050B
:1022F000833069F49091530580E0F80121918F01BA
:102300008227F5E003351F07C1F7981751F00E94A7
:10231000DB10DF91CF911F910F91FF90EF900C9404
:102320002711DF91CF911F910F91FF90EF900895AA
:10233000CF92DF92EF92FF92CF93DF936A017B01FE
:10234000E9010E94B010FC018EE492E03097A1F008
:1023500085819681B0E0A0E0C816D906EA06FB06A2
:102360004CF087819085B0E0A0E08C159D05AE050E
:10237000BF0564F486E592E09983888380E0DF916D
:10238000CF91FF90EF90DF90CF900895A381B4811B
:10239000A55DBA4F8281811105C0CC920E942711A0
:1023A00081E0EDCFCD92DC92F9CFCF93DF93EB01BB
:1023B0000E94B0100097D1F0DC011396ED91FC91D2
:1023C0001497E55DFA4F12968C9181110CC08081B3
:1023D00090E0B0E0A0E088839983AA83BB8381E08A
:1023E000DF91CF91089580819181F3CF80E0F8CF84
:1023F000CF92DF92EF92FF92CF93DF9362E175E08D
:102400008AE795E00E94E41CC3E9D3E0EB81FC81FC
:10241000E55DFA4F8A8181112BC0C080D12CF12C4F
:10242000E12C60E28AE795E00E941E1D68817981B7
:102430008AE795E00E94161D6DE38AE795E00E9409
:102440001E1D2AE030E0B701A6018AE795E00E9450
:10245000B01D299684E0C935D807C1F68AE795E012
:10246000DF91CF91FF90EF90DF90CF900C94251DDE
:10247000C080D180D4CF08954F925F926F927F92A7
:102480008F929F92AF92BF92CF92DF92EF92FF9284
:102490000F931F93CF93DF93EC01CC88DD88EE88F8
:1024A000FF8888899989AA89BB89C81AD90AEA0A42
:1024B000FB0A688D798D8A8D9B8D9B01AC010E94F2
:1024C00017264B015C0168A179A18AA19BA19B0100
:1024D000AC010E9447249B01AC01C501B4010E94DC
:1024E000B8240E942A25C114D104E104F10409F0A2
:1024F000B6C062307105810591050CF0D0C01B8219
:102500001C821D821E82188E198E1A8E1B8E1CAA8A
:102510001DAA1EAA1FAAC12CD12C7601C701B60183
:10252000DF91CF911F910F91FF90EF90DF90CF90AF
:10253000BF90AF909F908F907F906F905F904F90E3
:1025400008951016110612061306B4F46C157D05D5
:102550008E059F051CF42A812111A1C09B01AC01AD
:1025600088279927DC01821B930BA40BB50B8CAB3E
:102570009DABAEABBFAB93C0011511052105310575
:1025800009F48DC06C157D058E059F050CF087C084
:102590008A81882309F483C0309520951095019590
:1025A0001F4F2F4F3F4F0CAB1DAB2EAB3FAB77C038
:1025B000011511052105310509F471C088249924FC
:1025C00054018C189D08AE08BF08681579058A0566
:1025D0009B050CF064C08A81811161C0DDCFCCAC59
:1025E000DDACEEACFFACA7019601C701B6010E94BD
:1025F00047242B013C01C501B4010E94622520E063
:1026000030E040E850E40E94172620E030E040E847
:102610005FE30E9447249B01AC01C301B2010E9409
:10262000B8249B01AC01C701B6010E9446243B01BE
:102630006C01FE01E05CFF4FE080F18002811381BC
:102640009701A8010E941226181614F4730186013E
:10265000C701D8018CAF9DAFAEAFBFAF3AC00CA9D8
:102660001DA92EA93FA91C141D041E041F040CF44F
:1026700068CF10161106120613060CF099CF00272A
:10268000112798010C191D092E093F0960177107C0
:10269000820793070CF062CF2A8121115FCF8CA8AB
:1026A0009DA8AEA8BFA881149104A104B10409F0AB
:1026B00096CF88AD99ADAAADBBAD8CAF9DAFAEAF97
:1026C000BFAF81E01C141D041E041F040CF080E049
:1026D0008A833FEF831A930AA30AB30A8CAA9DAA9E
:1026E000AEAABFAA8CAC9DACAEACBFACC501B40168
:1026F0000E9431256B017C01CB82DC82ED82FE825F
:10270000A501940160E074E284E799E40E94B82492
:10271000688F798F8A8F9B8F2A812111FFCE9058E5
:10272000688F798F8A8F9B8FF9CEDC011796EC9199
:102730001797E93008F038C0F0E0EF55FC4E0C94E4
:102740002624AA13B013B613BC13C213D413C81390
:10275000D413CE13ED91FC910684F785E02D0994F6
:10276000ED91FC910088F189E02DF9CFED91FC917C
:102770000288F389E02DF3CFED91FC910488F5896F
:10278000E02DEDCFED91FC910688F789E02DE7CFA4
:10279000ED91FC91008CF18DE02DE1CFED91FC915C
:1027A000028CF38DE02DDBCF0895CF93DF93EC0106
:1027B000CB01BA0126E030E040E050E00E9407245F
:1027C000623071058105910589F16CF4611571051F
:1027D00081059105D1F06130710581059105F9F010
:1027E000DF91CF910895643071058105910561F104
:1027F00024F1653071058105910591F7E881F98132
:102800000284F385E02D66E006C0E881F981028448
:10281000F385E02D64E0CE01DF91CF910994E8814A
:10282000F9810284F385E02D65E0F5CFE881F98137
:102830000284F385E02D61E0EECFE881F981028426
:10284000F385E02D63E0E7CFE881F9810284F38529
:10285000E02D62E0E0CFDC01ED91FC912285338533
:10286000477055276627772741505109610971093B
:10287000473051056105710560F4FA01EE5BFB4ECE
:102880000C9426244C144E14501452145414561400
:10289000581461E0F901099465E0FCCF64E0FACFD7
:1028A00066E0F8CF62E0F6CF6AE0F4CF68E0F2CFFE
:1028B00069E0F0CFCF92DF92EF92FF920F931F93D8
:1028C000CF93DF93DC011796CC91C43039F0C83038
:1028D00059F1C33019F0C63049F1C2E08C01085FEC
:1028E0001F4FF12CE12CC62ED12CD1E0F8016481D0
:1028F000C6010E2C02C0959587950A94E2F780FDDB
:102900006D270F5F1F4F80810E947223BFEFEB1A6C
:10291000FB0AEC1658F3DF91CF911F910F91FF90B6
:10292000EF90DF90CF900895C4E0D8CFC3E0D6CF2A
:10293000CF93DF93EC01E881F9810284F385E02DE8
:102940008A8160E0811162E0CE010995E881F98118
:102950000284F385E02D8A8161E0811163E0CE017C
:1029600009958CA59DA50E946A22E881F9810284BF
:10297000F385E02D8A8160E0811162E0CE01DF9174
:10298000CF9109940C94B421CF93DF93EC0120E014
:1029900030E0A901688D798D8A8D9B8D0E94122669
:1029A00018162CF4E8A9F9A9DF91CF910994EAA9A6
:1029B000FBA9FACFDC01ED91FC910284F385E02DB7
:1029C0004370552766277727423051056105710509
:1029D00071F0433051056105710559F041305105E1
:1029E0006105710511F062E0099463E0FDCF61E0DB
:1029F000FBCF60E0F9CFCF93DF93EC01CB01BA01BD
:102A000023E030E040E050E00E940724613071058F
:102A10008105910599F06230710581059105A9F054
:102A2000672B682B692BC1F4E881F9810284F38557
:102A3000E02D64E0CE01DF91CF910994E881F98126
:102A40000284F385E02D61E0F5CFE881F98102840D
:102A5000F385E02D62E0EECFDF91CF910895DC01A8
:102A6000ED91FC910284F385E02D43705527662794
:102A70007727423051056105710571F043305105EA
:102A80006105710559F0413051056105710511F07D
:102A900065E0099466E0FDCF6AE0FBCF69E0F9CF1D
:102AA000CF93DF93FC0127812223A9F0EC01019051
:102AB000F081E02D0284F385E02D60E009958FA57B
:102AC0008F3F49F061E00E9436236EA58FA5DF910C
:102AD000CF910C947223DF91CF910895CF93DF9320
:102AE000FC012781222359F1EC0161E080850E94DD
:102AF000362361E089850E9436238F81843011F06E
:102B00008830B1F461E08A850E94362361E08B85CC
:102B10000E9436238FA58F3F91F061E00E943623FB
:102B20006EA581E068278FA5DF91CF910C94722369
:102B3000833011F0863071F761E08A85E9CFDF914B
:102B4000CF9108954F925F926F927F928F929F9252
:102B5000AF92BF92CF92DF92EF92FF92CF93DF932B
:102B6000EC016A017B0120E030E0A901CB01B60154
:102B70000E94B32487FF04C0F7FAF094F7F8F094AA
:102B800088A099A0AAA0BBA0A7019601C501B40185
:102B90000E94B324882309F44DC06CA97DA98EA995
:102BA0009FA90E9462252B013C01A7019601C50146
:102BB000B4010E94B8249B01AC01C301B2010E9480
:102BC00017260E942A256CAB7DAB8EAB9FABA7016D
:102BD000960160E070E080E090E40E94B8240E94DA
:102BE0008A2626E53EE04DE25FE30E94172620E0BC
:102BF00034E244E759E40E94172668AF79AF8AAF00
:102C00009BAFC8A2D9A2EAA2FBA2E881F981008405
:102C1000F185E02DCE01DF91CF91FF90EF90DF9015
:102C2000CF90BF90AF909F908F907F906F905F906C
:102C30004F900994DF91CF91FF90EF90DF90CF906C
:102C4000BF90AF909F908F907F906F905F904F90CC
:102C500008950F931F93DC0154960D911D912D91B2
:102C60003C915797041715072607370771F0FC01A9
:102C7000448B558B668B778B0190F081E02D00841F
:102C8000F185E02D1F910F9109941F910F910895E7
:102C90000F931F93FC010089118922893389400F0A
:102CA000511F621F731F1F910F910C942916CF9211
:102CB000DF92EF92FF92CF93DF93FC014381548127
:102CC00065817681452B462B472B41F480E0DF91CF
:102CD000CF91FF90EF90DF90CF900895EC010E948C
:102CE0000C226B017C0188A599A5AAA5BBA5B701FB
:102CF000A601481B590B6A0B7B0B8B819C81AD8114
:102D0000BE81481759076A077B0700F388899989AC
:102D1000AA89BB892A812223C1F00196A11DB11D78
:102D2000888B998BAA8BBB8B488959896A897B8947
:102D3000E881F9810484F585E02DCE010995C8A6C6
:102D4000D9A6EAA6FBA681E0C2CF0197A109B109E5
:102D5000E7CF0F931F93FC01648975898689978952
:102D60000089118922893389601B710B820B930BB7
:102D70001F910F910895FC0160897189828993895F
:102D80000895FC01408B518B628B738B448B558B68
:102D9000668B778B14AA15AA16AA17AA1382148217
:102DA00015821682108E118E128E138E08950F9337
:102DB0001F93CF93DF93EC010E945716882339F0BD
:102DC000E881F9810084F185E02DCE01099520E0AC
:102DD00030E0A901688D798D8A8D9B8D0E94B32486
:102DE000811114C081E00C891D892E893F89488991
:102DF00059896A897B89041715072607370709F45B
:102E000080E0DF91CF911F910F91089581E0F9CF7C
:102E1000CF92DF92EF92FF920F931F93CF93DF93A6
:102E2000EC016A017B0120E030E0A901CB01B60191
:102E30000E94B32487FF04C0F7FAF094F7F8F094E7
:102E4000A70196016C8D7D8D8E8D9F8D0E94B32480
:102E5000882309F44AC0CC8EDD8EEE8EFF8E8E0163
:102E6000005C1F4FA701960160E074E284E799E4DB
:102E70000E94B824F80160837183828393838CA9B4
:102E80009DA9AEA9BFA9181619061A061B066CF54E
:102E9000688D798D8A8D9B8D9B01AC010E941726D0
:102EA0006B017C0168A179A18AA19BA19B01AC0166
:102EB0000E9447249B01AC01C701B6010E94B824BF
:102EC0000E942A256CAB7DAB8EAB9FABE881F9816C
:102ED0000084F185E02DCE01DF91CF911F910F91FC
:102EE000FF90EF90DF90CF900994DF91CF911F91E9
:102EF0000F91FF90EF90DF90CF900895CF92EF92D7
:102F00000F93CF93DF93EC018DE594E09983888351
:102F10006F83188A198A1A8A1B8A1C8A1D8A1E8A3C
:102F20001F8A188E198E1A8E1B8E1C8E1D8E1E8E59
:102F30001F8E18A219A21AA21BA280E090E0A0E89E
:102F4000BFE38CA39DA3AEA3BFA31B821C821D82E3
:102F50001E8261E070E07DA76CA73FEF3FA718A637
:102F600019A61AA61BA6488729870A87EB861EA6DC
:102F70001CAA1DAA1EAA1FAA18AE19AE1AAE1BAE15
:102F80001CAE1DAE1EAE1FAEFE01E05CFF4F808387
:102F90009183A283B3831A821C861D861E861F8698
:102FA000CC2019F0CE010E946E1540E050E060E8A0
:102FB0007FE3CE010E94A21540E050E060E87FE38D
:102FC000CE01DF91CF910F91EF90CF900C94081725
:102FD000CF92DF92EF92FF92CF93DF93EC016A01E1
:102FE0007B0120E030E0A901CB01B6010E94B324AF
:102FF000882359F0B701A601CE01DF91CF91FF9050
:10300000EF90DF90CF900C94A215DF91CF91FF90BD
:10301000EF90DF90CF9008958F929F92AF92BF92E2
:10302000CF92DF92EF92FF92CF93DF93EC01888CE7
:10303000998CAA8CBB8C20E030E0A901C501B401B9
:103040000E94B3248823D9F1A5019401C501B401DC
:103050000E9417266B017C0168A179A18AA19BA11E
:103060009B01AC010E9447249B01AC01C701B60142
:103070000E94B8240E942A256B017C0120E030E0E8
:10308000A901C501B4010E941226B701A6011816B4
:103090008CF44F5F5F4F6F4F7F4FCE01DF91CF9129
:1030A000FF90EF90DF90CF90BF90AF909F908F9068
:1030B0000C9448164095509560957095EECFDF9131
:1030C000CF91FF90EF90DF90CF90BF90AF909F9007
:1030D0008F9008951F920F920FB60F9211242F9385
:1030E0003F934F935F936F937F938F939F93AF9390
:1030F000BF93EF93FF938091550587FF27C01092F0
:10310000850010928400809155058F5F809355054E
:1031100080915505082E000C990B20915405281715
:10312000190629F024F0809155058C30DCF180914E
:10313000840090918500049680349C4908F47BC0FB
:103140008091840090918500049677C08091550508
:10315000082E000C990B209154052817190699F296
:1031600094F2E09155058E2FEE0F990BFC01EE0FB6
:10317000FF1FE80FF91FEA5AFA4F808186FFC3CF7D
:10318000E09155058E2FEE0F990BFC01EE0FFF1FFE
:10319000E80FF91FEA5AFA4F808160E08F730E94AE
:1031A0007223B1CF2091840030918500E0915505C4
:1031B0008E2FEE0F990BFC01EE0FFF1FE80FF91F8A
:1031C000EA5AFA4F81819281820F931F909389006E
:1031D00080938800E09155058E2FEE0F990BFC012E
:1031E000EE0FFF1FE80FF91FEA5AFA4F808186FFA2
:1031F00011C0E09155058E2FEE0F990BFC01EE0FDB
:10320000FF1FE80FF91FEA5AFA4F808161E08F73C0
:103210000E947223FF91EF91BF91AF919F918F9187
:103220007F916F915F914F913F912F910F900FBEC2
:103230000F901F90189580E49CE9909389008093EB
:1032400088008FEF80935505E5CFFC0190915405E0
:103250009C3098F481E0890F809354059083892FE6
:1032600090E0FC01EE0FFF1FE80FF91FEA5AFA4F3A
:1032700088EB9BE09283818308958FEF808308958C
:10328000DF92EF92FF920F931F93CF93DF93EC01A6
:10329000D62E7A01890188818C3008F067C061E000
:1032A0008D2D0E9436238881282F30E0F901EE0F02
:1032B000FF1FE20FF31FEA5AFA4F9D2D9F736081A3
:1032C000607C692B608320E232E02E193F0937FFD2
:1032D00002C02D5F3F4F359527953595279529835A
:1032E00020E639E0201B310B37FF02C02D5F3F4F36
:1032F00035952795359527952A832CE0622F0E94D6
:10330000D923829FB001112430E020E0AB01420FAD
:10331000531FFA01EE0FFF1FE40FF51FEA5AFA4F91
:10332000908196FD16C02F5F3F4F2C30310571F70D
:1033300081110FC01092800082E080938100109272
:10334000850010928400B19A80916F008260809312
:103350006F00E8818E2F90E0FC01EE0FFF1FE80F59
:10336000F91FEA5AFA4F8081806480838881DF9157
:10337000CF911F910F91FF90EF90DF90089520E67D
:1033800039E040E252E00C944019DC01EC91EC3061
:1033900090F511968C91119728E830E0281B31099F
:1033A00087FD3395220F331F220F331F62177307D8
:1033B00084F012968C9128E532E0281B310987FDB4
:1033C0003395220F331F220F331F621773070CF43C
:1033D0009B0122503109220F331F4FB7F8948E2FD3
:1033E00090E0FC01EE0FFF1FE80FF91FEA5AFA4FB9
:1033F000328321834FBF0895AF92BF92CF92DF9265
:10340000EF92FF920F931F93CF93DF93EC01603203
:1034100082E078070CF03EC0653B710514F064EB68
:1034200070E0898148E8A42EB12CA81AB10887FD64
:10343000B394AA0CBB1CAA0CBB1C0B2C000CCC0814
:10344000DD0877FF02C070E060E0072E000C880BFB
:10345000990B2A8108E512E0021B110927FD13953B
:10346000000F111F000F111F012E000C220B330B38
:103470003F932F931F930F9314EBE12EF12C00E059
:1034800010E020E030E0A9010E94411F0F900F9052
:103490000F900F90CE01DF91CF911F910F91FF9070
:1034A000EF90DF90CF90BF90AF900C94C519FC01C6
:1034B00080818F3FD1F090E0FC01EE0FFF1FE80FFD
:1034C000F91FEA5AFA4F8181928133E0880F991FE0
:1034D0003A95E1F7B0E0A0E044E0B595A79597955F
:1034E00087954A95D1F70296089590E080E0089577
:1034F0004F925F926F927F92AF92BF92CF92DF9284
:10350000EF92FF920F931F93CF93DF9300D000D0E1
:10351000CDB7DEB7FC01428128E532E0241B31093A
:1035200047FD3395220F331F220F331FA901330F9D
:10353000660B770B49835A836B837C83218158E820
:10354000452E512C421A510827FD5394440C551C0A
:10355000440C551C052C000C660877080E94571A6D
:103560000196BC01990F880B990B1F921F921F9215
:1035700024EB2F93A12CB12C6501E980FA800B81FB
:103580001C81A30192010E94411F0F900F900F9088
:103590000F90CB010F900F900F900F90DF91CF9174
:1035A0001F910F91FF90EF90DF90CF90BF90AF9061
:1035B0007F906F905F904F900895FC01918D228DC8
:1035C000892F90E0805C9F4F821B91098F73992710
:1035D0000895FC01918D828D981731F0828DE80F4E
:1035E000F11D858D90E008958FEF9FEF0895FC0108
:1035F000918D828D981761F0A28DAE0FBF2FB11DF6
:103600005D968C91928D9F5F9F73928F90E008954D
:103610008FEF9FEF0895FC01538D448D252F30E0EF
:10362000842F90E0821B930B541710F0CF960895CF
:103630000197089581E79CE1892B49F080E090E0B3
:10364000892B29F00E94711C81110C9400000895AF
:10365000FC01A48DA80FB92FB11DA35ABF4F2C9107
:10366000848D90E001968F739927848FA689B789FE
:103670002C93A089B1898C91837080648C93938DF5
:10368000848D981306C00288F389E02D80818F7D98
:1036900080830895CF93DF93EC01888D8823B9F060
:1036A000AA89BB89E889F9898C9185FD03C080814D
:1036B00086FD0DC00FB607FCF7CF8C9185FFF2CFCA
:1036C000808185FFEDCFCE010E94281BE9CFDF91DD
:1036D000CF910895EF92FF920F931F93CF93DF93B3
:1036E000EC0181E0888F9B8D8C8D98131AC0E8893E
:1036F000F989808185FF15C09FB7F894EE89FF890D
:103700006083E889F98980818370806480839FBFAA
:1037100081E090E0DF91CF911F910F91FF90EF90AA
:103720000895F62E0B8D10E00F5F1F4F0F731127BA
:10373000E02E8C8D8E110CC00FB607FCFACFE889F5
:10374000F989808185FFF5CFCE010E94281BF1CF3A
:10375000EB8DEC0FFD2FF11DE35AFF4FF0829FB769
:10376000F8940B8FEA89FB8980818062CFCFCF925A
:10377000DF92EF92FF921F93CF93DF93EC016A01E8
:103780007B01122FE889F98982E08083C11481EEE0
:10379000D806E104F104A1F060E079E08DE390E067
:1037A000A70196010E94E5232150310941095109E1
:1037B0005695479537952795211580E1380798F05C
:1037C000E889F989108260E874E88EE190E0A70149
:1037D00096010E94E523215031094109510956956E
:1037E000479537952795EC85FD853083EE85FF85D8
:1037F0002083188EEC89FD891083EA89FB898081FA
:1038000080618083EA89FB89808188608083EA897E
:10381000FB89808180688083EA89FB8980818F7D34
:103820008083DF91CF911F91FF90EF90DF90CF9039
:1038300008951F920F920FB60F9211242F938F931A
:103840009F93EF93FF93E0918A05F0918B05808120
:10385000E0919005F091910582FD1BC090818091CF
:1038600093058F5F8F7320919405821741F0E0914B
:103870009305F0E0E658FA4F958F80939305FF91FA
:10388000EF919F918F912F910F900FBE0F901F90EE
:1038900018958081F4CF1F920F920FB60F921124CA
:1038A0002F933F934F935F936F937F938F939F9348
:1038B000AF93BF93EF93FF938AE795E00E94281B95
:1038C000FF91EF91BF91AF919F918F917F916F91F8
:1038D0005F914F913F912F910F900FBE0F901F90CE
:1038E00018958AE795E00E94DD1A21E0892B09F4FA
:1038F00020E0822F0895EAE7F5E01382128288EE35
:1039000093E0A0E0B0E084839583A683B7838DE73E
:1039100094E09183808385EC90E09587848784ECA4
:1039200090E09787868780EC90E0918B808B81EC8C
:1039300090E0938B828B82EC90E0958B848B86EC6D
:1039400090E0978B868B118E128E138E148E0895B5
:10395000AF92BF92CF92DF92EF92FF920F931F939D
:10396000CF93DF936C017B018B01040F151FEB01DB
:103970005E01AE18BF08C017D10759F06991D60192
:10398000ED91FC910190F081E02DC6010995892B04
:1039900079F7C501DF91CF911F910F91FF90EF90C3
:1039A000DF90CF90BF90AF900895FB010190002071
:1039B000E9F73197AF01461B570BDC01ED91FC9104
:1039C0000280F381E02D0994EF92FF920F931F93F1
:1039D000CF93DF938C017B01D0E0C0E0F701EC0FC7
:1039E000FD1F6491662361F0D801ED91FC91019077
:1039F000F081E02DC8010995892B11F02196EECFB9
:103A0000CE01DF91CF911F910F91FF90EF9008951C
:103A1000DB0114964D915C9115976D917C91DC01C1
:103A2000ED91FC910280F381E02D099461157105FF
:103A300011F00C94D51C90E080E00895DC01ED912C
:103A4000FC910190F081E02D09946BE874E00C94F6
:103A5000D51C0F931F93CF93DF93EC010E94E41CBE
:103A60008C01CE010E94251D800F911FDF91CF9107
:103A70001F910F9108950F931F93CF93DF93EC0144
:103A80000E94081D8C01CE010E94251D800F911FF0
:103A9000DF91CF911F910F9108950F931F93CF93B3
:103AA000DF938C01D0E0C0E06115710519F00E9430
:103AB000D51CEC01C8010E94251D8C0F9D1FDF91B4
:103AC000CF911F910F9108958F929F92AF92BF92C5
:103AD000EF92FF920F931F93CF93DF93CDB7DEB793
:103AE000A1970FB6F894DEBF0FBECDBF7C01FA01DF
:103AF000CB0119A2223008F42AE08E010F5D1F4F7E
:103B0000822E912CB12CA12CBF01A50194010E9401
:103B1000E523F901CA016A300CF5605DD8016E93A6
:103B20008D01232B242B252B79F790E080E0109733
:103B300021F0BD01C7010E94D51CA1960FB6F894D3
:103B4000DEBF0FBECDBFDF91CF911F910F91FF90D0
:103B5000EF90BF90AF909F908F900895695CDECFFB
:103B6000CF92DF92EF92FF920F931F93CF93DF9349
:103B70002115310581F4DC01ED91FC910190F0817A
:103B8000E02D642FDF91CF911F910F91FF90EF9067
:103B9000DF90CF9009942A30310501F52AE077FFB4
:103BA0001DC06A017B01EC016DE20E941E1D8C01AB
:103BB00044275527BA014C195D096E097F092AE08F
:103BC000CE010E94641D800F911FDF91CF911F9144
:103BD0000F91FF90EF90DF90CF900895DF91CF91FC
:103BE0001F910F91FF90EF90DF90CF900C94641D88
:103BF0009A01AB01770F660B770B0C94B01D0F93F6
:103C00001F93CF93DF93EC010E94F81D8C01CE012E
:103C10000E94251D800F911FDF91CF911F910F9161
:103C200008950F931F93CF93DF93EC010E94B01D73
:103C30008C01CE010E94251D800F911FDF91CF9135
:103C40001F910F9108952115310541F4DC01ED918B
:103C5000FC910190F081E02D642F09940C94641D77
:103C60009A01462F50E070E060E00C94231E0F9301
:103C70001F93CF93DF93EC010E94301E8C01CE0185
:103C80000E94251D800F911FDF91CF911F910F91F1
:103C900008959A01AB0170E060E00C94231E0F932D
:103CA0001F93CF93DF93EC010E94231E8C01CE0162
:103CB0000E94251D800F911FDF91CF911F910F91C1
:103CC0000895813039F018F0823051F00895109243
:103CD0006E00089580916F008D7F80936F0008952E
:103CE000809170008D7F8093700081E08093B000A0
:103CF0008091B100887F84608093B1001092B300FE
:103D00000895CF93C82F80910601C8130DC0ECE130
:103D1000F5E084919FEF909306010E94611E60E0A0
:103D20008C2FCF910C9472238FEFF7CF1F920F92AD
:103D30000FB60F9211242F933F934F935F936F937E
:103D40007F938F939F93AF93BF93EF93FF93809154
:103D50001A0690911B06A0911C06B0911D06892B96
:103D60008A2B8B2BD1F190911706E0911806F091D8
:103D7000190680818927808380911A0690911B06FD
:103D8000A0911C06B0911D06181619061A061B06EE
:103D90009CF480911A0690911B06A0911C06B0918C
:103DA0001D060197A109B10980931A0690931B067D
:103DB000A0931C06B0931D06FF91EF91BF91AF91A8
:103DC0009F918F917F916F915F914F913F912F9133
:103DD0000F900FBE0F901F901895809106010E94C2
:103DE000811EEACF08951F920F920FB60F921124F1
:103DF0002F933F934F935F936F937F938F939F93F3
:103E0000AF93BF93EF93FF93E0910701F091080107
:103E10000995FF91EF91BF91AF919F918F917F9104
:103E20006F915F914F913F912F910F900FBE0F9027
:103E30001F9018951F920F920FB60F9211242F9377
:103E40003F934F935F936F937F938F939F93AF9322
:103E5000BF93EF93FF93E0910901F0910A01099557
:103E6000FF91EF91BF91AF919F918F917F916F9152
:103E70005F914F913F912F910F900FBE0F901F9028
:103E800018954F925F926F927F92AF92BF92CF92AE
:103E9000DF92EF92FF920F931F93CF93DF93CDB7F3
:103EA000DEB729013A019B01AC0124193509460905
:103EB000570989899A89AB89BC89BC01CD016A19E6
:103EC0007B098C099D090E94C923A8019701241927
:103ED0003509460957090E940724CA01B9016A0D2C
:103EE0007B1D8C1D9D1DDF91CF911F910F91FF9028
:103EF000EF90DF90CF90BF90AF907F906F905F90EA
:103F00004F900895FC0180819181009711F00C94ED
:103F10007B270895CF93DF93EC01888199810097E7
:103F200011F00E947B27198218821D821C821B823D
:103F30001A82DF91CF9108950F931F93CF93DF9350
:103F4000EC018B016F5F7F4F888199810E9404286B
:103F5000009751F0998388831B830A8381E0DF9166
:103F6000CF911F910F91089580E0F9CFCF93DF9308
:103F7000EC0188819981892B49F08A819B81861780
:103F8000970720F081E0DF91CF910895CE010E9444
:103F90009C1F8823C1F38C819D81892B99F7E8812F
:103FA000F9811082EFCFEF92FF920F931F93CF937F
:103FB000DF93EC017B018A01BA010E94B61F8111D7
:103FC0000BC0CE010E948A1FCE01DF91CF911F91BD
:103FD0000F91FF90EF9008951D830C83B7018881A6
:103FE00099810E940E29F0CFFC0111821082138268
:103FF0001282158214826115710551F0FB01019046
:104000000020E9F73197AF01461B570B0C94D31FE3
:104010000895FB0101900020E9F73197AF01461B9D
:10402000570B0C94D31FCF93DF93EC01FB01861742
:10403000970749F0608171816115710541F04481F4
:1040400055810E94D31FCE01DF91CF9108950E9428
:104050008A1FF9CFFC01118210821382128215820D
:1040600014820C941320CF93DF93EC01611571053A
:1040700031F00E940920CE01DF91CF9108950E9476
:104080008A1FF9CFEF92FF920F931F93CF93DF9385
:104090006115710541F480E0DF91CF911F910F917F
:1040A000FF90EF90089541155105B1F07B01EC01AF
:1040B0000C811D81040F151FB8010E94B61F8823B3
:1040C00051F3288139818C819D81B701820F931F23
:1040D0000E940E291D830C8381E0DECFCF93DF93F6
:1040E00000D0CDB7DEB769831A8241E050E0BE014F
:1040F0006F5F7F4F0E9442200F900F90DF91CF9112
:104100000895FC0124813581232B31F421E0FB014A
:10411000672B49F4822F0895808191816115710583
:1041200039F421E0FC0180818823A1F320E0F2CF63
:104130000E94052921E0892B69F3F8CFDB01149651
:10414000ED91FC91DC0114962D913C9115972E1B5D
:104150003F0B24173507A0F02D913C912115310517
:1041600079F0DB016D917C916115710549F0CA010F
:10417000AF01820F931F0E94152921E0892B09F0BE
:1041800020E0822F0895FC0144815581FB012481A8
:1041900035814217530720F050E040E00C949E20F8
:1041A00080E00895CF93DF93FC012481358142178D
:1041B000530788F4C081D181062E000C770BCE0105
:1041C000840F951F0E94FA28009729F08C1B9D0BE5
:1041D000DF91CF9108958FEF9FEFFACF50E040E04D
:1041E0000C94D220AF92BF92CF92DF92EF92FF92C7
:1041F0000F931F93CF93DF935C016B017A018901C9
:104200002417350720F48F2D7901042F182F6DE81E
:1042100074E0C5010E94F41FD6011496CD91DC9183
:10422000EC16FD06C8F40C171D0708F4E801D601CA
:10423000ED91FC911197EC0FFD1F108110826D9193
:104240007C916E0D7F1DC5010E943320F601808197
:104250009181C80FD91F1883C501DF91CF911F919C
:104260000F91FF90EF90DF90CF90BF90AF900895A7
:10427000AF92BF92CF92DF92EF92FF920F931F9374
:10428000CF93DF93DC01CD90DC901197C114D10462
:1042900039F01496CD91DC918C017601209761F470
:1042A000DF91CF911F910F91FF90EF90DF90CF9012
:1042B000BF90AF90089575015701BFEFAB1ABB0ACD
:1042C000F7018081082E000C990B0E94E828892BA9
:1042D00091F72197CC0DDD1D8881082E000C990BDC
:1042E0000E94E828892B29F0CE15DF0510F02197D0
:1042F000F3CFAE014F5F5F4F4E195F09D80115969E
:104300005C934E931497CE14DF0420F4B701C601DA
:104310000E94F128D801ED91FC91119714968D918E
:104320009C91E80FF91F1082BBCFFC018081918125
:10433000009711F00C94C12860E070E0CB01089563
:10434000089590E080E0089508950E9475220E94EB
:10435000A4210E94D706CAE1DBE10E9490072097C2
:10436000E1F30E941A1BF9CF0C947B271F920F9246
:104370000FB60F9211242F933F938F939F93AF9378
:10438000BF9380911F0690912006A0912106B091C5
:10439000220630911E0623E0230F2D3758F5019693
:1043A000A11DB11D20931E0680931F069093200629
:1043B000A0932106B09322068091230690912406B3
:1043C000A0912506B09126060196A11DB11D8093EE
:1043D000230690932406A0932506B0932606BF914A
:1043E000AF919F918F913F912F910F900FBE0F90A2
:1043F0001F90189526E8230F0296A11DB11DD2CF5C
:104400002FB7F89460911F067091200680912106C5
:10441000909122062FBF08953FB7F894809123060C
:1044200090912406A0912506B091260626B5A89B5A
:1044300005C02F3F19F00196A11DB11D3FBFBA2F36
:10444000A92F982F8827BC01CD01620F711D811DF6
:10445000911D42E0660F771F881F991F4A95D1F77B
:1044600008958F929F92AF92BF92CF92DF92EF9278
:10447000FF926B017C010E940C224B015C01C11474
:10448000D104E104F104E9F00E94A0210E940C2271
:10449000681979098A099B09683E7340810591056D
:1044A00070F321E0C21AD108E108F10888EE880E05
:1044B00083E0981EA11CB11CC114D104E104F104D5
:1044C00029F7FF90EF90DF90CF90BF90AF909F9033
:1044D0008F9008958230910538F0880F991F880FCA
:1044E000991F05970197F1F70895789484B5826034
:1044F00084BD84B5816084BD85B5826085BD85B588
:10450000816085BDEEE6F0E0808181608083E1E836
:10451000F0E010828081826080838081816080836E
:10452000E0E8F0E0808181608083E1EBF0E0808171
:1045300084608083E0EBF0E0808181608083EAE743
:10454000F0E08081846080838081826080838081CC
:10455000816080838081806880831092C10008958B
:104560001F93CF93DF93182FEB0161E00E94362356
:10457000209739F460E0812FDF91CF911F910C9447
:104580007223CF3FD10511F461E0F5CFE12FF0E0C8
:10459000E35EFA4FE491E33031F140F4E130B1F001
:1045A000E230E1F0C038D1057CF7E4CFE73029F103
:1045B000E83059F1E430B1F7809180008062809357
:1045C0008000D0938B00C0938A0004C084B58068BB
:1045D00084BDC7BDDF91CF911F91089584B58062DE
:1045E00084BDC8BDF7CF8091800080688093800033
:1045F000D0938900C0938800EDCF8091B00080688F
:104600008093B000C093B300E5CF8091B00080628A
:104610008093B000C093B400DDCF833081F028F4E4
:10462000813099F08230A9F008958730A9F0883060
:10463000C9F08430B1F4809180008F7D03C08091F7
:1046400080008F7780938000089584B58F7784BD34
:10465000089584B58F7DFBCF8091B0008F778093D4
:10466000B00008958091B0008F7DF9CFCF93DF9394
:1046700090E0FC01EF5CFA4F24918B5B9A4FFC01B8
:1046800084918823C9F090E0880F991FFC01E359B9
:10469000FA4FA591B491FC01ED59FA4FC591D4910F
:1046A00061110DC09FB7F8948C91209582238C9353
:1046B0008881282328839FBFDF91CF91089562309E
:1046C00051F49FB7F8943C91822F809583238C936B
:1046D000E8812E2BEFCF8FB7F894EC912E2B2C93F3
:1046E0008FBFEACF1F93CF93DF93282F30E0F901DC
:1046F000E35EFA4F8491F901EF5CFA4FD491F9012E
:10470000EB5BFA4FC491CC23A9F0162F81110E94C4
:104710000D23EC2FF0E0EE0FFF1FED59FA4FA5919E
:10472000B4918FB7F894EC91111108C0D095DE23A5
:10473000DC938FBFDF91CF911F910895DE2BF8CFCF
:10474000CF93DF93282F30E0F901E35EFA4F849195
:10475000F901EF5CFA4FD491F901EB5BFA4FC49188
:10476000CC23A1F081110E940D23EC2FF0E0EE0F7D
:10477000FF1FE75AFA4FA591B491EC91ED2381E028
:1047800090E009F480E0DF91CF91089580E090E01F
:10479000FACFDB018F939F930E942C24BF91AF919E
:1047A000A29F800D911DA39F900DB29F900D11248B
:1047B0000895991B79E004C0991F961708F0961B7D
:1047C000881F7A95C9F780950895A1E21A2EAA1B31
:1047D000BB1BFD010DC0AA1FBB1FEE1FFF1FA217B1
:1047E000B307E407F50720F0A21BB30BE40BF50BAE
:1047F000661F771F881F991F1A9469F76095709537
:10480000809590959B01AC01BD01CF010895052EC7
:1048100097FB1EF400940E941E2457FD07D00E94AF
:10482000E52307FC03D04EF40C941E2450954095CC
:10483000309521953F4F4F4F5F4F0895909580954C
:10484000709561957F4F8F4F9F4F0895EE0FFF1F1B
:104850000590F491E02D09940E943724A59F900DB6
:10486000B49F900DA49F800D911D11240895A29FC7
:10487000B001B39FC001A39F700D811D1124911D34
:10488000B29F700D811D1124911D08955058BB27B2
:10489000AA270E945E240C94D8250E94CA2538F0CD
:1048A0000E94D12520F039F49F3F19F426F40C948E
:1048B000C7250EF4E095E7FB0C94C125E92F0E9473
:1048C000E92558F3BA17620773078407950720F0A4
:1048D00079F4A6F50C940B260EF4E0950B2EBA2F66
:1048E000A02D0B01B90190010C01CA01A0011124F6
:1048F000FF27591B99F0593F50F4503E68F11A16A2
:10490000F040A22F232F342F4427585FF3CF469532
:1049100037952795A795F0405395C9F77EF41F1654
:10492000BA0B620B730B840BBAF09150A1F0FF0F1E
:10493000BB1F661F771F881FC2F70EC0BA0F621F0A
:10494000731F841F48F4879577956795B795F795FA
:104950009E3F08F0B0CF9395880F08F09927EE0F8F
:104960009795879508950E949D2508F481E0089504
:104970000E94CC240C94D8250E94D12558F00E9486
:10498000CA2540F029F45F3F29F00C94C12551114C
:104990000C940C260C94C7250E94E92568F39923F2
:1049A000B1F3552391F3951B550BBB27AA2762172B
:1049B0007307840738F09F5F5F4F220F331F441F38
:1049C000AA1FA9F335D00E2E3AF0E0E832D091506C
:1049D0005040E695001CCAF72BD0FE2F29D0660F59
:1049E000771F881FBB1F261737074807AB07B0E89C
:1049F00009F0BB0B802DBF01FF2793585F4F3AF0A2
:104A00009E3F510578F00C94C1250C940C265F3F15
:104A1000E4F3983ED4F3869577956795B795F79527
:104A20009F5FC9F7880F911D9695879597F908950F
:104A3000E1E0660F771F881FBB1F621773078407AB
:104A4000BA0720F0621B730B840BBA0BEE1F88F7BA
:104A5000E09508950E9431256894B1110C940C26BC
:104A600008950E94F12588F09F5798F0B92F992753
:104A7000B751B0F0E1F0660F771F881F991F1AF049
:104A8000BA95C9F714C0B13091F00E940B26B1E07D
:104A900008950C940B26672F782F8827B85F39F07C
:104AA000B93FCCF3869577956795B395D9F73EF4E2
:104AB00090958095709561957F4F8F4F9F4F08958A
:104AC000E89409C097FB3EF49095809570956195A8
:104AD0007F4F8F4F9F4F9923A9F0F92F96E9BB275E
:104AE0009395F695879577956795B795F111F8CFDA
:104AF000FAF4BB0F11F460FF1BC06F5F7F4F8F4F45
:104B00009F4F16C0882311F096E911C0772321F03A
:104B10009EE8872F762F05C0662371F096E8862FD2
:104B200070E060E02AF09A95660F771F881FDAF729
:104B3000880F9695879597F90895990F0008550F56
:104B4000AA0BE0E8FEEF16161706E807F907C0F013
:104B500012161306E407F50798F0621B730B840B1B
:104B6000950B39F40A2661F0232B242B252B21F4F5
:104B700008950A2609F4A140A6958FEF811D811D95
:104B8000089597F99F6780E870E060E008959FEFCF
:104B900080EC089500240A941616170618060906D4
:104BA000089500240A9412161306140605060895A3
:104BB000092E0394000C11F4882352F0BB0F40F42B
:104BC000BF2B11F460FF04C06F5F7F4F8F4F9F4F6B
:104BD000089557FD9058440F551F59F05F3F71F0ED
:104BE0004795880F97FB991F61F09F3F79F0879554
:104BF0000895121613061406551FF2CF4695F1DFDD
:104C000008C0161617061806991FF1CF869571056C
:104C1000610508940895E894BB2766277727CB01A0
:104C200097F908950E949D2508F48FEF08950E943A
:104C30002A260C94D8250E94CA2538F00E94D12536
:104C400020F0952311F00C94C1250C94C725112454
:104C50000C940C260E94E92570F3959FC1F3950FE3
:104C600050E0551F629FF001729FBB27F00DB11DF0
:104C7000639FAA27F00DB11DAA1F649F6627B00D80
:104C8000A11D661F829F2227B00DA11D621F739F69
:104C9000B00DA11D621F839FA00D611D221F749F77
:104CA0003327A00D611D231F849F600D211D822FBE
:104CB000762F6A2F11249F5750409AF0F1F08823E5
:104CC0004AF0EE0FFF1FBB1F661F771F881F915012
:104CD0005040A9F79E3F510580F00C94C1250C94DB
:104CE0000C265F3FE4F3983ED4F38695779567955D
:104CF000B795F795E7959F5FC1F7FE2B880F911D3C
:104D00009695879597F9089519F416F40C94C7258C
:104D10000C94CA260E94F125B8F39923C9F3B6F37F
:104D20009F57550B87FF0E94D8260024A0E640EA33
:104D3000900180585695979528F4805C660F771FF0
:104D4000881F20F026173707480730F4621B730BC3
:104D5000840B202931294A2BA695179407942025E6
:104D600031254A2758F7660F771F881F20F026172E
:104D70003707480730F4620B730B840B200D311D8D
:104D8000411DA09581F7B901842F9158880F969500
:104D9000879508959F3F31F0915020F4879577953E
:104DA0006795B795880F911D9695879597F9089502
:104DB00091505040660F771F881FD2F708950F93C8
:104DC0001F93CF93DF938230910510F482E090E03F
:104DD000E0912906F0912A0630E020E0B0E0A0E062
:104DE000309799F42115310509F44AC0281B390B75
:104DF00024303105D8F58A819B816115710589F1CF
:104E0000FB0193838283FE0111C0408151810281A5
:104E1000138148175907E0F04817590799F410977C
:104E200061F012960C93129713961C933296CF0151
:104E3000DF91CF911F910F91089500932906109350
:104E40002A06F4CF2115310551F04217530738F0E7
:104E5000A901DB019A01BD01DF01F801C1CFEF011A
:104E6000F9CF90932A0680932906CDCFFE01E20F59
:104E7000F31F819391932250310939832883D7CF2F
:104E80002091270630912806232B41F4209102011E
:104E900030910301309328062093270620910001CA
:104EA000309101012115310541F42DB73EB74091F4
:104EB000040150910501241B350BE0912706F09168
:104EC0002806E217F307A0F42E1B3F0B281739071B
:104ED00078F0AC014E5F5F4F2417350748F04E0F56
:104EE0005F1F5093280640932706819391939FCF8D
:104EF000F0E0E0E09CCFCF93DF930097E9F0FC0176
:104F0000329713821282A0912906B0912A06ED01F0
:104F100030E020E01097A1F420813181820F931FAF
:104F200020912706309128062817390709F061C01B
:104F3000F0932806E0932706DF91CF910895EA01C8
:104F4000CE17DF07E8F54A815B819E0141155105C7
:104F5000B1F7E901FB83EA8349915991C40FD51F49
:104F6000EC17FD0761F4808191810296840F951FF3
:104F7000E90199838883828193819B838A83F0E00E
:104F8000E0E012968D919C9113970097B9F52D91C1
:104F90003C911197CD010296820F931F2091270615
:104FA000309128062817390739F6309751F51092B5
:104FB0002A0610922906B0932806A0932706BCCF94
:104FC000D383C28340815181840F951FC817D907AD
:104FD00061F44E5F5F4F88819981480F591F51835B
:104FE00040838A819B81938382832115310509F057
:104FF000B0CFF0932A06E09329069ECFFD01DC0195
:10500000C0CF13821282D7CFB0E0A0E0EAE0F8E28E
:105010000C9462298C01009751F4CB010E94DF2689
:105020008C01C801CDB7DEB7E0E10C947E29FC010C
:10503000E60FF71F9C0122503109E217F30708F42D
:105040009DC0D901CD91DC911197C617D70798F073
:10505000C530D10530F3CE0104978617970708F3C2
:10506000C61BD70B2297C193D1936D937C93CF012D
:105070000E947B27D6CF5B01AC1ABD0A4C018C0E77
:105080009D1EA0912906B0912A06512C412CF12C8D
:10509000E12C109731F5809127069091280688150C
:1050A000990509F05CC04616570608F058C0809173
:1050B000000190910101009741F48DB79EB7409196
:1050C000040150910501841B950BE817F90708F0BE
:1050D00055C0F0932806E0932706F9017183608399
:1050E000A0CF8D919C91119712966C901297139668
:1050F0007C901397A815B90559F56C0142E0C40ED0
:10510000D11CCA14DB0420F1AC014A195B09DA0195
:105110001296159780F06282738251834083D90181
:105120006D937C93E114F10471F0D7011396FC9315
:10513000EE93129776CF22968C0F9D1FF9019183E3
:105140008083F301EFCFF0932A06E093290669CF1D
:105150004816590608F42C017D01D3019ACFCB01E2
:105160000E94DF267C01009749F0AE01B8010E9441
:10517000F128C8010E947B27870153CF10E000E08F
:1051800050CF1F93FC0199278827BC01E894119107
:105190001032E9F3193010F01E30C8F31B3251F011
:1051A0001D3249F4689406C00E943229610F711DB6
:1051B000811D911D119110531A30B0F33EF490955A
:1051C0008095709561957F4F8F4F9F4F1F910895E8
:1051D00091110C944729803219F089508550C8F7F5
:1051E0000895FB01DC0102C001900D924150504036
:1051F000D8F70895FC018191861721F08823D9F70B
:10520000992708953197CF010895FB01DC018D9115
:10521000019080190110D9F3990B0895FB01DC016D
:1052200001900D920020E1F70895FB01DC0141504F
:10523000504030F08D910190801919F40020B9F799
:10524000881B990B0895FB01DC014150504048F048
:1052500001900D920020C9F701C01D9241505040AD
:10526000E0F70895592F482F372F262F660F771F05
:10527000881F991F660F771F881F991F620F731F62
:10528000841F951F660F771F881F991F0895992700
:1052900088270895F999FECF92BD81BDF89A992784
:1052A00080B50895262FF999FECF1FBA92BD81BD12
:1052B00020BD0FB6F894FA9AF99A0FBE0196089598
:1052C0002F923F924F925F926F927F928F929F9216
:1052D000AF92BF92CF92DF92EF92FF920F931F9304
:1052E000CF93DF93CDB7DEB7CA1BDB0B0FB6F894B5
:1052F000DEBF0FBECDBF09942A88398848885F84F5
:105300006E847D848C849B84AA84B984C884DF8065
:10531000EE80FD800C811B81AA81B981CE0FD11D49
:105320000FB6F894DEBF0FBECDBFED010895F8941F
:02533000FFCFAD
:1053320000002B062000FFF21EF21E3F006677647B
:105342000072657600736F6C3100736F6C32006FA0
:105352006E006F66660070756C736520007465730D
:10536200742000302E362E300070696E670068653A
:105372006C70007374617475730073746F70007075
:105382006172616D7300676574200073657420003B
:10539200737475666600737465702000737465704B
:1053A2007065722000707265737320007075736887
:1053B20065722000736572766F2000736F6C656E84
:1053C2006F696420312000736F6C656E6F696420B1
:1053D200322000686F7070657220006B6E6F636BB5
:1053E200006B6E6F636B200070726573735F66771C
:1053F200645F74696D656F75740070726573735F55
:105402007265765F7361666574790070757368653D
:10541200725F6677645F74696D656F75740070752D
:10542200736865725F7265765F74696D656F7574B6
:1054320000656A6563745F6F766572747261766522
:105442006C00686F6D655F6472756D5F74696D6520
:105452006F75740069646C6500686F6D696E6700D2
:105462007374756666696E67007374657000657241
:10547200726F720024022902300239023E02756EF6
:105482006B6E6F776E0072616E6765006472756D28
:105492005F73746570735F7065725F706F730068BD
:1054A2006F6D655F6472756D5F74696D656F75743C
:1054B2005F6D7300736572766F5F686F6D65007301
:1054C2006572766F5F6C6F6164006375745F686F9D
:1054D2006D65006375745F637574006375745F64F2
:1054E20077656C6C5F6D73006B6E6F636B5F6F6E75
:1054F2005F6D73006B6E6F636B5F6F66665F6D737C
:10550200006B6E6F636B5F6379636C657300686FCA
:10551200707065725F6F6E5F6D7300686F7070653B
:10552200725F6F66665F6D730070726573735F7230
:1055320065765F6D730070726573735F6677645F23
:1055420074696D656F75745F6D73007072657373E6
:105552005F70776D007075736865725F6677645F00
:1055620074696D656F75745F6D73007075736865CE
:10557200725F7265765F74696D656F75745F6D7366
:10558200007075736865725F70776D00656A656338
:10559200745F6677645F6D7300736F6C315F6477FD
:1055A200656C6C5F6D7300736F6C325F6477656CF2
:1055B2006C5F6D7300737465705F64656C61795FB5
:1055C2006D73005C02010300010010276F020105E8
:1055D20000640060EA84020007000000B4008F0249
:1055E2000008000000B4009A020009000000B400A4
:1055F200A302000A000000B400AB02010B0000008D
:10560200D007B802010D000100E803C402010F0037
:105612000100D007D10200110001003200DE0201B8
:105622001200640060EAEB02011400640060EAF90F
:1056320002011600320010270603011800640098C8
:105642003A1B03001A003C00FF002503011B006403
:105652000010273B03011D00640010275103001FA7
:10566200003C00FF005C0301200032008813690344
:105672000122000100E80377030124000100E8038E
:105682008503012600000010270000000050156E5F
:10569200153B12C2143C125A149513C4149814DA0E
:1056A20014FB142F15D5132B14000000006A1BA83D
:0E56B2001C0B1B4A1BDD1AF71AE91A0D0A0021
:00000001FF
